:020000040800F2
:10000000D8EF0020A50200080F4A0008234100088D
:100010000D4A0008551100084D5E00080000000060
:10002000000000000000000000000000E1010008E6
:1000300019170008000000003D0200089150000858
:10004000BF020008BF020008BF020008BF0200088C
:10005000BF020008BF020008BF020008BF0200087C
:10006000BF020008BF020008BF020008BF0200086C
:100070005D160008BF02000869160008BF020008EC
:10008000BF020008BF020008BF020008BF0200084C
:10009000BF020008BF020008BF020008BF0200083C
:1000A0006D510008B15100089551000889510008B0
:1000B000BD510008C9510008D5510008BF02000811
:1000C000BF020008BF020008BF020008BF0200080C
:1000D000BF0200081D5D0008295D0008355D0008AD
:1000E000BF020008BF020008BF0200080952000852
:1000F0003D5200082152000815520008BF020008B6
:10010000BF020008BF020008E1510008BF0200085A
:10011000BF020008D1560008BF020008ED510008D8
:10012000BF020008BF020008BF020008BF020008AB
:10013000BF020008BF020008BF020008BF0200089B
:10014000BF020008BF020008BF020008BF0200088B
:10015000BF020008BF020008BF020008BF0200087B
:10016000BF020008BF020008BF020008BF0200086B
:10017000BF020008BF020008BF020008BF0200085B
:10018000BF020008BF020008DD560008E95600085B
:10019000BF020008BF020008BF020008BF0200083B
:1001A000BF020008BF020008BF020008BF0200082B
:1001B000BF020008BF020008BF020008BF0200081B
:1001C000BF020008BF020008DFF810D000F044FBB7
:1001D00000480047218B0008AFF30080D8EF0020D3
:1001E0002D4B19680868B0E8F04F80F30988BFF319
:1001F0006F8F4FF0000080F31188704700000000FF
:1002000008480068006880F308884FF0000080F319
:10021000148862B661B6BFF34F8FBFF36F8F00DFF4
:1002200000BF00BF08ED00E0DFF80C00016841F4FA
:1002300070010160704700BF88ED00E0EFF30980B6
:10024000BFF36F8F144B1A681EF0100F08BF20ED1C
:10025000108A20E9F04F106009B44FF0500072B6D8
:1002600080F31188BFF34F8FBFF36F8F62B60BF02F
:10027000E5F84FF0000080F3118809BC19680868A0
:10028000B0E8F04F1EF0100F08BFB0EC108A80F3FA
:100290000988BFF36F8F704714000020EFF30580CB
:1002A000704700000648804706480047FEE7FEE723
:1002B000FEE7FEE7FEE7FEE7FEE7FEE7FEE7FEE716
:1002C0005D510008C90100082DE9F05F05460020D6
:1002D00092469B4688460646814640241BE02846B7
:1002E00041464746224600F003F953465A46C01A93
:1002F000914110D311461846224600F0EAF82D1A13
:1003000067EB01084F4622460120002100F0E1F88A
:1003100017EB00094E41201EA4F10104DFDC484622
:1003200031462A464346BDE8F09F10B5431A934232
:1003300009D28318881803E010F8011D03F8011D85
:10034000521EF9D210BD40EA01039B0703D009E019
:1003500008C9121F08C0042AFAD203E011F8013BB1
:1003600000F8013B521EF9D210BDD2B201E000F8F4
:10037000012B491EFBD270470022F6E710B5134649
:100380000A4604461946FFF7F0FF204610BD421CFE
:1003900010F8011B0029FBD1801A70472DE9FE4F90
:1003A00081EA030404F0004421F0004100944FF07E
:1003B000000B23F0004350EA01045ED052EA03042C
:1003C0005BD0C3F30A54C1F30A552C44A4F2F334AE
:1003D0000194A0FB0254C1F3130141F48011C3F353
:1003E000130343F4801301FB024400FB034E840A11
:1003F000970A44EA815447EA8357A4FB07680295A9
:100400008D0A05FB07854FEA932C04FB0C54270546
:10041000029D4FEA065847EA1637B5EB08056EEB22
:10042000070C870E920E47EA811742EA8312A7FB58
:100430000201B6EB0B0164EB00042B0D43EA0C3315
:100440005E1844EB1C50DA465146E7FB0201C5F347
:1004500013044FEA0B3343EA14534FEA0432019C6E
:1004600043EA0603A4F10C040294009CCDE900B415
:1004700000F05DF803B0BDE8F08F00200146F9E719
:1004800000F0004230F000400AD0C10D01F560716B
:10049000C0F3160042EA0151C208400711437047F9
:1004A00000200146704730B50B460146002020224F
:1004B000012409E021FA02F59D4205D303FA02F571
:1004C000491B04FA02F52844151EA2F10102F1DCD1
:1004D00030BD202A04DB203A00FA02F100207047E8
:1004E0009140C2F1200320FA03F319439040704772
:1004F000202A04DB203A21FA02F00021704721FA79
:1005000002F3D040C2F120029140084319467047DF
:1005100010B5141E73F1000408DA401C41F100010B
:1005200092185B411A4301D120F0010010BD2DE962
:10053000F04D92469B4611B1B1FA81F202E0B0FA59
:1005400080F220329046FFF7C4FF04460F4640EA8F
:100550000A0041EA0B0153465A46084313D011469C
:1005600053EA010019D0C8F140025046FFF7C0FF1E
:1005700005460E46504659464246FFF7AAFF084335
:1005800005D0012004E020463946BDE8F08D00206A
:10059000054346EAE0762C4337430A986305E40AAC
:1005A000A0EB08000022FD0A44EA47540A3002D5B5
:1005B00000200146E9E7010510196941DDE9084518
:1005C00000196941BDE8F04DA2E72DE9FE4F8046D4
:1005D00081EA0300C00F0C46009021F0004123F097
:1005E0000045B8EB0200A94105D24046214690469D
:1005F0001C460B46024623F00040104347D0270D0F
:10060000C7F30A00C3F30A510290401A0190402830
:100610006BDAC3F3130040F4801B0098924620B1BC
:100620000023D2EB030A63EB0B0B01985946C0F190
:1006300040025046FFF74DFF06460D4650465946CC
:10064000019A00F01BF910EB08006141002487EAD1
:10065000115284EAE7731A4340D0009A62B3019AB8
:10066000012A4FEA075215DC001B61EB02014FF033
:10067000004202EA0752CDE90042001C41F5801118
:1006800032462B46FFF753FF03B0BDE8F08F4046DC
:100690002146F9E7001B61EB0201001C41F58013C4
:1006A00000185B412018A2F5001747EB030140EA50
:1006B000D570B6196D4111E06D084FEA360645EA6E
:1006C000C0754FEA0752001B61EB0201001C41F5A7
:1006D000801149084FEA30000019514132462B463B
:1006E00003B0BDE8F04FFFF713BF009801224000B0
:1006F0000023D0EB020263EBE073009821464FEA3F
:10070000E074B8EB000061EB0401E9E783F000431B
:100710005BE781F0004158E72DE9F04D81EA0304E1
:1007200004F0004B21F0004514464FF0000A23F07E
:10073000004150EA050220D054EA01021DD0C5F361
:100740000A570246C5F31303C1F31300C1F30A5657
:1007500040F4801543F48013A7EB0608101BD6461F
:1007600008F2FD3873EB050002D308F1010801E03F
:1007700092185B41B8F1000F03DA00200146BDE892
:10078000F08D00204FF48011064684460EE0171BC2
:1007900073EB050705D3121B63EB050306434CEA15
:1007A000010C49084FEA300092185B4150EA0107FA
:1007B000EDD152EA030012D082EA040083EA050177
:1007C000084305D0101BAB4106D20122002306E0EE
:1007D00000224FF0004302E06FF0010253101AEBC9
:1007E00006004CEB085110EB0A0041EB0B01BDE891
:1007F000F04DFFF78DBEC1F30A52C1F3130140F271
:10080000FF3341F480119A4202DA0020014670471A
:1008100040F233439A42A2F2334202DC5242FFF7E3
:1008200067BEFFF756BE000030B5041E71F100042C
:1008300004DB4FF00044404264EB0101141E73F1ED
:10084000000405DB1C464FF00043524263EB0403F7
:10085000994208BF904230BD064C074D06E0E06863
:1008600040F0010394E8070098471034AC42F6D3F7
:10087000FFF7AEFC2CC200084CC20008202A06DBA1
:10088000CB17203A41FA02F043EAE07306E041FA5E
:1008900002F3D040C2F1200291400843194670474C
:1008A00070B58D1810F8014B14F0030201D110F847
:1008B000012B231106D110F8013B03E010F8016B66
:1008C00001F8016B521EF9D1ABB110F8012B04F005
:1008D0000C048A1A0C2C03D0A2EB84129B1C08E097
:1008E00010F8014BA2EB0422F8E712F8014B01F8D3
:1008F000014B5B1EF9D5A942D4D3002070BD000086
:10090000F0B500242DED088B81B09FED8F8A8F49C3
:1009100001208F4F8DED008AF0EE488A0870386A0A
:10092000B0EE489A010501D5012008E0C10401D5C7
:10093000022004E0000301D5032000E0002008F0BD
:1009400079F8F0EE489A0220B0EE691AF3EE040A44
:10095000B3EE040A00F0C0FC00F01CFC7D4E7E4D9E
:10096000B7EE00BAF3EE04AAB1EE04AA052C7CD2CD
:10097000DFE804F0033F8094AD00022000F066FD44
:10098000B3EE040A00F074FD00F09AFCB0EEC00A69
:1009900010EE100A714988422ADBB1EE040A04F015
:1009A000F5F9002824D0734810226DA14FF6FF738B
:1009B00003F062FB00F0D0FB4FF448700AF0EAFB52
:1009C000D7ED090A96ED000A08F044FD97ED098A73
:1009D00038EE0B0A06F064FEF0EE408A0420B0EE1A
:1009E000681AF3EE040AB3EE040A00F075FC012461
:1009F0009FE095ED000A0020F0EE693A30EE2A2AD9
:100A000030EE0A1AF2EE082AF3EE091A32EE2A3A0A
:100A1000F0EE680AB3EE090A03F0FAFF00F0BAFB41
:100A20000420B0EE681AF2EE080AB2EE0E0A00F0E8
:100A3000D1FB96ED020AF0EE680A9FED4F1A0020F6
:100A4000F0EE693A40EE410A95ED000AF2EE082A0E
:100A5000B0EE692A30EE0A3AF2EE081AB0EE691AE0
:100A6000B2EE080A03F0D4FF00E061E000F092FB70
:100A700002245EE038EE0B0A06F012FE3F488DEDD0
:100A8000000AB0EE409A80ED010A3D48B3EE090A33
:100A900080ED030A00F07EFB03244AE0B0EE490A31
:100AA000684606F017FE00F00BFCB0EEC00A10EE30
:100AB000100A344988423CDB04209DED001AF2EE16
:100AC000080AB2EE080A00F007FC042431E095EDB4
:100AD000000A0120F0EE693A30EE4A1A30EE6A2A36
:100AE000F3EE042AF2EE081AB0EE413ADDED000A08
:100AF000B2EE080A03F08CFF00F02EFB4FF4967064
:100B00000AF048FB0220B0EE691AF3EE090AB3EED0
:100B1000090A00F0E1FB08F063FA1B480021C0ED70
:100B2000049AC0ED039AC0ED059A084606F0D2FB80
:100B3000052405200AF02EFB052C7FF417AF01B029
:100B4000BDEC088BF0BD0000000000008C00002010
:100B500030E80020D0EA0020600D00200000204195
:100B600066696E6420706F2C20616374696F6E0D0E
:100B70000A000000C81200208FC2F53CF40D0020CE
:100B8000140E002000008242F8E900202DE9F04117
:100B90001D4C207800F0FB00207094ED0B0A00F053
:100BA00067FC022000F052FC0AF0CCFF074607F079
:100BB0006DFC164D41F288360CE007F067FC00F042
:100BC00085FBA0B93146384606F051FC78B90520BE
:100BD0000AF0E0FA287A0828EFD3012500F0BCFAE1
:100BE00040F6B8300AF0D6FA00F070FB18B1BDE854
:100BF000F04106F08DBB84F83050207840F00400BE
:100C00002070BDE8F081000030E8002024EB0020D7
:100C100070B52DED028B92B0684606F0F3FB4D489F
:100C2000B3EE090A80ED040A4B48B1EE020A80EDEA
:100C3000000A9FED4A8A80ED018A80ED028A11A8A0
:100C400007F040FD002863D0454C032011AE207111
:100C500041F2883502202946B0EE481AF3EE010A27
:100C6000B3EE040A06F05EFB00286FD000F092FAA3
:100C70000220B0EE481AF3EE010AB3EE010A00F0CA
:100C80002BFBA90032460A209FED360A06F032FC03
:100C9000F0B30020207104209DED111AF2EE040A39
:100CA000B2EE040A00F018FB284606F0F1FB78B318
:100CB000042029469DED111AF2EE040AB3EE010A52
:100CC00006F030FB20B300F047FA9DED111AF3EE69
:100CD000040AB1EE080A06F0C1FBC8B100F03CFA04
:100CE0002148D0ED090A214890ED000A08F0B2FB36
:100CF00007F0FAFADFED1E0A30EE200A06F090FA4D
:100D0000B0EE408A00F0D8FB00F0E0FA00B900E055
:100D10001CE007F0E9FA38EE400A06F081FAB0EE7E
:100D2000C00A10EE100A134988420FDCDDED0F0AED
:100D3000B0EE480A07F0DAFB40B1B3EE020A6846AB
:100D400006F088FA12B0BDEC028B70BD684606F062
:100D50001DFBF7E7140E0020C0E900200000000092
:100D6000780D00200000F04230E80020D0EA00209A
:100D70000000344300002041F0B500242DED048B29
:100D800081B09FED481A484D484F8DED001AB2EEE4
:100D9000048A287FF2EE088A242897ED009A08FE3C
:100DA000280A03D1F7EE080AC7ED000A0220F0EE88
:100DB000400A00F091FA0A200AF0ECF900F0EAF992
:100DC0003B4EDFED3C9A24B1012C21D0022C57D1AF
:100DD0003CE03220694600F055FEB2EE0E0A03F008
:100DE000D5FF90B39DED000AB5EEC00AF1EE10FA02
:100DF00003D107F079FA8DED000AB0EE401A042015
:100E0000F2EE0E0AB2EE0E0A00F066FA012438E0A5
:100E1000D6ED000A287FB1EE041A24284FF0000016
:100E200030EE811AF2EE0E1A08FE280A30EEA12AE0
:100E3000F0EE693AB0EE413AF0EE402AF0EE401A98
:100E4000DDED000A03F0E4FD02241AE096ED001A3D
:100E5000287FF0EE080A24284FF0010031EE603AB6
:100E600008FE280AF2EE000AF0EE693A31EE602A36
:100E7000F0EE402AF0EE401ADDED000A03F0C8FD66
:100E8000032405200AF086F9032C9CD100F064F9B4
:100E9000002187ED009A084606F01CFA01B0BDEC6F
:100EA000048BF0BD0000000030E80020C0E9002005
:100EB000600D0020CDCC4C3D10B52DED028B92B0D5
:100EC000684606F09FFA4048B3EE090A3F4C80EDB1
:100ED000040AB6EE000A9FED3E8A84ED000A84ED16
:100EE000018A84ED020A11A809F092FD002867D05A
:100EF00011A809F0EFFC002862D0B0EE080A84EDDA
:100F0000000A84ED018A84ED028A04209DED111A05
:100F1000F2EE060AB2EE060A00F0DEF941F288347B
:100F2000204606F0B5FAE0B3042021469DED111AE3
:100F3000F2EE060AB3EE010A06F0F4F988B300F007
:100F40000BF99DED111AF3EE040AB1EE040A06F056
:100F500085FA30B300F000F91E48D0ED090A1E48AA
:100F600090ED000A08F076FA07F0BEF9DFED1B0AF3
:100F700030EE200A06F054F9B0EE408A00F09CFAF8
:100F800000F0A4F968B907F0AFF938EE400A06F0AE
:100F900047F9B0EEC00A10EE100A114988420FDC82
:100FA00000E00DE0B0EE480A09F07EFD40B1B3EE7E
:100FB000040A684606F04EF912B0BDEC028B10BD73
:100FC000684606F0E3F9F7E7140E0020C0E90020B8
:100FD0000000000030E80020D0EA00200000344388
:100FE000000020412DE9F04F4D491C222DED028BD0
:100FF0008FB0B0EE408A6846FFF797F949491C2246
:1010000007A8FFF792F9484E96F904504748007830
:101010000E9000F0CDF800273771032003F036F969
:10102000DFED438A0220F3EE040AB0EE681AB3EE55
:10103000040A00F051F900F0ADF83E4CDFF8F880FA
:10104000DFF8F890DFF8F8A0DFF8F8B01AE007F062
:101050001DFA00F0D7FAB9F80000C0F3C110032858
:1010600005D1D4ED090A9AED000A08F0F3F900F071
:1010700027F9B0EEC00A10EE100A58450ADA05202A
:101080000AF088F898F8081040460429DFD9407A19
:101090000128DCD022489FED2C0A80ED000AC0ED2B
:1010A000018AB2EE0E0A80ED020A0320307103F0CD
:1010B000EDF800F06FF80220B0EE681AF2EE080AC0
:1010C000B2EE080A00F008F902E005200AF062F822
:1010D00000F0F6F8B0EEC00AB4EEC80AF1EE10FA6D
:1010E000F3D31A4807701A48077035711C220C4850
:1010F0006946FFF71AF90B481C2207A9FFF715F9F3
:101100000E9803F0C3F800F045F884F830702078AA
:1011100000F0FB0020700FB0BDEC028BBDE8F08F3B
:101120006CE90020C0E90020780D0020700D00203F
:101130000000000030E8002024EB002030EB00200D
:10114000D0EA00200000204200000C42C10D002027
:10115000C20D0020FEE70000002010B500F076F977
:1011600004489FED030A80ED000A80ED010A10BDDE
:1011700000000000140E0020B5EEC00AF1EE10FAD7
:1011800005D2B0EEC00ADFED020A30EEC00A7047A9
:101190000000B44310B507F019F804489FED020AA7
:1011A00080ED070A10BD000000000000140E0020B2
:1011B00010B505F05FFF024800210171C18010BD2C
:1011C000B8E7002002480021017441827047000006
:1011D000B8E7002070B506462DED048BB0EE408ACE
:1011E000B0EE419AB5EEC08AF0EE608AF1EE10FAE8
:1011F00025D9FFF7CFFF304600F028F9114D95F8BB
:10120000741000291BD1104C042E02D0C4ED028AA8
:1012100008E00E48C4ED038A80ED019A02E0052043
:1012200009F0B8FFD4ED070AF0EEE00AF4EEC80AC0
:10123000F1EE10FA03D295F874000028EFD0BDEC5F
:10124000048B70BDB8E70020140E0020F40D0020C0
:101250000248012101710021C1807047B8E70020D8
:10126000024801210174002141827047B8E7002043
:10127000024801210175002141757047B8E700203F
:101280000249012088750AF00DBE0000B8E7002071
:10129000002810B510D0094991F874200AB981F8D6
:1012A0007500012081F8740007F098FB0AF0FAFD40
:1012B000BDE81040FFF750BF10BD0000B8E70020A8
:1012C000014890ED070A7047140E0020014890F87D
:1012D00074007047B8E7002010B504462DED048B6C
:1012E000F0EE418AB0EE609AB0EE408A00F0AEF8BF
:1012F0000C4890F8740000280DD10B49022C81EDA8
:10130000008A81ED019A09D0042C04D1074881EDAF
:10131000038AC0ED018ABDEC048B10BD81ED028A09
:10132000F9E70000B8E70020140E0020F40D0020BB
:1013300070B53E4C94F8740018B1BDE87040FFF7EA
:101340000BBF0AF0C7FD00286FD1207D002598B1A2
:1013500008F0C4FF10EE100A354988420BDB607DAF
:10136000401CC0B26075032806D365750220BDE835
:101370007040FFF78DBF65752E480078022854D164
:1013800020792D4E50B32D4890ED010AB0EEC00AE1
:1013900010EE100AB0F1814F02DDE088401C06E03B
:1013A000B4F90600002806DDC8280EDA0A38E08005
:1013B00000B2002807DC94ED020AB5EEC00AF1EE97
:1013C00010FA02DC2DE0C82808DB05F053FE257179
:1013D000E58094ED000A86ED020A22E0B4F90600E9
:1013E00000281EDD1649012807D191ED000A84ED81
:1013F000020A91ED020A84ED030A94ED000AF6EE6A
:10140000000A20EE200A86ED020AB2EE080A81EDFB
:10141000000A9FED0C0A81ED010A9FED0B0A81ED98
:10142000020ABDE8704007F0E5BA70BDB8E70020D9
:1014300000003442BC0D0020140E002024EB0020DC
:101440006CE900200000000000004843074910B587
:1014500004460978022903D1022C01D007F0BEFA14
:101460002046BDE8104008F0D9B90000BC0D0020AE
:1014700010B50E482DED028BB0EE408A90F8741036
:1014800000290CD180ED008AB0EE480A07F0E2FA9C
:10149000074801780748042904D080ED028ABDEC92
:1014A000028B10BD80ED038AF9E70000B8E7002049
:1014B000BC0D0020140E002010B51E491C222DED7D
:1014C000028B88B06846FEF730FF1B4C1948B2EE1D
:1014D000000A94ED048A84ED040AB0EE000A80ED5F
:1014E000000AB3EE040A80ED020A9FED140A80EDB3
:1014F000010A9FED130A80ED030A06F0F5FEDFED09
:10150000110A012030EE200AF0EE000A06F07EF902
:10151000FFF722FE4FF4967009F03CFE05481C22AE
:1015200084ED048A6946FEF700FF08B0BDEC028B2B
:1015300010BD0000A4E90020140E002000000000EF
:10154000CDCC4C3E0000344370B50E4C00200E4D07
:10155000F2EE000A2DED028B94ED048AD5ED028A9D
:10156000C4ED040AF3EE040AC5ED020AF0EE080A1F
:1015700006F04CF984ED048AC5ED028ABDEC028BBD
:1015800070BD0000140E0020A4E9002070B5FFF724
:101590009DFE00282DD1194C194DA07810B10128BD
:1015A00003D016E006F0E0FA13E006F0CFFA95F863
:1015B000300007F09BFB012809D108F09FFE30B1F5
:1015C00008F0A4FE08F0D6FE06F040FB01E008F0AB
:1015D000D1FE207870B1287F13280BD108F08EFE41
:1015E00040B106F0B3FAFFF7B7FD04490120891DA9
:1015F000487070BDBDE8704006F076BCA0000020C9
:1016000030E800202DE9F04100252C4608F0F2FDDD
:101610000D4A108000200123168803FA00F73E428D
:1016200009D01688641CE4B2471C03FA07F10E4285
:1016300001D16D1CEDB2401CC0B21028ECD3557224
:101640001472BDE8F081000030EB002010B508F006
:1016500091FEBDE8104006F079BA0000014800F0A4
:10166000C3BA000038140020014800F0BDBA0000E1
:10167000D813002001681823CAB2103AB2FBF3F263
:10168000054B6FF30901032A9B5CC36500D9091D53
:101690008165084670470000A0BF0008014610B5EC
:1016A00000208B694FF0C0748A6A53B1B3F5005FB4
:1016B00015D072B1012A0CD0022A0AD0032A09D10E
:1016C00004E01AB1012A06D0022A03D1C96AC9016D
:1016D00000D5012010BDC96AA142FAD010BD002A70
:1016E000F7D0012AF2D0022AF3D0032AF3D010BD9A
:1016F00030B50468256825F480252560046863609A
:101700008368402B036803D099600068C26030BDD5
:101710009A600068C16030BD704700001848002121
:1017200010B501F077FE1648042101F073FE14484D
:1017300001F088FC1348002101F06CFE11480421DF
:1017400001F068FE0F4801F07DFC0F48002101F018
:1017500061FE0D48042101F05DFE0B4801F072FCB2
:101760000A48002101F056FE0848042101F052FE0B
:10177000064801F067FCBDE81040054801F062BC76
:10178000480E0020940E0020E00E0020780F00206C
:101790005C10002072B6FEE72DE9F04700242DED25
:1017A000028B90B09FED6E8A14216846FEF7E4FD2F
:1017B000142105A8FEF7E0FD0020DFF8A8C105AF61
:1017C00003460DF138090146EA460E900F9001EBF1
:1017D00041020CEB8202157A1DB1157A022D05D05B
:1017E00012E009F80410641CE4B20DE0D2ED010A25
:1017F0000AEB8005C5ED000AD2ED000A07EB800276
:10180000401CC2ED000AC0B2491C0529DFDB032CD5
:1018100004D284424FF07E5810D3ACB100204A4627
:1018200009E0115C401C01EB41010CEB810191EDE1
:10183000010A30EE088AA042F3DB84E024B10022E2
:101840000A930B930AAB5DE080B3012804D0002219
:101850000C930D930CAB22E09DED000A10B0BDEC93
:10186000028BBDE8F087511C07EB820514E007EB03
:101870008104D5ED000A94ED001A70EEC10AF0EE75
:10188000E00A10EE904A444505DC9C5C641C9C54C4
:101890005C5C641C5C54491C8142E8DB521C824243
:1018A000E1DB00259DF83020294606E00BE05C5C7A
:1018B000944201D92246CDB2491C8142F7DB12B1D4
:1018C0000AEB850048E0B0EE480AC7E7511C07EB79
:1018D000820614E007EB810596ED000AD5ED000ABB
:1018E00030EE600AB0EEC00A10EE105A454505DC35
:1018F0009D5C6D1C9D545D5C6D1C5D54491C81425A
:10190000E8DB521C8242E1DB00269DF828203146AC
:1019100005E05D5C954201D92A46CEB2491C814260
:10192000F7DB521C944215D300204A4609E0115CB3
:10193000401C01EB41010CEB810191ED010A30EEFD
:10194000088AA042F3DB00EE104AF8EE400A88EE67
:10195000200A83E70AEB860090ED000A7EE700008C
:1019600000000000800D002070B52DED028BB0EE60
:10197000408A06F08BFD384C384D394E607810B1F6
:10198000FFF70AFF01E096ED010A334885ED020AF0
:10199000083090ED000A334885ED060A006A08F029
:1019A000BDFC88B1707A012802D8307A03280BD99F
:1019B000D5ED020AB6EE000A95ED061A60EE800A31
:1019C00041EE000AC5ED020A2749244807F046FF08
:1019D00010EE100A254984ED010A884202DB9FEDD2
:1019E000240A06E010EE100A2249884203D39FED34
:1019F000220A84ED010A9FED211AB0EEC80AC0EE5A
:101A0000010A94ED011A60EE810AC4ED010AB4EEF8
:101A1000E00AF1EE10FA06D3B1EE400AB4EEE00AA5
:101A2000F1EE10FA01DD84ED010AB5EEC08AF1EEA7
:101A300010FA94ED010A03D2B1EE400A84ED010AD6
:101A40000F4878EE400A38EE000AC0ED000A80ED3B
:101A5000010ABDEC028B70BD700D0020F8E900207A
:101A600024EB002030E800206CE90020000048430F
:101A700000004843000048C3000048C30000204263
:101A8000140E002070B506000D462DED068B9FED5F
:101A9000238AB0EE489AF0EE488A2BD0002D29D048
:101AA00000249FED1FAA16E006F01EFCB0EE408A4F
:101AB00028EE0A0AF0EE409A04F0E6FC30EE099AAD
:101AC000B0EE690A04F058FB052070EE288A09F090
:101AD00061FB641CE4B2B442E6D3F0EE680AB0EEF7
:101AE000490A04F0F1FB10EE100A0E49884204DAAC
:101AF00085ED008ABDEC068B70BDF0EE680AB0EE95
:101B0000490A04F0E3F9DFED080A20EE200A85ED2A
:101B1000000A07F0F7FC85ED000AEBE70000000083
:101B200035FA8E3C6F12833AE12E65422DE9F04181
:101B3000876D044600F0CCFA054694F8350000267F
:101B4000022806D080206065012084F83460BDE85A
:101B5000F0812068016821F0160101602068416968
:101B600021F080014161206C08B9A06C20B120688F
:101B7000016821F0080101602068016821F001017D
:101B800001600CE000F0A4FA401B052807D92020D2
:101B90006065032084F8350084F83460D7E7206856
:101BA0000068C007EED194F85C103F208840B86010
:101BB000012084F83500002084F83460C7E790F8ED
:101BC0003510022903D0802141650120704705218D
:101BD00080F835100068016821F0010101600020E3
:101BE0007047406D704700002DE9F8430446654892
:101BF0004FF00009CDF800904FF41651A56D006824
:101C0000B0FBF1F72E68082194F85C2001FA02F08D
:101C100030420FD02068026852070BD5026822F0CC
:101C20000402026094F85C008140A960606D40F09D
:101C30000100606594F85C104FF0010808FA01F0AB
:101C4000304208D021684969090604D5A860606D52
:101C500040F00200606594F85C1004208840304237
:101C600008D021680968890704D5A860606D40F034
:101C70000400606594F85C1010208840304218D051
:101C800021680968090714D5A8602068016849031C
:101C900004D50068000308D5A16C07E00168C905F8
:101CA00003D4016821F008010160216C09B12046CC
:101CB000884794F85C1020208840304231D0216859
:101CC0000968C9062DD5A86094F835000528206854
:101CD000016806D0490347D5006800031DD4616C34
:101CE0001CE021F0160101602068416921F08001AB
:101CF0004161206C08B9A06C20B12068016821F016
:101D00000801016094F85C103F208840A86084F8C6
:101D1000358084F83490216D1FE0E16B09B12046D5
:101D20008847606D00282BD0606DC00714D0052057
:101D300084F835002068016821F0010101600098F5
:101D4000401C0090B84203D820680068C007F6D154
:101D500084F8358084F83490E16C002910D001B00B
:101D60002046BDE8F04308470168C905D5D401689D
:101D700021F01001016084F8358084F83490CCE7BC
:101D8000BDE8F8831000002070B5044600F0A0F90B
:101D900005465CB1022084F83500002684F83460E2
:101DA0002068016821F0010101600CE0012070BD94
:101DB00000F08EF9401B052805D92020606503201E
:101DC00084F8350070BD20680068C007F0D1216834
:101DD0000A6820480240D4E901031843D4E90335D6
:101DE0002B43184363691843A3691843E3691843F5
:101DF000236A18431043626A042A03D1D4E90B23EF
:101E00001A43104308602068406920F00701606AA7
:101E1000042840EA01050CD1A06A0543E06A40B1FC
:101E20002046FFF73BFC20B14020606584F8356018
:101E3000BCE7206845612046FFF71CFC94F85C2055
:101E40003F21914081606665012084F835000020C3
:101E500070BD00003F8010F02DE9F041866D044612
:101E600090F83400002501280DD0012084F83400BA
:101E700094F835700020012F07D0022584F8340033
:101E80002846BDE8F0810220FBE7022784F8357080
:101E900060652046FFF72CFC94F85C103F208840DA
:101EA000B0602068016841F0160101602068416956
:101EB00041F080014161206C20B12068016841F04F
:101EC000080101602068016841F001010160D7E765
:101ED0002DE9F84FDFF8B091002203274FF00F0CE7
:101EE000A9F1040B09F1040AABF1040E0B680125FA
:101EF00095402B40AB426ED10C7904F00304012CC9
:101F000001D0022C15D18668540007FA04F826EA9D
:101F10000806D1F80C8008FA04F848EA0608C0F868
:101F200008804468AC430D79C5F3001595402543FE
:101F300045600C79E443A40708D0C568540007FA4B
:101F400004F6B5438E68A6402E43C6600C7904F0B3
:101F50000304022C11D1D40800EB8406356A54071F
:101F6000E40E0CFA04F825EA0805D1F8108008FA06
:101F700004F848EA0508C6F820800568540007FA06
:101F800004F6B5430E7906F00306A6402E4306601C
:101F90004C6814F4403F70D03C4C256845F48045B3
:101FA0002560246822F0030504F480440094384C32
:101FB00005EB0408D8F808589407260F0CFA06F425
:101FC000A543344CA04201D100242EE0324CA04263
:101FD00002D1012429E050E0304CA04201D102247A
:101FE00023E02F4CA04201D103241EE02D4CA0423F
:101FF00001D1042419E02C4CA04201D1052414E0A5
:102000002A4CA04201D106240FE0294CA04201D164
:1020100007240AE0274CA04201D1082405E0264C01
:10202000A04201D1092400E00A24B4402C43C8F89E
:102030000848D9F800404D464E689C43F60200D54A
:102040001C432C60DAF8004055464E689C43B602AB
:1020500000D51C432C60DBF800405D464E689C4375
:10206000B60300D51C432C60DEF8004075464E6870
:102070009C43F60300D51C432C60521C102AFFF42D
:1020800035AFBDE8F88F0000083C014044380240FD
:1020900000300140000002400004024000080240FD
:1020A000000C0240001002400014024000180240E0
:1020B000001C024000200240002402400069084049
:1020C00000D0012070470AB1816170470904FBE725
:1020D00001488068704700000400002002488168C1
:1020E000027811448160704704000020032010B57D
:1020F00000F09EF80F2000F005F800F04FF80020E7
:1021000010BD000030B505461F4887B0016841F496
:1021100080710160006806A900F48070059068462F
:1021200000F0E8FB0398B0B100F004FC4000174950
:10213000174AB0FBF1F11748026040F2E732491E3E
:1021400041600021C0E903218160816100F094FEBB
:10215000040003D015E000F0EDFBE8E70D4800F0C7
:1021600071FF04000DD12D2000F034F8102D07D29E
:10217000002229462D2000F03BF80748056000E0CA
:10218000012407B0204630BD4038024040420F00D5
:102190000020004098140020080000200C4882B065
:1021A000016841F080510160006800F080500090AB
:1021B0000748001D016841F4804101600068002269
:1021C0000F2100F480400090901E02B000F010B883
:1021D00040380240002809DB012100F01F02914035
:1021E0004009800000F1E020C0F8001170470000B5
:1021F0000E4BF0B41B68C3F30223C3F10704042C95
:1022000000D904241D1D072D01D2002300E0DB1E90
:10221000012606FA04F56D1E0D409D409E40761E77
:10222000164045EA0601F0BC03F03FBE0CED00E0AD
:10223000064A00F0070110684FF6FF03184040EA15
:102240000120034908431060704700000CED00E0D6
:102250000000FA051848F8B5016841F080510160A6
:102260000068164D00F080500090286840F48030DF
:102270002860FFF72DFF4FF47A76044604E0FFF75D
:1022800027FF001BB0420FD86868C003F7D5286845
:1022900040F400302860FFF71BFF044606E0FFF71C
:1022A00017FF001BB04201D90320F8BD6868800306
:1022B000F5D50020F8BD0000403802400070004015
:1022C0002DE9F84F044600780026DFF820943546C3
:1022D000C0070ED0D9F8001021F40001C9F8001091
:1022E000D9F80010626B1143C9F80010606B00B997
:1022F00001262068FE4F00030ED53868E16B20F4FC
:10230000401008433860E06BB0F5801F01D010B179
:1023100002E0012600E001252068C0020ED53868E1
:10232000216C20F4400008433860206CB0F5800F29
:1023300001D010B102E0012600E001252068C101B2
:1023400000D50126800666D5E8483830016841F09E
:10235000805101600068DFF89CA300F0805000907D
:10236000DAF8001041F48071CAF80010FFF7B0FEEF
:10237000804605E0FFF7ACFEA0EB080064287DD89E
:10238000DAF80000C005F5D5DFF864A3AAF11C0A4D
:10239000DAF8000010F440702AD0218E01F4407168
:1023A000814225D0DAF80010DAF8002021F44071DB
:1023B00042F48032CAF80020DAF8002022F4803299
:1023C000CAF80020CAF80010DAF80000C0070FD0E1
:1023D000FFF77EFE804641F2883B05E0FFF778FE7E
:1023E000A0EB08015945CAD8DAF800008007F5D5F6
:1023F000206BC0F3012103297ED0D9F8001021F40D
:10240000F811C9F80010DAF80010228EC2F30B029E
:102410001143CAF800102078C00607D5386820F0AC
:10242000807038603868A16B0843386020884104A8
:10243000B14805D50168626E21F440311143016055
:102440002188090405D50168A26E21F440211143B9
:1024500001602168C90305D50168E26E21F44011CD
:10246000114301602168890305D50168226F21F4B9
:102470004001114301602178490600E002E105D5E1
:102480000168626C21F003011143016021780906A3
:1024900005D50168A26C21F00C011143016021886F
:1024A000C90505D50168E26C21F0300111430160D6
:1024B0002188890505D50168226D21F0C0011143ED
:1024C00001602188490505D50168626D21F44071DC
:1024D000114301602188090505D50168A26D21F429
:1024E0004061114301602188C90407D50168E26D8C
:1024F00021F44051114300E03DE00160218889044E
:1025000005D50168226E21F4404111430160216824
:10251000490205D50168A26F21F080611143016075
:1025200021684FF00069890209D50168E26F21F046
:10253000006111430160E16F494500D10125216827
:102540000A0700D50125490305D50168626F21F00E
:102550004071114301602168090206D50168D4F871
:10256000802021F0805111430160DFF88081A8F1C3
:1025700008086EB909E0D9F80020604B22F4F8127F
:1025800018400243C9F800203DE72068800178D553
:10259000D8F8001021F08061C8F80010FFF798FD0E
:1025A000064604E0FFF794FD801B64286AD8D8F83B
:1025B00000000001F6D420785149C00711D0606BAB
:1025C00078B908680A68C0F301406368C2F303621F
:1025D0009B0143EA004040EA0260227A40EA02702E
:1025E00008602068020303D5E26BB2F5801F05D0B6
:1025F000C0021AD5206CB0F5800F16D108680A68A1
:10260000C0F301406368C2F302729B0143EA0040D9
:10261000237B40EA036040EA027008603868626A1F
:1026200020F01F00521E104338602068C0010FD5F3
:1026300008680A68C0F303606368268AC2F30272FE
:102640009B0143EA064343EA006040EA02700860E7
:10265000206880010BD56068228A800140EA024030
:10266000227B40EA0260227A40EA02700860D8F8D1
:10267000001041F08061C8F80010FFF729FD064600
:1026800006E009E082E0FFF723FD801B64287DD887
:10269000D8F800000001F6D5B5B3D8F800004546DB
:1026A00020F08050C8F80000FFF712FD064604E055
:1026B000FFF70EFD801B642875D82868C043800092
:1026C000F6D520680F49020301D5E26B1AB1C002AA
:1026D0002BD5206C48BB08680A68C0F301406369C9
:1026E000C2F302729B0143EA00400EE00838024048
:1026F0008C3802400070004090380240FFFCFF0F11
:10270000843802408838024054E0237E40EA036067
:1027100040EA0270086038686FF0FF03A26A20F494
:10272000F85003EB0222104338602068800212D573
:10273000E06F48450FD108680A68C0F30360636919
:10274000268CC2F302729B0143EA064343EA00600F
:1027500040EA027008602078000715D508680A680A
:10276000C0F303606369C2F301429B0143EA024282
:1027700042EA0060227F40EA027008603868E16A3D
:1027800020F4403008433860286800E00BE040F057
:1027900080502860FFF79CFC044607E0FFF798FC98
:1027A000001B642802D90320BDE8F88F2868C043C5
:1027B0008000F3D40020F7E72DE9F04704000D4630
:1027C00069D0DFF81C81D8F8000000F00F00A842A3
:1027D0000CD2D8F8001021F00F012943C8F80010DE
:1027E000D8F8000000F00F00A84254D120683D4EF8
:1027F000810712D5400703D5306840F4E0503060BF
:102800002078000703D5306840F4604030603068BD
:10281000A16820F0F000084330602078C00729D07C
:10282000304960680839012810D00968022810D0A2
:10283000890700292FDA316821F003010143316053
:10284000FFF746FC074641F288390CE00968890326
:10285000EFE78901EDE7FFF73BFCC11B494502D9D2
:102860000320BDE8F0873068616800F00C00B0EB31
:10287000810FF0D1D8F80010404601F00F01A942B5
:102880000BD9016821F00F0129430160006800F0B5
:102890000F00A84201D00120E3E72078400705D5CA
:1028A0003068E16820F4E050084330602078000789
:1028B00006D53068216920F4604040EAC1003060EC
:1028C00000F058F83168084AC1F30311515CC84060
:1028D0000649086006480068FFF714FC0020C0E7BE
:1028E000003C024008380240A8BF00081000002049
:1028F000080000200F2202600C4A136803F0030353
:102900004360136803F0F0038360136803F4E0533B
:10291000C36012684FF4E05303EAD2020261044834
:10292000006800F00F00086070470000083802409F
:10293000003C02400448054900680968044AC1F3A4
:102940008221515CC84070471000002008380240C6
:10295000B8BF00080448054900680968044AC1F383
:102960004231515CC84070471000002008380240D6
:10297000B8BF0008154810B5006810F00C011448E5
:1029800013D0431004290FD008290ED10F4C241F57
:10299000216801F03F022168490207D52068C0F391
:1029A0008810A0FB030106E0184610BD2168C1F3A2
:1029B0008811A1FB00010023FDF786FC2168C1F30B
:1029C0000141491C4900B0FBF1F010BD083802403C
:1029D0000024F4002DE9F84F04004FF0000877D0F0
:1029E0002078DFF850B3ABF10409C007A9F1040562
:1029F0004AD0DBF800105846C1F38101012908D004
:102A00000068C0F3810002280AD1D9F80000400212
:102A100006D52868800337D560680028DFD033E00A
:102A20006068B0F5803F0BD010B1B0F5A02F11D089
:102A3000286820F480302860286820F4802002E094
:102A4000286840F480302860606888B1FFF740FB58
:102A5000064609E0286840F480202860F0E7FFF788
:102A600037FB801B642873D828688003F7D50BE0F8
:102A7000FFF72EFB064604E0FFF72AFB801B6428C5
:102A8000F1D828688003F7D42078800740D5DBF898
:102A90000010584611F00C0F08D00068C0F38100F8
:102AA00002280AD1D9F80000400206D4286880071D
:102AB00017D5E06801280BD113E0E06800282868EA
:102AC00017D040F001002860FFF702FB064605E042
:102AD0002CE1FFF7FDFA801B0228C4D82868800784
:102AE000F7D52868216920F0F80040EAC100286085
:102AF0000EE020F001002860FFF7EAFA064604E045
:102B0000FFF7E6FA801B022822D828688007F7D44E
:102B10002078000725D5874F60696C370028386812
:102B20000FD040F001003860FFF7D2FA064604E00B
:102B3000FFF7CEFA801B02280AD838688007F7D53D
:102B40000FE020F001003860FFF7C2FA064605E00A
:102B500082E0FFF7BDFA801B02287DD83868800725
:102B6000F7D42078400769D5DFF8C8A10AF1380A00
:102B7000DAF80000C0000CD4DAF8001041F08051FF
:102B8000CAF80010DAF800004FF0010800F0805099
:102B90000090694F3868C0050FD4386840F48070E1
:102BA0003860FFF795FA064604E0FFF791FA801BBC
:102BB000642851D83868C005F7D55E4FA0686837DB
:102BC00001280AD008B1052811D0386820F001008A
:102BD0003860386820F0040002E0386840F00100F6
:102BE0003860A06898B1FFF773FA06460BE03868C2
:102BF00040F004003860F0E7FFF76AFA811B41F209
:102C00008830814265D838688007F5D50DE0FFF738
:102C10005FFA064606E0FFF75BFA811B41F2883057
:102C2000814256D838688007F5D4B8F1000F05D036
:102C3000DAF8001021F08051CAF80010A169C9B378
:102C4000DBF80000C0F38100022849D0286802297F
:102C500020F08070286000E03BE003D0FFF738FAF6
:102C6000044639E0FFF734FA064604E0FFF730FA8D
:102C7000801B02282DD828688001F7D4D4E90701E9
:102C80002E4A0843A16A490802EB0141626A41EAFF
:102C90008211084394F82C1040EA016040F0005182
:102CA000C9F80010286840F080702860FFF710FA1B
:102CB000044605E03CE0FFF70BFA001B022808D8A9
:102CC00028688001F7D533E0FFF702FA001B0228DD
:102CD00002D90320BDE8F88F28688001F4D427E0EA
:102CE000D9F80000012921D0E26900F48001914265
:102CF0001CD1226A00F03F01914217D1626A47F667
:102D0000C0710140B1EB821F10D1A26A4FF0FF33B6
:102D100000F4403103EB5202B1EB024F06D194F8BC
:102D20002C1000F07060B0EB016F01D00120D1E7F2
:102D30000020CFE708380240007000400000FFFF8D
:102D4000704770477047000030B590F83C20012A6A
:102D50003AD0012280F83C20CA6800248B6822F413
:102D600040721A4D1A434B6822F480621A430B6872
:102D700022F400621A430B6922F480521A434B6911
:102D800022F400521A438B6A22F480421A430B8BBE
:102D900022F4702242EA03420368AB4202D00C4D97
:102DA000AB420CD18D8C22F4700242EA0552CD69FF
:102DB00022F08072096A2A4322F000720A435A64A0
:102DC00080F83C40002030BD022030BD00000140B2
:102DD00000040140F0B590F83C20012A3CD00125C8
:102DE00080F83C50022280F83D2003685A689C68B5
:102DF0001A4E1B4FB34201D0BB4204D122F4700CD7
:102E00004A6842EA0C0222F0700C0A6842EA0C029C
:102E10005A600268B24213D0B2F1804F10D0114B09
:102E20009A420DD0104B9A420AD0104B9A4207D0CA
:102E3000BA4205D00E4B9A4202D00E4B9A4204D1B0
:102E4000896824F080031943916080F83D50002187
:102E500080F83C100846F0BD0220F0BD00000140A3
:102E6000000401400004004000080040000C004045
:102E7000004001400018004010B5040003D094F851
:102E80003D0010B107E0012010BD002084F83C0097
:102E9000204600F023F8022084F83D002068211D20
:102EA00002F0D2F9012084F8480084F83E0084F84A
:102EB0003F0084F8400084F8410084F8420084F820
:102EC000430084F8440084F8450084F8460084F800
:102ED000470084F83D00002010BD000008B50068E0
:102EE000334988420FD13348016841F00401016041
:102EF00000680022052100F0040000901E20FFF76A
:102F000077F91E204EE02B492B4A091D904226D10D
:102F1000086840F00200086008680022052100F0FF
:102F2000020000902B20FFF763F92B20FFF752F9E6
:102F3000002205212C20FFF75BF92C20FFF74AF92E
:102F400000220F212D20FFF753F92D20FFF742F922
:102F5000002205212E20FFF74BF92E2022E0174AF0
:102F600090420ED1086840F4803008600868002262
:102F7000052100F4803000901820FFF739F918205F
:102F800010E00F4A904211D1086840F48020086098
:102F900008680022052100F4802000901A20FFF725
:102FA00027F91A20BDE80840FFF714B908BD000052
:102FB0000008004040380240000401400040014049
:102FC0000048014090F83D10012901D001207047D0
:102FD000022180F83D1000681249884214D0B0F1F7
:102FE000804F11D0104988420ED0104988420BD032
:102FF0000F49884208D00F49884205D00E498842BF
:1030000002D00E49884207D181680D4A1140062935
:1030100006D0B1F5803F03D0016841F001010160A5
:1030200000207047000001400004004000080040FC
:10303000000C004000040140004001400018004026
:103040000700010090F83D10012901D001207047D0
:10305000022180F83D100168CA6842F00102CA608E
:1030600000681349884214D0B0F1804F11D0114943
:1030700088420ED0104988420BD01049884208D0AF
:103080000F49884205D00F49884202D00E49884234
:1030900007D181680D4A1140062906D0B1F5803F5D
:1030A00003D0016841F00101016000207047000079
:1030B000000001400004004000080040000C0040F7
:1030C00000040140004001400018004007000100DA
:1030D00070B5044690F83C000025012817D0012661
:1030E00084F83C60022084F83D00206882682F4B01
:1030F0001A4022F47F4282600868502838D00DDCE4
:1031000020284FD005DC90B3102811D14AE00220CE
:1031100070BD302846D040280AD13BE060282FD02F
:1031200070280DD0B0F5805F03D0B0F5005F12D0ED
:10313000012584F83D60002084F83C00284670BDDD
:103140004A682068D1E9021302F0F3F82068816828
:1031500041F0770109E04A682068D1E9021302F0E2
:10316000E8F82068816841F480418160E1E719E076
:10317000CA684968206802F013FA2068502106E006
:10318000CA684968206802F01CFA2068602102F0D1
:10319000DAF8CEE7CA684968206802F001FA2068C8
:1031A0004021F4E7226801461046F0E788FFFEFF61
:1031B0002DE9F04104000D4603D094F83D0018B10C
:1031C00008E00120BDE8F081002084F83C002046A2
:1031D00000F046F8022084F83D00206881681F4A0C
:1031E000114081602068211D02F02EF8206881685E
:1031F0008269066A2B68AF6926F0AA060B4340F283
:1032000003318A43A96842EA0722EF6911434FF666
:10321000FC429143EA6841EA07212F6A0A4329697F
:10322000090141EA073111436A686D69836046EA22
:1032300005152A432068816120680262012084F814
:10324000480084F83E0084F83F0084F8440084F885
:10325000450084F83D000020B4E70000F8BFFEFF01
:1032600070B586B0044614216846FDF785F86248BB
:10327000022521680024614A012681423BD15F4832
:103280001430016841F001010160006800F00100A4
:103290000590106840F0100010601068694600F05A
:1032A000100005904FF420600090CDE9015454487F
:1032B000CDE90346FEF70CFE002205211820FEF79B
:1032C00097FF1820FEF786FF002205211920FEF740
:1032D0008FFF1920FEF77EFF002205211A20FEF73E
:1032E00087FF1A20FEF776FF002205211B20FEF73C
:1032F0007FFF1B2059E0414B42481033B1F1804F12
:1033000022D0414EB14254D1196841F002011960F6
:10331000196801F002010591116841F00101116085
:10332000116801F001010591C0210091CDE901541E
:10333000CDE903456946FEF7CBFD002205211D209E
:10334000FEF756FF1D2030E0196841F001011960B9
:10335000196801F001010591116841F00101116046
:10336000116801F001010591116841F0020111603D
:10337000116801F00201059120210091CDE901546D
:10338000CDE903466946FEF7A3FD08200090CDE98C
:1033900001541E486946CDE90346FEF799FD002217
:1033A00005211C20FEF724FF1C20FEF713FF06B0AA
:1033B00070BD174EB142FAD1196841F00801196089
:1033C000196801F008010591116841F001011160CF
:1033D000116801F00101059103210091CDE901542B
:1033E000CDE903456946FEF773FD00220521322031
:1033F000FEF7FEFE3220D8E70000014030380240E0
:10340000001002400000024000040040000402409E
:10341000000C004070B590F83E50044690F83F30E4
:1034200090F8442090F84500022621B104290BD0E1
:10343000012D16D10FE0012D13D1012A11D184F8ED
:103440003E6084F8446016E0012B0AD1012808D1BF
:1034500084F83F600DE0012B03D1012A01D101283E
:1034600001D0012070BD84F83E6084F83F6084F88C
:10347000446084F8456091B1042904D02068012299
:10348000002101F049FF20680122042101F044FFDE
:103490002068016841F001010160002070BD012237
:1034A00020680021F2E770472DE9F04104460068EA
:1034B000C66805694FF00007A90713D5B10711D5F4
:1034C000F91E01610120207720688069800720466D
:1034D00002D0FFF7E8FF04E000F0E6F8204600F035
:1034E000A8F92777680716D5700714D521686FF0FB
:1034F00004000861022020772068806910F4407F72
:10350000204602D0FFF7CFFF04E000F0CDF82046C0
:1035100000F08FF92777280715D5300713D52168D4
:103520006FF008000861042020772068C0698007D8
:10353000204602D0FFF7B7FF04E000F0B5F82046C0
:1035400000F077F92777E80616D5F00614D521683C
:103550006FF010000861082020772068C06910F41F
:10356000407F204602D0FFF79EFF04E000F09CF869
:10357000204600F05EF92777E80708D0F00706D06C
:1035800021686FF001000861204600F0D3F9280699
:1035900001D4A80408D5300606D521686FF402507E
:1035A00008612046FFF7CDFBE80508D5300606D5B3
:1035B00021686FF4807008612046FFF7C1FB680640
:1035C00008D5700606D521686FF0400008612046D6
:1035D00000F0BAF9A8060AD5B00608D521686FF040
:1035E000200008612046BDE8F041FFF7ABBBBDE815
:1035F000F081000030B587B0044614216846FCF71E
:10360000BBFE20680021214C0223214AA04211D197
:10361000106840F008001060106800F00800059085
:103620004FF470400090CDE90131CDE90313194802
:10363000694613E0184D0324A84213D1106840F0E6
:1036400004001060106800F0040005902002009053
:10365000CDE90131CDE9031410486946FEF738FC85
:1036600007B030BD0E4DA842FAD1106840F01000EE
:103670001060106800F01000059060200090CDE907
:103680000131CDE9031407486946E7E70008004027
:1036900030380240000C02400004014000080240A3
:1036A0000040014000100240704770B5044690F899
:1036B0003C0000260D4601280BD0012084F83C0078
:1036C0000C2A4AD007DC82B1042A20D0082A06D16D
:1036D00031E0022070BD102A53D0142A63D0012695
:1036E000002084F83C00304670BD206801F034FEB4
:1036F0002068816941F0080181612068816921F0B9
:1037000004018161206881692A69114311E0206800
:1037100001F056FE2068816941F4006181612068F2
:10372000816921F480618161206881692A6941EAA7
:1037300002218161D4E7206801F07CFE2068C16924
:1037400041F00801C1612068C16921F00401C16133
:103750002068C1692A69114311E0206801F0A2FEC6
:103760002068C16941F40061C1612068C16921F428
:103770008061C1612068C1692A6941EA0221C16191
:10378000AEE7206801F0BAFE2068416D41F0080103
:1037900041652068416D21F0040141652068416D5B
:1037A0002A69114311E0206801F0D0FE2068416DC4
:1037B00041F4006141652068416D21F480614165FB
:1037C0002068416D2A6941EA0221416588E710B508
:1037D000040003D094F83D0010B107E0012010BDB3
:1037E000002084F83C00204600F022F8022084F8F3
:1037F0003D002068211D01F027FD012084F84800CC
:1038000084F83E0084F83F0084F8400084F84100CA
:1038100084F8420084F8430084F8440084F84500AA
:1038200084F8460084F8470084F83D00002010BD6D
:103830007047704710B5044669B104290ED00829B5
:103840000FD00C2910D0102911D094F84300012872
:1038500010D0012010BD94F83E00F8E794F83F0026
:10386000F5E794F84000F2E794F84100EFE794F8A8
:103870004200ECE70220E9B304293FD0082940D0F8
:103880000C2941D0102942D084F84300012220683D
:1038900001F042FD1F4920681F4A884201D0904232
:1038A00003D1436C43F4004343642068884213D03F
:1038B000B0F1804F10D0194988420DD01849884284
:1038C0000AD01849884207D0904205D0164988424C
:1038D00002D01649884207D18168154A114006294D
:1038E00006D0B1F5803F03D0016841F001010160CD
:1038F000002010BDFFE784F83E00C7E784F83F00D2
:10390000C4E784F84000C1E784F84100BEE784F8CA
:103910004200BBE7000001400004014000040040F9
:1039200000080040000C004000400140001800402A
:103930000700010000680349884201D1FEF7CEBBB1
:1039400070470000002000407047704770B5044683
:10395000C06FD4F88060216889684FF010050906AF
:1039600018D5212816D12068083050E8001F21F012
:10397000800140E80012002AF5D1206F38B1FEF72F
:10398000D5F820B1206FFEF72CF9202821D0204651
:1039900002F004F820688068400618D5222E16D15F
:1039A0002068083050E8001F21F0400140E8001274
:1039B000002AF5D1606F38B1FEF7B8F820B1606F1A
:1039C000FEF70FF9202804D0204601F0C1FF0020A7
:1039D00070BDC4F88450032070BD70472DE9F041DC
:1039E00003680446D86919689A6840F60F052842AA
:1039F0004FF000054FF0020605D182067ED58A06FB
:103A00007CD5A16E24E1DFF878C202F0010701EA5B
:103A10000C0C57EA0C0C71D05FEAC07C0CD05FEA4A
:103A2000C15C09D54FF0010CC3F820C0D4F8843034
:103A300043F00103C4F88430830709D5D30707D0C6
:103A400023681E62D4F8843043F00403C4F8843041
:103A500043070AD5D20708D0236804221A62D4F893
:103A6000842042F00202C4F8842002070CD501F041
:103A700020023A4308D0236808221A62D4F884202E
:103A800042F00802C4F8842002050BD54A0109D58A
:103A900023684FF400621A62D4F8842042F02002B6
:103AA000C4F88420D4F88420002A36D0800605D5B6
:103AB000880603D5A16E09B120468847D4F8840052
:103AC00021688968490602D410F0280F27D02046C3
:103AD00001F03EFF2068806840061BD52068083052
:103AE00050E8001F21F0400140E80012002AF5D103
:103AF000606F78B163490165606F00E015E0FEF723
:103B00005EF8002809D0606F016D00E02046BDE836
:103B1000F04108472046FFF760FFBDE8F0812046EE
:103B2000FFF75BFFC4F88450F7E7276E2022012FD0
:103B30007ED1C7067CD5CF067AD5102018622068C2
:103B40008068400650D5636F186840684FF48077EE
:103B50000004000C3CD0B4F85810814238D9A4F8C5
:103B60005A00D869B8422BD0206850E8001F21F4D1
:103B7000807140E80013002BF6D12068083050E82F
:103B8000001F21F0010140E80013002BF5D120684F
:103B9000083050E8001F21F0400140E80013002BDE
:103BA000F5D1C4F880202566206850E8001F21F078
:103BB000100140E80012002AF6D1606FFDF7B6FF51
:103BC0006666B4F85800B4F85A10401A81B207E09B
:103BD000B4F858108142A0D1D869B8429DD1666628
:103BE0002046FFF7B2FE98E7B4F85800B4F85A1030
:103BF000401A81B2B4F85A0000288ED000298CD027
:103C0000206850E8003F23F4907340E80037002F0D
:103C1000F6D12068083050E8003F23F0010340E867
:103C20000037002FF5D1C4F880202566A56600E096
:103C300009E0206850E8002F22F0100240E800233D
:103C4000002BF4D1CBE7030606D50B0604D5E16EB5
:103C500000297FF45BAF60E74006C4D54806C2D5B3
:103C60002046016851E8003F23F0400341E800345A
:103C7000002CF6D1C267C56600F052FA4DE700008D
:103C8000200100041958000810B5040002D0E06FAC
:103C900010B107E0012010BD002084F87800204614
:103CA00000F026F82420E0672068016821F0010177
:103CB0000160606A10B1204601F01CFD204601F051
:103CC00079FE0128E7D02068416821F490414160E5
:103CD0002068816821F02A0181602068016841F034
:103CE000010101602046BDE8104001F067BD000001
:103CF0002DE9F04FA7B00446142121A8FCF73CFBA6
:103D000084216846FCF738FBBE4D0227BC490326D8
:103D10002068103DDFF8EC924FF4806B88424FF042
:103D2000080A4FF000083FD16846CDF800B0CDF842
:103D30005480FEF7C5FA08B1FDF72CFDD9F8001044
:103D400041F48011C9F80010D9F8000000F4801087
:103D50002690286840F004002860286800F00400DD
:103D60002690286840F008002860286821A9544659
:103D700000F0080026904FF4805081E88101A248AD
:103D8000CDE9246AFEF7A4F821A9042081E8810185
:103D90009E48CDE92464FEF79BF8002205213520DA
:103DA000FEF726FA352048E0994988424AD1801426
:103DB000CDF85C8000906846FEF782FA08B1FDF706
:103DC000E9FCD9F8001041F08041C9F80010D9F899
:103DD000000000F080402690286840F01000286025
:103DE000286821A900F0100026904FF4C070CDE99A
:103DF0002107CDF894A047468648CDE92386FEF7F3
:103E000067F8864D844828604FF02060C5E90107B7
:103E1000C5E9037B6F612846AF61EF612F626F6276
:103E2000FDF7B2FF08B1FDF7B5FC6567002205217B
:103E3000AC635220FEF7DCF95220FEF7CBF927B035
:103E4000BDE8F08F764988422BD14014CDF86080D0
:103E500000906846FEF734FA08B1FDF79BFCD9F8EC
:103E6000001041F00041C9F80010D9F8000000F03E
:103E700000402690286840F010002860286821A99A
:103E800000F0100081E8C0012496CDE925A061482A
:103E9000FEF71EF8002205215320FEF7A9F9532052
:103EA000CBE760494FF0070A88422CD14020CDF87B
:103EB000448000906846FEF703FA08B1FDF76AFCFB
:103EC0005048001D016841F010010160006800F0D9
:103ED00010002690286840F001002860286821A979
:103EE00000F0010026904FF4C06081E881014E4847
:103EF000CDE9246AFDF7ECFF002205212520FEF71D
:103F000077F9252099E7494988422CD18020CDF8BE
:103F1000488000906846FEF7D3F908B1FDF73AFCF7
:103F2000D9F8001041F40031C9F80010D9F80000A8
:103F300000F400302690286840F0010028602868CE
:103F400021A900F0010026900C2081E8810136486B
:103F5000CDE9246AFDF7BCFF002205212620FEF7EB
:103F600047F9262069E7324988427FF468AF801517
:103F7000CDF84C8000906846FEF7A2F908B1FDF735
:103F800009FCD9F8001041F48021C9F80010D9F8D3
:103F9000000000F480202690286840F0020028608D
:103FA000286821A900F0020026904FF44060CDE976
:103FB0002107CDF894A047461E48CDE92386FDF79A
:103FC00087FF164D14486035303828604FF0006088
:103FD000C5E90107C5E9037B6F612846AF61EF6161
:103FE0002F626F62FDF7D0FE08B1FDF7D3FB656766
:103FF00000220521AC632720FEF7FAF827201CE7F2
:10400000005000404038024000080240000C0240CE
:10401000007800400010024058600240D813002091
:10402000007C0040001001400000024000440040BD
:10403000004800400004024030B4D0F88030202B0B
:1040400002D0022030BC704791B18AB100230366D0
:1040500003685B681B0208D5036853E8004F44F00F
:10406000806443E80045002DF6D130BC01F0BCBDB2
:104070000120E7E7704770472DE9F8430446C06F19
:104080001F4615460E46202802D00220BDE8F883C0
:104090009EB195B10020C4F884002120E067FEF7AE
:1040A00017F8A4F850508146A4F852504FF0200859
:1040B000A068B0F5805F02D003E00120E6E7206948
:1040C00010B13546002610E000250EE08021204684
:1040D00001F0DAFDB8B9D5B115F8010B2168886295
:1040E000B4F85200401EA4F85200B4F852004B46F7
:1040F0004FF0000200970028E8D14FF04001204621
:1041000001F0C2FD40B1C4F87C800320BEE736F860
:10411000020BC0F30800E1E7C4F87C800020B5E79B
:104120007047FEE7F0B52DED028B83B09FED538A0B
:1041300000254FF0010C8DED018A2C462B468DF8A1
:10414000085012E007880CFA03FE17EA0E0F0AD097
:104150000788641CE4B203F1010E0CFA0EF6374234
:1041600001D16D1CEDB25B1CDBB28B42EAD3457210
:104170000472434B1E78434DE6B11B78012B04D0EB
:10418000022B08D0032B1FD10BE002AB009301AB35
:1041900006F0D0F918E002AB009301AB06F080FA0C
:1041A00012E002AB009301AB06F046F90CE085ED9E
:1041B000018A1FE0344B1B6A1E05E6D4DE04EAD4F4
:1041C000DE011CD58DED018A9DF908000528EEDC85
:1041D000ECB39DF90800D0B300EE100ADDED010A42
:1041E000B8EEC00A80EE801A8DED011A9DED010A2D
:1041F00085ED010A03B00020BDEC028BF0BD1B036E
:1042000002D506F0CDF9F3E71E4ED3B2403E8F1A29
:1042100024E0B0F800C0CA1A521E9DF808E02CFA3B
:1042200002FC0CF0010CF4448DF808C0B0F800C09A
:104230002CFA02FC0CF0010200EE102A06EB8302BD
:10424000F8EE400A92ED001A9DED010A00E012E03E
:1042500000EE810A5B1CDBB28DED010A9F42D8DCC7
:10426000017A0429A3D29DF9081004299FDA407A23
:1042700001289CD8ACE78DED018AB7E7000000006B
:10428000700D002024EB002030E8002070B50446BB
:1042900006F0A0FE164D2C7004F0F8F805F10800A9
:1042A000144C90ED000A84ED060A687810B1FDF711
:1042B00073FA02E0104890ED010A114884ED020AF9
:1042C000D4ED060A30EEC00ADFED0C0A84ED010AD7
:1042D00084ED030AC4ED040AC4ED050AD0ED000A1A
:1042E00020EE800A84ED000ABDE8704006F096BE1C
:1042F000700D0020F8E9002024EB002000000000F1
:104300006CE900200D4808B5016841F40011016016
:1043100000680022052100F4001000900C20FDF739
:1043200067FF0C20FDF756FF002205210E20FDF748
:104330005FFFBDE808400E20FDF74CBF303802405B
:10434000044A0021044810B505F048F90349086003
:1043500010BD00007CBF0008455000080000002090
:104360002DE9F04186B014216846FCF705F838487D
:10437000016841F010010160016801F01001059130
:10438000016841F080010160016801F08001059140
:10439000016841F001010160016801F0010105912E
:1043A000016841F004010160016801F00401059118
:1043B000016841F002010160016801F0020105910C
:1043C000016841F00801016000680022214F1021BE
:1043D00000F0080005903846FDF775FEDFF878809C
:1043E0004FF4C056002231464046FDF76CFE0024D3
:1043F00069461020009001253846CDE90154039408
:10440000FDF766FD43F2F6106946CDE90004134856
:104410000294FDF75DFD40F6FB706946CDE90004AE
:104420000F480294FDF754FD28026946CDE90004C7
:1044300040460294FDF74CFD00966946CDE90154D3
:1044400040460394FDF744FD06B0BDE8F08100004E
:1044500030380240000802400000024000040240E0
:10446000000C02400C4845F25F420A4910B5016059
:1044700042F20F7141600021C0E902120161802106
:104480008161FEF7F9FC002803D0BDE81040FDF77C
:1044900081B910BD004801405C10002010B58CB0FF
:1044A00024216846FBF768FF184800241649099440
:1044B0000A940B94C0E900144FF6FF71C0E9024161
:1044C00080210461C0E9054103200494CDE9000482
:1044D00001206946CDE90204CDE905400B48079467
:1044E0000894FEF765FE08B1FDF754F9074809A9DD
:1044F00009940A940B94FEF76DFC002801D0FDF797
:1045000049F90CB010BD000000000140480E002029
:1045100010B58CB024216846FBF72EFF1648002406
:104520004FF0804109940A940B94C0E900144FF6AF
:10453000FF71C0E902418021046181610320CDE95E
:10454000000401200494CDE902046946CDE9054048
:10455000094807940894FEF72BFE08B1FDF71AF9F5
:10456000054809A909940B94FEF734FC002801D0F2
:10457000FDF710F90CB010BD940E002010B58CB0F2
:1045800024216846FBF7F8FE1748002415490994D2
:104590000A940B94C0E900144FF6FF71C0E9024180
:1045A0008021046181610320CDE90004012004948D
:1045B000CDE902046946CDE905400B48079408940B
:1045C000FEF7F6FD08B1FDF7E5F8074809A90994DB
:1045D0000B94FEF7FFFB002801D0FDF7DBF80CB0D1
:1045E00010BD000000040040E00E002010B58EB0A9
:1045F000002468461C210794089409940A940B949B
:104600000C940D94FBF7B8FE2A482949C0E9001420
:1046100042F62F21C0E90241046180218161FEF749
:104620002BFC08B1FDF7B6F84FF4805007902148F5
:1046300007A9FEF74DFD08B1FDF7ACF81D48FFF7DF
:10464000C6F808B1FDF7A6F81A480BA90B940D940B
:10465000FEF7C0FB08B1FDF79DF860206946CDE983
:1046600000041448002202940494FFF71EF808B1D5
:10467000FDF790F80F4804226946FFF716F808B1D5
:10468000FDF788F80B4808226946FFF70EF808B1D5
:10469000FDF780F807480C226946FFF706F808B1D5
:1046A000FDF778F80348FEF7A5FF0EB010BD000037
:1046B000000800402C0F002010B58CB02421684663
:1046C000FBF75AFE17480024154909940A940B94E5
:1046D000C0E900144FF6FF71C0E902418021046176
:1046E00081610320CDE9000401200494CDE9020496
:1046F0006946CDE905400B4807940894FEF758FD3C
:1047000008B1FDF747F8074809A909940B94FEF78B
:1047100061FB002801D0FDF73DF80CB010BD000092
:10472000000C0040780F002010B59AB000241C2126
:1047300017940BA818941594169412941394149427
:10474000FBF71AFE2C216846FBF716FE2F482E4970
:10475000C0E9001442F62F21C0E902418021046122
:10476000C0E90541FEF788FB08B1FDF713F84FF4E7
:1047700080501590254815A9FEF7AAFC08B1FDF751
:1047800009F82248FFF723F808B1FDF703F81F489E
:1047900012A9129413941494FEF71CFB08B1FCF7B1
:1047A000F9FF6020CDE90B04184808220BA90D94ED
:1047B0000E940F9410941194FEF777FF08B1FCF754
:1047C000E9FF12480C220BA9FEF76FFF08B1FCF7B6
:1047D000E1FF4FF400500094019469460294CDE942
:1047E0000440000303940694CDE907400748099468
:1047F0000A94FEF7A9FA08B1FCF7CCFF0348FEF7CC
:10480000F9FE1AB010BD000000040140C40F0020E2
:1048100010B58CB0002468461C21079408940994B4
:104820000A94FBF7A9FD1E481C49C0E9001442F692
:104830002F21C0E90241046180218161FEF71CFB48
:1048400008B1FCF7A7FF4FF480500790144807A960
:10485000FEF73EFC08B1FCF79DFF1148FEF7B7FFDD
:1048600008B1FCF797FF60206946CDE900040C48C9
:10487000002202940494FEF718FF08B1FCF78AFFA7
:10488000074804226946FEF710FF08B1FCF782FFD3
:104890000348FEF7AFFE0CB010BD00000040014021
:1048A000101000200D480C220B4910B501604FF488
:1048B000E131416000218160C160C0E90412816181
:1048C000C16101624162FFF7DFF9002803D0BDE852
:1048D0001040FCF75FBF10BD00500040A810002042
:1048E0000D480C220B4910B501604FF4E1314160D5
:1048F00000218160C160C0E904128161C16101626F
:104900004162FFF7C1F9002803D0BDE81040FCF771
:1049100041BF10BD00780040301100200D480C222E
:104920000B4910B501604FF4E13141600021816015
:10493000C160C0E904128161C16101624162FFF797
:10494000A3F9002803D0BDE81040FCF723BF10BD39
:10495000007C0040B81100200D480C220B4910B516
:1049600001604FF4E131416000218160C160C0E924
:1049700004128161C16101624162FFF785F900287B
:1049800003D0BDE81040FCF705BF10BD001001408A
:10499000401200200D480C220B4910B501604FF465
:1049A0006131416000218160C160C0E90412816110
:1049B000C16101624162FFF767F9002803D0BDE8D9
:1049C0001040FCF7E7BE10BD00440040C8120020B4
:1049D0000D480C220B4910B501604FF4165141608F
:1049E00000218160C160C0E904128161C16101627E
:1049F0004162FFF749F9002803D0BDE81040FCF7F9
:104A0000C9BE10BD0048004050130020FEE7FEE77D
:104A10002DE9F0470024804604202DED088BF0EEB0
:104A200063BAF0EE438AB0EE629AF0EE429AB0EECC
:104A300061AAF0EE41AAB0EE60BAB0EE408AFCF78F
:104A400005FD314F97F87400002859D12F4D304E95
:104A5000DFF8C09085ED038A86ED01BA99ED028AF0
:104A6000F5EEC0BAF1EE10FA08DDF0EE6B0AB0EE2A
:104A70004B0A03F083FF86ED010A01E086ED01BADF
:104A8000B8F1000F05D0E4B1012C23D0022C2FD1B6
:104A900029E024B1012C08D0022C29D10BE0B4EE7E
:104AA000EA8AF1EE10FA11DA22E0B4EEE98AF1EEC8
:104AB00010FA14DA1CE0B4EEE88AF1EE10FA1FD90D
:104AC00016E0B4EEEA8AF1EE10FA11D8012485ED71
:104AD00003AA0DE0B4EEE98AF1EE10FA08D8022438
:104AE00085ED039A04E0B4EEE88AF1EE10FA07DAF5
:104AF00097F87400002803D1052006F04BFBADE7C2
:104B0000BDEC088BBDE8F087B8E70020140E00204C
:104B1000F40D0020D0EA00202DE9F04700252DED0E
:104B2000048B82B0DFED929ADFF84882CDED009AD7
:104B3000F3EE048AB3EE098A98F81C00B0EE689A86
:104B4000012806D10320B0EE688AB2EE049A03F081
:104B500071FF0220B0EE691AF0EE480AB0EE480A82
:104B6000FCF7BAFBFCF716FB834F4FF4807A834CBB
:104B7000DFF80C92834EB1EE048A35B1012D48D096
:104B8000022D7DD0032D7CD19DE032206946FCF7BB
:104B900079FFB0EE490A00F0F9F8002824D09DED25
:104BA000000AB5EEC00AF1EE10FA03D103F09CFB47
:104BB0008DED000A98F81C0094ED000A012814D02D
:104BC00030EE081A30EE282A0020F0EE693AB0EEF6
:104BD000413AF2EE082AF2EE081ADDED000AB3EED1
:104BE000090AFFF715FF0125B2E070EE080A70EE22
:104BF000281A0020B2EE082AF0EE602AB2EE081A57
:104C0000B3EE090A05F0E4FF03F06EFB8DED000A38
:104C1000E9E704209DED001AF2EE080AB2EE080A58
:104C2000FCF75AFB554602E0052006F0B3FA294688
:104C30003846FDF743FA0028F6D002E0052006F0DA
:104C4000A9FA29463846FDF739FA0028F6D1FCF7CB
:104C500083FA642006F09EFAD8ED090A99ED000A5D
:104C600004F0F8FB03F040FB8DED000AB0EE401AB3
:104C70000420F2EE080AB2EE040AFCF7ABFA01E0F7
:104C800015E064E0FCF768FA642006F083FA04207B
:104C90009DED001AFAEE080AB1EE080AFCF79AFA3E
:104CA000FCF75AFAC82006F075FA022550E0FCF726
:104CB00053FA642006F06EFAFCF7FEFB642006F05F
:104CC00069FA032544E00420FCF7C0FBB2EE080AB1
:104CD00086ED030A03F008FB2B484D4680ED010AE0
:104CE00002E0052006F056FAD4ED000A95ED020A1E
:104CF00070EEC80AB4EEE00AF1EE10FAF1DC03F04F
:104D000065FA032003F096FEB3EE040AFCF7B0FB4D
:104D10000220FCF79BFB02E0052006F03BFAD4EDF5
:104D2000000A95ED020A70EEC80AB4EEE00AF1EE50
:104D300010FAF1D303F04AFA032003F07BFEB6EE3B
:104D4000000A86ED080AB3EE0E0AFCF791FB042573
:104D5000052006F01FFA042D7FF40FAF002108464E
:104D600002F0B8FA02B0BDEC048BBDE8F087000099
:104D70000000000030E80020000C0240600D002020
:104D8000D0EA0020140E0020F40D002010B52DED07
:104D9000028BB0EE408A03F079FB134800221449DD
:104DA000D0ED020A114890ED001A70EEC10AF0EE43
:104DB000E00AF4EEC80AF1EE10FA06DC0D48437A78
:104DC000032B02D3007A05280AD20878401CC0B20F
:104DD0000870052805D301200A70BDEC028B10BDB8
:104DE0000A700020F9E70000D0EA0020600D0020E2
:104DF0009C00002024EB002010B548491C222DED1A
:104E0000028B8EB06846FBF790FA45491C2207A832
:104E1000FBF78BFA9FED430A404880ED000A9FEDB7
:104E2000420A80ED010A9FED410A80ED020ADFEDA2
:104E3000408A0220F2EE080AB0EE681AB2EE080AC2
:104E4000FCF74AFAFCF7A6F93A4CBFEE008A10E0EC
:104E500003F01CFB2088C0F3C110032806D1207A80
:104E6000052803D203F040FAB0EE408A052006F090
:104E700091F9207A0828EBD318EE100A10F1814F2F
:104E800003D103F031FAB0EE408A2B48F1EE040A68
:104E9000F0EE683A90ED000A0020F2EE082A30EEBB
:104EA000201AF3EE040AF2EE081A30EE202AB0EED1
:104EB000413AF0EE480AB3EE090AFFF7A9FD0420D3
:104EC000B0EE481AF2EE080A9FED1C0AFCF782F9D0
:104ED000FCF742F9C82006F05DF903F005FAB0EEE0
:104EE000408A03F001FADFED160A30EE200AF0EEF8
:104EF000480AFCF729FB09481C226946FBF715FA0A
:104F000007481C2207A9FBF710FA0121084602F006
:104F1000E1F90EB0BDEC028B10BD00006CE9002081
:104F2000C0E9002000000C426F12833B0000964352
:104F30000000000024EB0020600D002000009642DD
:104F40000000344370B52DED028B03F0CDF9314CE8
:104F50000025DFED2F8AB0EE408A2078B0EE680A97
:104F600080B3F0EE480A94ED010A04F0AFFA84ED44
:104F7000018AD4ED020A70EE800AC4ED020A9FEDA8
:104F8000261A4FF0804171EE600AB0EEE01A11EE81
:104F9000100A884221DCB0EEC00A10EE100A1F4A47
:104FA00090421ADC6078142804D2401CC0B26070B1
:104FB000142813D300F036F805F008FF0120BDECEB
:104FC000028B70BDFFE70120207084ED018AC4EDE3
:104FD000028AF0EE680A6570D1E7657011EE100A7A
:104FE00088420FDC0E48B1EE600AC0ED020AC0ED47
:104FF000068A80ED010A80ED030AC0ED058A05F0FE
:10500000E5FE03E0B0EE600A05F046FE0020D6E7BC
:1050100000000000000E0020000034C39A99993E61
:1050200014EA0020054800219FED050A017080ED7B
:10503000010A80ED020A417070470000000E002056
:1050400000000000012004F077FAFBE710B505F03E
:10505000C1FF03F0E1FD04F0EDF805F0DFFFBDE86E
:105060001040002006F00CB908B50448202304A124
:105070000090DA00054802F046FC08BDE40D00206F
:1050800053746172745F7461736B00004D5000085B
:10509000502010B572B680F31188BFF34F8FBFF365
:1050A0006F8F62B606F054FD18B104494FF080507E
:1050B0000860002080F3118810BD000004ED00E0BE
:1050C00010B592B030216846FBF756F914210CA8B0
:1050D000FBF752F91F48016841F0805101600068F8
:1050E00000F0805011901C48016841F4404101607B
:1050F0000068022400F44040119001200090000458
:1051000001908001CDE9064004200890D820CDE927
:10511000090468460B94FDF75DFC08B172B6FEE722
:10512000FDF798F808B172B6FEE70F20CDE90C0440
:1051300000200E904FF4A0500F904FF4805010902C
:1051400007210CA8FDF738FB002801D072B6FEE756
:1051500012B010BD403802400070004002480168A3
:1051600041F470010160704788ED00E0044810B51B
:10517000FEF79AF9BDE810400248FEF795B9000025
:10518000480E0020101000200148FEF78DB90000E5
:10519000480E0020044810B5FEF786F9BDE810401F
:1051A0000248FEF781B90000480E00205C10002084
:1051B0000148FEF779B90000480E00200148FEF7CB
:1051C00073B90000940E00200148FEF76DB900008D
:1051D000E00E00200148FEF767B900002C0F002008
:1051E0000148FEF761B90000780F0020054800680B
:1051F000C168C943C90701D1891E01610148FEF791
:1052000053B900008CEB00200148FEF74DB90000B7
:10521000C40F00200148FEF747B90000C40F00206A
:10522000044810B5FEF740F9BDE810400248FEF70B
:105230003BB90000C40F0020981400200148FEF77D
:1052400033B90000C40F0020F0B502684FF0804E63
:10525000264D274E274FA842DFF89CC0274B09D088
:10526000704507D0B04205D0B84203D0604501D0A8
:10527000984203D122F070044A682243A8421BD00E
:10528000704519D0B04217D0B84215D0604513D040
:10529000984211D01A4CA0420ED01A4CA0420BD00A
:1052A000194CA04208D0194CA04205D0184CA0427D
:1052B00002D0184CA04203D122F44074CA682243A1
:1052C0004C6922F0800222438C68C4620C688462BC
:1052D000A84201D0984201D109690163016841F0F7
:1052E00004010160012141610260F0BD0000014044
:1052F0000004004000080040000C00400004014091
:1053000000400140004401400048014000180040B6
:10531000001C004000200040012301F01F0110B5D7
:10532000046A8B409C430462036A8A40134303620D
:1053300010BD10B5846842EA03220A4324F47F4476
:105340002243826010BD826822F070020A4342F05C
:105350000701816070470000F0B5056A026A22F01B
:10536000010202624268836925F00205114C124E67
:1053700023400C6823F00303104F1C438B682B431E
:10538000B04201D0B84205D1CD6823F008031D43D7
:1053900025F00403B04201D0B84205D14D6922F492
:1053A000407215438A692A434260846149684163B7
:1053B0000362F0BD8FFFFEFF0000014000040140CA
:1053C000F0B5056A026A22F010020262426883693F
:1053D000154C174E23400C6823F4407343EA042411
:1053E00025F020038D6843EA0513104DA84201D033
:1053F000B04206D1CF6823F0800343EA071323F0BD
:105400004003A84201D0B04207D14D6922F4406266
:1054100042EA85028D6942EA8502426084614968F8
:1054200081630362F0BD0000FF8FFFFE00000140BA
:1054300000040140F0B5056A026A22F4807202623B
:105440004268C369144C164E23400C6823F00303D2
:105450001C4325F400738D6843EA05230F4DA842D1
:1054600001D0B04206D1CF6823F4006343EA07239A
:1054700023F48063A84201D0B04207D14D6922F4E1
:10548000405242EA05128D6942EA05124260C46147
:105490004968C1630362F0BD8FFFFEFF0000014059
:1054A0000004014030B5046A026A22F480520262AC
:1054B0004268C36924F400540D4D2B400D6823F459
:1054C000407343EA05238D6844EA0534094DA84238
:1054D00002D0094DA84204D14D6922F4804242EA2B
:1054E00085124260C36149680164046230BD0000F6
:1054F000FF8FFFFE000001400004014030B5056A47
:10550000026A22F4803202624268436D0C4C2340EE
:105510000C681C4325F400330D8943EA0543094D0B
:10552000A84202D0084DA84204D14D6922F480322D
:1055300042EA05224260446549688165036230BDE4
:105540008FFFFEFF000001400004014030B5046AF7
:10555000026A22F4801202624268436D24F400144D
:105560000C4D2B400D6843EA05230D8944EA055490
:10557000094DA84202D0094DA84204D14D6922F438
:10558000802242EA8522426043654968C16504621F
:1055900030BD0000FF8FFFFE00000140000401400D
:1055A00010B5046A036A23F001030362836923F0E0
:1055B000F00343EA0213836124F00A020A43026201
:1055C00010BD10B5036A046A24F0100404628469F3
:1055D00023F0A00343EA011124F4704444EA0232A8
:1055E0008261016210BD000010B5214C2DED028BCF
:1055F000A0789FED208A10B1B0EE480A0AE01E485C
:1056000090ED000AFBF7B8FDD4ED030A30EE600A16
:10561000FBF7B2FDDFED190A19481A4C30EEC00A4B
:10562000F7EE000A10EE101A80ED020AC0ED060A2D
:10563000B1F1804F0DDA144984ED018A84ED008ABE
:1056400080ED048A80ED008A00200870BDEC028B9A
:1056500010BD0E490A4804F001F9D4ED040A02F025
:1056600043F984ED000AB1EE400A84ED010AEDE74A
:10567000000E002000000000D0EA00200000B4432B
:1056800014EA0020140E0020BF0D0020A4E9002021
:1056900010B500202DED028BF7EE008AB0EE008AE7
:1056A00005F0A8FBB0EEC00AB4EEC80AF1EE10FA9D
:1056B00005D205F08BFB0120BDEC028B10BDF0EE96
:1056C000480AB0EE680A05F033FB0020F4E700005A
:1056D0000148FEF783B90000A81000200148FEF73A
:1056E0007DB90000301100200148FEF777B90000B5
:1056F000B811002090F82410090706D501684A68FF
:10570000436B22F400421A434A6090F82410C90700
:1057100006D001684A68836A22F400321A434A605C
:1057200090F82410890706D501684A68C36A22F4F4
:1057300080321A434A6090F82410490706D5016860
:105740004A68036B22F480221A434A6090F82410BE
:10575000C90606D501688A68836B22F480521A4311
:105760008A6090F82410890606D501688A68C36BA0
:1057700022F400521A438A6090F82410490611D589
:1057800001684A68036C22F480121A434A60016C73
:10579000B1F5801F06D101684A68436C22F4C0024B
:1057A0001A434A6090F82410090606D501684A6831
:1057B000806C22F4002202434A607047F8B500254D
:1057C0000446C0F88450FCF783FC03462068006858
:1057D0004FF02006000716D56FF07E4000900022A3
:1057E0002046310400F050FA68B1206850E8001FEC
:1057F00021F0800140E80012002AF6D1E66703207C
:1058000084F87850F8BDE667C4F880602566656660
:10581000002084F87850F8BD10B5806B0021A0F806
:105820005A10FEF7DAF810BD70B5846BE06FD4F84B
:105830008050216889684FF00006090606D52128A6
:1058400004D1A4F85260204600F0A8F820688068CF
:10585000400606D5222D04D1A4F85A60204600F057
:1058600077F8D4F8840040F01000C4F88400204693
:10587000FEF7B3F870BD034670B5D9690024806B9C
:10588000B1F5807F2DD0A0F85A40016851E8002F73
:1058900022F4807241E80025002DF6D1016808311C
:1058A00051E8002F22F0010241E80025002DF5D13A
:1058B0000168083151E8002F22F0400241E800253C
:1058C000002DF5D12021C0F88010016E012908D1EA
:1058D000016851E8002F22F0100241E80025002D58
:1058E000F6D14466016E012902D0FEF7C3FB70BDFC
:1058F000A0F85A4019684968B0F8582089B28A421D
:1059000001D9A0F85A10B0F85A10511A89B2FEF70E
:105910001CF870BD10B50246806B01214166016E16
:10592000012902D0FEF7A7FB10BDB0F858104B08B4
:10593000A0F85A301268526892B2914201D3A0F88E
:105940005A20B0F85A20891A89B2FDF7FEFF10BD1F
:10595000016851E8002F22F4907241E80023002BE7
:10596000F6D10168083151E8002F22F0010241E828
:105970000023002BF5D1016E012908D1016851E8FF
:10598000002F22F0100241E80023002BF6D1202145
:10599000C0F880100021016681667047016851E8F7
:1059A000002F22F0C00241E80023002BF6D1202175
:1059B000C167704770B50446816800690025E269D7
:1059C0000143606910430143206802687B4B1A4021
:1059D0000A43026020684168E26821F440511143A3
:1059E0004160216AA06901432068826822F4306224
:1059F0000A438260724B4FF400422068714998421A
:105A00000AD1086810F0030052D001287CD0022887
:105A10007BD003286ED187E06B4B98420AD108688F
:105A200010F00C007AD004287CD0082878D00C28FC
:105A300060D179E0654B98420AD1086810F03000D7
:105A40006CD010286ED020286AD0302852D16BE05C
:105A50005F4B98420AD1086810F0C0005ED0402821
:105A600060D080285CD0C02844D15DE0594B98427A
:105A70000DD1086810F4407050D0B0F5807F51D03F
:105A8000B0F5007F4CD0B0F5407F33D14CE0524BA5
:105A900098420FD1086810F4406009D0B0F5806FCB
:105AA00040D0B0F5006F3BD0B0F5406F22D13BE065
:105AB000012120E0494B98420DD1086810F4405074
:105AC0002CD0B0F5805F2DD0B0F5005F28D0B0F5B8
:105AD000405F0FD128E0424B98420BD1086810F488
