:020000040800F2
:10000000C8EF0020A50200083F450008CB3C0008CF
:100010003D450008F90D00084559000800000000A2
:10002000000000000000000000000000E1010008E6
:1000300055130008000000003D020008894B00082D
:10004000BF020008BF020008BF020008BF0200088C
:10005000BF020008BF020008BF020008BF0200087C
:10006000BF020008BF020008BF020008BF0200086C
:1000700099120008BF020008A5120008BF0200087C
:10008000BF020008BF020008BF020008BF0200084C
:10009000BF020008BF020008BF020008BF0200083C
:1000A000654C0008A94C00088D4C0008814C0008E4
:1000B000B54C0008C14C0008CD4C0008BF02000838
:1000C000BF020008BF020008BF020008BF0200080C
:1000D000BF02000815580008215800082D580008D4
:1000E000BF020008BF020008BF020008014D00085F
:1000F000354D0008194D00080D4D0008BF020008DD
:10010000BF020008BF020008D94C0008BF02000867
:10011000BF020008C9510008BF020008E54C0008F2
:10012000BF020008BF020008BF020008BF020008AB
:10013000BF020008BF020008BF020008BF0200089B
:10014000BF020008BF020008BF020008BF0200088B
:10015000BF020008BF020008BF020008BF0200087B
:10016000BF020008BF020008BF020008BF0200086B
:10017000BF020008BF020008BF020008BF0200085B
:10018000BF020008BF020008D5510008E151000875
:10019000BF020008BF020008BF020008BF0200083B
:1001A000BF020008BF020008BF020008BF0200082B
:1001B000BF020008BF020008BF020008BF0200081B
:1001C000BF020008BF020008DFF810D000F044FBB7
:1001D0000048004709730008AFF30080C8EF002013
:1001E0002D4B19680868B0E8F04F80F30988BFF319
:1001F0006F8F4FF0000080F31188704700000000FF
:1002000008480068006880F308884FF0000080F319
:10021000148862B661B6BFF34F8FBFF36F8F00DFF4
:1002200000BF00BF08ED00E0DFF80C00016841F4FA
:1002300070010160704700BF88ED00E0EFF30980B6
:10024000BFF36F8F144B1A681EF0100F08BF20ED1C
:10025000108A20E9F04F106009B44FF0500072B6D8
:1002600080F31188BFF34F8FBFF36F8F62B609F031
:10027000ABFA4FF0000080F3118809BC19680868D8
:10028000B0E8F04F1EF0100F08BFB0EC108A80F3FA
:100290000988BFF36F8F704714000020EFF30580CB
:1002A000704700000648804706480047FEE7FEE723
:1002B000FEE7FEE7FEE7FEE7FEE7FEE7FEE7FEE716
:1002C000554C0008C90100082DE9F05F05460020E3
:1002D00092469B4688460646814640241BE02846B7
:1002E00041464746224600F003F953465A46C01A93
:1002F000914110D311461846224600F0EAF82D1A13
:1003000067EB01084F4622460120002100F0E1F88A
:1003100017EB00094E41201EA4F10104DFDC484622
:1003200031462A464346BDE8F09F10B5431A934232
:1003300009D28318881803E010F8011D03F8011D85
:10034000521EF9D210BD40EA01039B0703D009E019
:1003500008C9121F08C0042AFAD203E011F8013BB1
:1003600000F8013B521EF9D210BDD2B201E000F8F4
:10037000012B491EFBD270470022F6E710B5134649
:100380000A4604461946FFF7F0FF204610BD421CFE
:1003900010F8011B0029FBD1801A70472DE9FE4F90
:1003A00081EA030404F0004421F0004100944FF07E
:1003B000000B23F0004350EA01045ED052EA03042C
:1003C0005BD0C3F30A54C1F30A552C44A4F2F334AE
:1003D0000194A0FB0254C1F3130141F48011C3F353
:1003E000130343F4801301FB024400FB034E840A11
:1003F000970A44EA815447EA8357A4FB07680295A9
:100400008D0A05FB07854FEA932C04FB0C54270546
:10041000029D4FEA065847EA1637B5EB08056EEB22
:10042000070C870E920E47EA811742EA8312A7FB58
:100430000201B6EB0B0164EB00042B0D43EA0C3315
:100440005E1844EB1C50DA465146E7FB0201C5F347
:1004500013044FEA0B3343EA14534FEA0432019C6E
:1004600043EA0603A4F10C040294009CCDE900B415
:1004700000F05DF803B0BDE8F08F00200146F9E719
:1004800000F0004230F000400AD0C10D01F560716B
:10049000C0F3160042EA0151C208400711437047F9
:1004A00000200146704730B50B460146002020224F
:1004B000012409E021FA02F59D4205D303FA02F571
:1004C000491B04FA02F52844151EA2F10102F1DCD1
:1004D00030BD202A04DB203A00FA02F100207047E8
:1004E0009140C2F1200320FA03F319439040704772
:1004F000202A04DB203A21FA02F00021704721FA79
:1005000002F3D040C2F120029140084319467047DF
:1005100010B5141E73F1000408DA401C41F100010B
:1005200092185B411A4301D120F0010010BD2DE962
:10053000F04D92469B4611B1B1FA81F202E0B0FA59
:1005400080F220329046FFF7C4FF04460F4640EA8F
:100550000A0041EA0B0153465A46084313D011469C
:1005600053EA010019D0C8F140025046FFF7C0FF1E
:1005700005460E46504659464246FFF7AAFF084335
:1005800005D0012004E020463946BDE8F08D00206A
:10059000054346EAE0762C4337430A986305E40AAC
:1005A000A0EB08000022FD0A44EA47540A3002D5B5
:1005B00000200146E9E7010510196941DDE9084518
:1005C00000196941BDE8F04DA2E72DE9FE4F8046D4
:1005D00081EA0300C00F0C46009021F0004123F097
:1005E0000045B8EB0200A94105D24046214690469D
:1005F0001C460B46024623F00040104347D0270D0F
:10060000C7F30A00C3F30A510290401A0190402830
:100610006BDAC3F3130040F4801B0098924620B1BC
:100620000023D2EB030A63EB0B0B01985946C0F190
:1006300040025046FFF74DFF06460D4650465946CC
:10064000019A00F01BF910EB08006141002487EAD1
:10065000115284EAE7731A4340D0009A62B3019AB8
:10066000012A4FEA075215DC001B61EB02014FF033
:10067000004202EA0752CDE90042001C41F5801118
:1006800032462B46FFF753FF03B0BDE8F08F4046DC
:100690002146F9E7001B61EB0201001C41F58013C4
:1006A00000185B412018A2F5001747EB030140EA50
:1006B000D570B6196D4111E06D084FEA360645EA6E
:1006C000C0754FEA0752001B61EB0201001C41F5A7
:1006D000801149084FEA30000019514132462B463B
:1006E00003B0BDE8F04FFFF713BF009801224000B0
:1006F0000023D0EB020263EBE073009821464FEA3F
:10070000E074B8EB000061EB0401E9E783F000431B
:100710005BE781F0004158E72DE9F04D81EA0304E1
:1007200004F0004B21F0004514464FF0000A23F07E
:10073000004150EA050220D054EA01021DD0C5F361
:100740000A570246C5F31303C1F31300C1F30A5657
:1007500040F4801543F48013A7EB0608101BD6461F
:1007600008F2FD3873EB050002D308F1010801E03F
:1007700092185B41B8F1000F03DA00200146BDE892
:10078000F08D00204FF48011064684460EE0171BC2
:1007900073EB050705D3121B63EB050306434CEA15
:1007A000010C49084FEA300092185B4150EA0107FA
:1007B000EDD152EA030012D082EA040083EA050177
:1007C000084305D0101BAB4106D20122002306E0EE
:1007D00000224FF0004302E06FF0010253101AEBC9
:1007E00006004CEB085110EB0A0041EB0B01BDE891
:1007F000F04DFFF78DBEC1F30A52C1F3130140F271
:10080000FF3341F480119A4202DA0020014670471A
:1008100040F233439A42A2F2334202DC5242FFF7E3
:1008200067BEFFF756BE000030B5041E71F100042C
:1008300004DB4FF00044404264EB0101141E73F1ED
:10084000000405DB1C464FF00043524263EB0403F7
:10085000994208BF904230BD064C074D06E0E06863
:1008600040F0010394E8070098471034AC42F6D3F7
:10087000FFF7AEFC1CA500083CA50008202A06DBFB
:10088000CB17203A41FA02F043EAE07306E041FA5E
:1008900002F3D040C2F1200291400843194670474C
:1008A00070B58D1810F8014B14F0030201D110F847
:1008B000012B231106D110F8013B03E010F8016B66
:1008C00001F8016B521EF9D1ABB110F8012B04F005
:1008D0000C048A1A0C2C03D0A2EB84129B1C08E097
:1008E00010F8014BA2EB0422F8E712F8014B01F8D3
:1008F000014B5B1EF9D5A942D4D3002070BD000086
:10090000F0B500242DED088B81B09FED8F8A8F49C3
:1009100001208F4F8DED008AF0EE488A0870386A0A
:10092000B0EE489A010501D5012008E0C10401D5C7
:10093000022004E0000301D5032000E0002006F0BF
:1009400071FCF0EE489A0220B0EE691AF3EE040A48
:10095000B3EE040A00F012FB00F06EFA7D4E7E4DFD
:10096000B7EE00BAF3EE04AAB1EE04AA052C7CD2CD
:10097000DFE804F0033F8094AD00022000F0B8FBF4
:10098000B3EE040A00F0C6FB00F0ECFAB0EEC00AC9
:1009900010EE100A714988422ADBB1EE040A03F016
:1009A000A7FF002824D0734810226DA14FF6FF73D3
:1009B00003F036F900F022FA4FF4487008F0B0FD69
:1009C000D7ED090A96ED000A07F0EAF897ED098AD3
:1009D00038EE0B0A05F0CAFCF0EE408A0420B0EEB7
:1009E000681AF3EE040AB3EE040A00F0C7FA012411
:1009F0009FE095ED000A0020F0EE693A30EE2A2AD9
:100A000030EE0A1AF2EE082AF3EE091A32EE2A3A0A
:100A1000F0EE680AB3EE090A03F092FD00F00CFA5A
:100A20000420B0EE681AF2EE080AB2EE0E0A00F0E8
:100A300023FA96ED020AF0EE680A9FED4F1A0020A5
:100A4000F0EE693A40EE410A95ED000AF2EE082A0E
:100A5000B0EE692A30EE0A3AF2EE081AB0EE691AE0
:100A6000B2EE080A03F06CFD00E061E000F0E4F98A
:100A700002245EE038EE0B0A05F078FC3F488DED6D
:100A8000000AB0EE409A80ED010A3D48B3EE090A33
:100A900080ED030A00F0D0F903244AE0B0EE490AE1
:100AA000684605F07DFC00F05DFAB0EEC00A10EE7D
:100AB000100A344988423CDB04209DED001AF2EE16
:100AC000080AB2EE080A00F059FA042431E095ED64
:100AD000000A0120F0EE693A30EE4A1A30EE6A2A36
:100AE000F3EE042AF2EE081AB0EE413ADDED000A08
:100AF000B2EE080A03F024FD00F080F94FF496707E
:100B000008F00EFD0220B0EE691AF3EE090AB3EE0A
:100B1000090A00F033FA06F009FE1B480021C0ED77
:100B2000049AC0ED039AC0ED059A084605F000FC52
:100B30000524052008F0F4FC052C7FF417AF01B064
:100B4000BDEC088BF0BD0000000000008C00002010
:100B500020E80020C0EA0020540D002000000C42D4
:100B600066696E6420706F2C20616374696F6E0D0E
:100B70000A000000B81200208FC2F53CE80D0020EA
:100B8000080E002000008242E8E9002030B59FED09
:100B90003F1A002402202DED028B81B0F2EE080AEC
:100BA0008DED001AB2EE080A00F0E8F90A2008F00C
:100BB000B7FC00F041F9364D9FED368A24B1012C87
:100BC00021D0022C51D139E03220694600F060FD7D
:100BD000B2EE0E0A03F08CFE78B39DED000AB5EE7E
:100BE000C00AF1EE10FA03D106F02EF98DED000ADD
:100BF000B0EE401A0420F2EE0E0AB2EE0E0A00F039
:100C0000BDF9012432E095ED000AF1EE040A00205E
:100C100030EE201AF2EE0E0AF0EE483A30EE202ABC
:100C2000B0EE413AF2EE082AF2EE081ADDED000AC3
:100C3000B2EE080A03F084FC022417E095ED001AD6
:100C4000B0EE080A012031EE403AB2EE000AF0EEB2
:100C5000483A31EE402AF2EE082AF2EE081ADDEDAB
:100C6000000AB2EE080A03F06BFC0324052008F02A
:100C700057FC032CA2D100F0C1F80021084605F072
:100C800057FB01B0BDEC028B30BD0000000000003E
:100C9000540D0020CDCC4C3D2DE9F04F49491C228C
:100CA0002DED028B8FB0B0EE408A6846FFF73DFB1A
:100CB00045491C2207A8FFF738FBDFF8108144469E
:100CC00098F90460DFF808914F4699F8005000F059
:100CD000C1F84FF0030A87F800A000272771DFED65
:100CE0003D8A0220F3EE040AB0EE681AB3EE040A5D
:100CF00000F044F900F0A0F8374CDFF8E0B01DE058
:100D000006F074F900F09CFABBF80000C0F3C110C3
:100D1000032807D13248D0ED090A324890ED000A85
:100D200006F03EFF00F01EF9B0EEC00A10EE100A09
:100D30002D49884208DA052008F0F2FB207A0428C1
:100D4000DED9607A0128DBD01E4844469FED270A91
:100D500080ED000AC0ED018AC0ED028A88F804A087
:100D600000F06AF80220B0EE681AF2EE080AB2EE5D
:100D7000080A00F003F902E0052008F0D1FB00F0BA
:100D8000F1F8B0EEC00AB4EEC80AF1EE10FAF3D3EF
:100D90001748077017480770267189F800501C2201
:100DA00008486946FFF7C1FA07481C2207A9FFF760
:100DB000BCFA0021084605F0BBFA0FB0BDEC028B6F
:100DC000BDE8F08F5CE90020B0E900206C0D002048
:100DD000640D00200000000014EB002020EB002038
:100DE00020E80020C0EA00200000204200000C4261
:100DF000B50D0020B60D0020FEE70000002010B564
:100E000000F076F904489FED030A80ED000A80EDBA
:100E1000010A10BD00000000080E0020B5EEC00A57
:100E2000F1EE10FA05D2B0EEC00ADFED020A30EEA4
:100E3000C00A70470000B44310B505F077FF0448BE
:100E40009FED020A80ED070A10BD000000000000BF
:100E5000080E002010B505F001FA024800210171CA
:100E6000C18010BDA8E70020024800210174418222
:100E700070470000A8E7002070B506462DED048BF2
:100E8000B0EE408AB0EE419AB5EEC08AF0EE608ACC
:100E9000F1EE10FA25D9FFF7CFFF304600F028F920
:100EA000114D95F8741000291BD1104C042E02D05E
:100EB000C4ED028A08E00E48C4ED038A80ED019A71
:100EC00002E0052008F02CFBD4ED070AF0EEE00A62
:100ED000F4EEC80AF1EE10FA03D295F87400002877
:100EE000EFD0BDEC048B70BDA8E70020080E0020F9
:100EF000E80D00200248012101710021C1807047E6
:100F0000A8E70020024801210174002141827047B6
:100F1000A8E70020024801210175002141757047B2
:100F2000A8E7002002490120887509F081B9000076
:100F3000A8E70020002810B510D0094991F87420C6
:100F40000AB981F87500012081F8740006F03EF9B5
:100F500009F06EF9BDE81040FFF750BF10BD00006A
:100F6000A8E70020014890ED070A7047080E00200E
:100F7000014890F874007047A8E7002010B50446B7
:100F80002DED048BF0EE418AB0EE609AB0EE408A0F
:100F900000F0AEF80C4890F8740000280DD10B4911
:100FA000022C81ED008A81ED019A09D0042C04D134
:100FB000074881ED038AC0ED018ABDEC048B10BDAA
:100FC00081ED028AF9E70000A8E70020080E002062
:100FD000E80D002070B53E4C94F8740018B1BDE8DF
:100FE0007040FFF70BBF09F03BF900286FD1207D5F
:100FF000002598B107F018FD10EE100A3549884217
:101000000BDB607D401CC0B26075032806D365759C
:101010000220BDE87040FFF78DBF65752E4800784F
:10102000022854D120792D4E50B32D4890ED010A5D
:10103000B0EEC00A10EE100AB0F1814F02DDE08878
:10104000401C06E0B4F90600002806DDC8280EDAC8
:101050000A38E08000B2002807DC94ED020AB5EE01
:10106000C00AF1EE10FA02DC2DE0C82808DB05F01A
:10107000F5F82571E58094ED000A86ED020A22E07C
:10108000B4F9060000281EDD1649012807D191EDAC
:10109000000A84ED020A91ED020A84ED030A94ED40
:1010A000000AF6EE000A20EE200A86ED020AB2EEF1
:1010B000080A81ED000A9FED0C0A81ED010A9FEDFF
:1010C0000B0A81ED020ABDE8704006F08BB870BDD6
:1010D000A8E7002000003442B00D0020080E0020D8
:1010E00014EB00205CE900200000000000004843F1
:1010F000074910B504460978022903D1022C01D012
:1011000006F064F82046BDE8104006F02DBF000050
:10111000B00D002010B50E482DED028BB0EE408AC8
:1011200090F8741000290CD180ED008AB0EE480AC6
:1011300006F088F8074801780748042904D080EDB4
:10114000028ABDEC028B10BD80ED038AF9E7000036
:10115000A8E70020B00D0020080E002010B51C49A3
:101160001C222DED028B88B06846FFF7DEF8194C83
:101170001748B2EE080A94ED048A84ED040AB7EE2B
:10118000080A80ED000A9FED140A80ED020A9FED27
:10119000130A80ED010A05F057FEDFED110A002069
:1011A00030EE200AF0EE000A05F08AF9FFF726FE7D
:1011B0004FF4967008F0B4F905481C2284ED048AB7
:1011C0006946FFF7B2F808B0BDEC028B10BD000015
:1011D00094E90020080E0020000096420000000064
:1011E000000034430020F0EE080A05F069B9000061
:1011F000114810B5407810B1012803D017E005F070
:10120000C7FA14E005F0B6FA0C4890F8300006F082
:101210001BF9012809D107F017FC30B107F01CFCBD
:1012200007F046FC05F0F0FA01E007F041FCBDE8EC
:10123000104005F0F5BB00009C00002020E80020D5
:101240002DE9F04100252C4607F07AFB0D4A10806D
:1012500000200123168803FA00F73E4209D01688C1
:10126000641CE4B2471C03FA07F10E4201D16D1C65
:10127000EDB2401CC0B21028ECD355721472BDE818
:10128000F081000020EB002010B507F011FCBDE854
:10129000104005F06FBA0000014800F079BA000074
:1012A00028140020014800F073BA0000C813002081
:1012B00001681823CAB2103AB2FBF3F2054B6FF380
:1012C0000901032A9B5CC36500D9091D8165084695
:1012D0007047000050A40008014610B500208B693B
:1012E0004FF0C0748A6A53B1B3F5005F15D072B184
:1012F000012A0CD0022A0AD0032A09D104E01AB12B
:10130000012A06D0022A03D1C96AC90100D50120E9
:1013100010BDC96AA142FAD010BD002AF7D0012A37
:10132000F2D0022AF3D0032AF3D010BD30B50468FE
:10133000256825F480252560046863608368402B58
:10134000036803D099600068C26030BD9A6000688D
:10135000C16030BD704700001848002110B501F091
:101360002DFE1648042101F029FE144801F03EFC30
:101370001348002101F022FE1148042101F01EFE55
:101380000F4801F033FC0F48002101F017FE0D4813
:10139000042101F013FE0B4801F028FC0A4800214B
:1013A00001F00CFE0848042101F008FE064801F097
:1013B0001DFCBDE81040054801F018BC380E0020A7
:1013C000840E0020D00E0020680F00204C1000205A
:1013D00072B6FEE72DE9F04700242DED028B90B0A8
:1013E0009FED6E8A14216846FEF7C6FF142105A8FA
:1013F000FEF7C2FF0020DFF8A8C105AF03460DF1DC
:1014000038090146EA460E900F9001EB41020CEBC1
:101410008202157A1DB1157A022D05D012E009F865
:101420000410641CE4B20DE0D2ED010A0AEB800561
:10143000C5ED000AD2ED000A07EB8002401CC2EDA8
:10144000000AC0B2491C0529DFDB032C04D2844208
:101450004FF07E5810D3ACB100204A4609E0115C31
:10146000401C01EB41010CEB810191ED010A30EED2
:10147000088AA042F3DB84E024B100220A930B9394
:101480000AAB5DE080B3012804D000220C930D93D9
:101490000CAB22E09DED000A10B0BDEC028BBDE864
:1014A000F087511C07EB820514E007EB8104D5EDB2
:1014B000000A94ED001A70EEC10AF0EEE00A10EE98
:1014C000904A444505DC9C5C641C9C545C5C641C38
:1014D0005C54491C8142E8DB521C8242E1DB00255E
:1014E0009DF83020294606E00BE05C5C944201D96F
:1014F0002246CDB2491C8142F7DB12B10AEB8500CE
:1015000048E0B0EE480AC7E7511C07EB820614E03A
:1015100007EB810596ED000AD5ED000A30EE600A72
:10152000B0EEC00A10EE105A454505DC9D5C6D1CFE
:101530009D545D5C6D1C5D54491C8142E8DB521C6E
:101540008242E1DB00269DF82820314605E05D5C03
:10155000954201D92A46CEB2491C8142F7DB521C82
:10156000944215D300204A4609E0115C401C01EB6F
:1015700041010CEB810191ED010A30EE088AA04295
:10158000F3DB00EE104AF8EE400A88EE200A83E70B
:101590000AEB860090ED000A7EE7000000000000E4
:1015A000740D002070B52DED028BB0EE408A05F071
:1015B0001DFD2D4C2D4D607810B1FFF70BFF02E0A3
:1015C0002B4890ED010A284885ED020A0830294988
:1015D00090ED000A254885ED060A06F0E5FC10EEC0
:1015E000100A254984ED010A884202DB9FED230A97
:1015F00006E010EE100A2249884203D39FED210A2B
:1016000084ED010A9FED201AB0EEC80AC0EE010A6F
:1016100094ED011A60EE810AC4ED010AB4EEE00A0D
:10162000F1EE10FA06D3B1EE400AB4EEE00AF1EEA4
:1016300010FA01DD84ED010AB5EEC08AF1EE10FA70
:1016400094ED010A03D2B1EE400A84ED010A0F487D
:1016500078EE400A38EE000AC0ED000A80ED010A7B
:10166000BDEC028B70BD0000640D0020E8E9002095
:1016700014EB00205CE900200000484300004843D0
:10168000000048C3000048C300002042080E0020AC
:1016900070B500240E4605462DED028B9FED0C8A99
:1016A00008E005F0D1FB052030EE088A07F038FF8E
:1016B000641CE4B2AC42F4D300EE105AB8EE400A17
:1016C000C8EE000AC6ED000ABDEC028B70BD00003A
:1016D000000000002DE9F041876D044600F0CCFACF
:1016E000054694F835000026022806D08020606563
:1016F000012084F83460BDE8F0812068016821F0A1
:10170000160101602068416921F080014161206C6F
:1017100008B9A06C20B12068016821F008010160BF
:101720002068016821F0010101600CE000F0A4FADA
:10173000401B052807D920206065032084F8350068
:1017400084F83460D7E720680068C007EED194F8C9
:101750005C103F208840B860012084F835000020EC
:1017600084F83460C7E790F83510022903D080214F
:10177000416501207047052180F835100068016837
:1017800021F00101016000207047406D70470000AA
:101790002DE9F843044665484FF00009CDF8009064
:1017A0004FF41651A56D0068B0FBF1F72E680821C3
:1017B00094F85C2001FA02F030420FD020680268F1
:1017C00052070BD5026822F00402026094F85C0014
:1017D0008140A960606D40F00100606594F85C1084
:1017E0004FF0010808FA01F0304208D02168496939
:1017F000090604D5A860606D40F00200606594F8A9
:101800005C1004208840304208D0216809688907AC
:1018100004D5A860606D40F00400606594F85C1029
:1018200010208840304218D021680968090714D573
:10183000A86020680168490304D50068000308D542
:10184000A16C07E00168C90503D4016821F0080113
:101850000160216C09B12046884794F85C10202073
:101860008840304231D021680968C9062DD5A8606A
:1018700094F8350005282068016806D0490347D54B
:10188000006800031DD4616C1CE021F016010160AA
:101890002068416921F080014161206C08B9A06C89
:1018A00020B12068016821F00801016094F85C1003
:1018B0003F208840A86084F8358084F83490216DFA
:1018C0001FE0E16B09B120468847606D00282BD0EE
:1018D000606DC00714D0052084F8350020680168C9
:1018E00021F0010101600098401C0090B84203D82B
:1018F00020680068C007F6D184F8358084F83490F9
:10190000E16C002910D001B02046BDE8F043084743
:101910000168C905D5D4016821F01001016084F87F
:10192000358084F83490CCE7BDE8F88310000020BF
:1019300070B5044600F0A0F905465CB1022084F8B9
:101940003500002684F834602068016821F0010128
:1019500001600CE0012070BD00F08EF9401B0528ED
:1019600005D920206065032084F8350070BD20680B
:101970000068C007F0D121680A6820480240D4E915
:1019800001031843D4E903352B4318436369184313
:10199000A3691843E3691843236A18431043626A32
:1019A000042A03D1D4E90B231A43104308602068AA
:1019B000406920F00701606A042840EA01050CD163
:1019C000A06A0543E06A40B12046FFF785FC20B1DC
:1019D0004020606584F83560BCE72068456120469A
:1019E000FFF766FC94F85C203F21914081606665BA
:1019F000012084F83500002070BD00003F8010F009
:101A00002DE9F041866D044690F834000025012848
:101A10000DD0012084F8340094F835700020012F97
:101A200007D0022584F834002846BDE8F081022062
:101A3000FBE7022784F8357060652046FFF776FCE7
:101A400094F85C103F208840B0602068016841F045
:101A5000160101602068416941F080014161206CFC
:101A600020B12068016841F0080101602068016828
:101A700041F001010160D7E72DE9F84FDFF8B0919F
:101A8000002203274FF00F0CA9F1040B09F1040AFF
:101A9000ABF1040E0B68012595402B40AB426ED193
:101AA0000C7904F00304012C01D0022C15D18668B6
:101AB000540007FA04F826EA0806D1F80C8008FA60
:101AC00004F848EA0608C0F808804468AC430D7979
:101AD000C5F300159540254345600C79E443A40700
:101AE00008D0C568540007FA04F6B5438E68A640CE
:101AF0002E43C6600C7904F00304022C11D1D408E3
:101B000000EB8406356A5407E40E0CFA04F825EA63
:101B10000805D1F8108008FA04F848EA0508C6F864
:101B200020800568540007FA04F6B5430E7906F0E4
:101B30000306A6402E4306604C6814F4403F70D064
:101B40003C4C256845F480452560246822F0030557
:101B500004F480440094384C05EB0408D8F8085885
:101B60009407260F0CFA06F4A543344CA04201D189
:101B700000242EE0324CA04202D1012429E050E0A2
:101B8000304CA04201D1022423E02F4CA04201D1CD
:101B900003241EE02D4CA04201D1042419E02C4C5A
:101BA000A04201D1052414E02A4CA04201D1062410
:101BB0000FE0294CA04201D107240AE0274CA042A3
:101BC00001D1082405E0264CA04201D1092400E0FF
:101BD0000A24B4402C43C8F80848D9F800404D46C0
:101BE0004E689C43F60200D51C432C60DAF8004096
:101BF00055464E689C43B60200D51C432C60DBF86A
:101C000000405D464E689C43B60300D51C432C60E3
:101C1000DEF8004075464E689C43F60300D51C4331
:101C20002C60521C102AFFF435AFBDE8F88F00007D
:101C3000083C0140443802400030014000000240AE
:101C40000004024000080240000C02400010024064
:101C50000014024000180240001C02400020024014
:101C6000002402400069084000D0012070470AB1FA
:101C7000816170470904FBE70148806870470000F4
:101C80000400002002488168027811448160704796
:101C900004000020032010B500F09EF80F2000F093
:101CA00005F800F04FF8002010BD000030B50546E3
:101CB0001F4887B0016841F480710160006806A97F
:101CC00000F480700590684600F0E8FB0398B0B11E
:101CD00000F004FC40001749174AB0FBF1F1174827
:101CE000026040F2E732491E41600021C0E9032151
:101CF0008160816100F094FE040003D015E000F0E3
:101D0000EDFBE8E70D4800F071FF04000DD12D2038
:101D100000F034F8102D07D2002229462D2000F0C3
:101D20003BF80748056000E0012407B0204630BDBD
:101D30004038024040420F0000200040881400203C
:101D4000080000200C4882B0016841F08051016019
:101D5000006800F0805000900748001D016841F4C1
:101D600080410160006800220F2100F48040009053
:101D7000901E02B000F010B840380240002809DB85
:101D8000012100F01F0291404009800000F1E02095
:101D9000C0F80011704700000E4BF0B41B68C3F38D
:101DA0000223C3F10704042C00D904241D1D072DB0
:101DB00001D2002300E0DB1E012606FA04F56D1EA9
:101DC0000D409D409E40761E164045EA0601F0BC3F
:101DD00003F0D4BD0CED00E0064A00F007011068E6
:101DE0004FF6FF03184040EA012003490843106002
:101DF000704700000CED00E00000FA051848F8B547
:101E0000016841F0805101600068164D00F080507B
:101E10000090286840F480302860FFF72DFF4FF4D1
:101E20007A76044604E0FFF727FF001BB0420FD884
:101E30006868C003F7D5286840F400302860FFF7D1
:101E40001BFF044606E0FFF717FF001BB04201D955
:101E50000320F8BD68688003F5D50020F8BD0000B8
:101E600040380240007000402DE9F84F04460078E9
:101E70000026DFF820943546C0070ED0D9F80010B0
:101E800021F40001C9F80010D9F80010626B114369
:101E9000C9F80010606B00B901262068FE4F0003EE
:101EA0000ED53868E16B20F4401008433860E06BD1
:101EB000B0F5801F01D010B102E0012600E001253D
:101EC0002068C0020ED53868216C20F44000084319
:101ED0003860206CB0F5800F01D010B102E001260F
:101EE00000E001252068C10100D50126800666D5E5
:101EF000E8483830016841F0805101600068DFF83F
:101F00009CA300F080500090DAF8001041F480713A
:101F1000CAF80010FFF7B0FE804605E0FFF7ACFE00
:101F2000A0EB080064287DD8DAF80000C005F5D5DC
:101F3000DFF864A3AAF11C0ADAF8000010F440707C
:101F40002AD0218E01F44071814225D0DAF80010A8
:101F5000DAF8002021F4407142F48032CAF80020FF
:101F6000DAF8002022F48032CAF80020CAF8001003
:101F7000DAF80000C0070FD0FFF77EFE804641F27E
:101F8000883B05E0FFF778FEA0EB08015945CAD869
:101F9000DAF800008007F5D5206BC0F30121032992
:101FA0007ED0D9F8001021F4F811C9F80010DAF841
:101FB0000010228EC2F30B021143CAF800102078E1
:101FC000C00607D5386820F0807038603868A16B8B
:101FD0000843386020884104B14805D50168626E25
:101FE00021F44031114301602188090405D50168BD
:101FF000A26E21F44021114301602168C90305D577
:102000000168E26E21F440111143016021688903E7
:1020100005D50168226F21F4400111430160217848
:10202000490600E002E105D50168626C21F0030178
:10203000114301602178090605D50168A26C21F0E1
:102040000C01114301602188C90505D50168E26CC6
:1020500021F03001114301602188890505D501680F
:10206000226D21F0C001114301602188490505D589
:102070000168626D21F440711143016021880905F6
:1020800005D50168A26D21F44061114301602188EA
:10209000C90407D50168E26D21F44051114300E005
:1020A0003DE001602188890405D50168226E21F494
:1020B0004041114301602168490205D50168A26FC2
:1020C00021F080611143016021684FF000698902AD
:1020D00009D50168E26F21F0006111430160E16FF1
:1020E000494500D1012521680A0700D5012549038A
:1020F00005D50168626F21F04071114301602168CC
:10210000090206D50168D4F8802021F080511143DE
:102110000160DFF88081A8F108086EB909E0D9F8FC
:102120000020604B22F4F81218400243C9F8002046
:102130003DE72068800178D5D8F8001021F0806153
:10214000C8F80010FFF798FD064604E0FFF794FD7D
:10215000801B64286AD8D8F800000001F6D42078E3
:102160005149C00711D0606B78B908680A68C0F39C
:1021700001406368C2F303629B0143EA004040EA06
:102180000260227A40EA027008602068020303D5E8
:10219000E26BB2F5801F05D0C0021AD5206CB0F5F5
:1021A000800F16D108680A68C0F301406368C2F363
:1021B00002729B0143EA0040237B40EA036040EA4D
:1021C000027008603868626A20F01F00521E1043D7
:1021D00038602068C0010FD508680A68C0F3036042
:1021E0006368268AC2F302729B0143EA064343EA0C
:1021F000006040EA02700860206880010BD56068CA
:10220000228A800140EA0240227B40EA0260227A70
:1022100040EA02700860D8F8001041F08061C8F808
:102220000010FFF729FD064606E009E082E0FFF70F
:1022300023FD801B64287DD8D8F800000001F6D566
:10224000B5B3D8F80000454620F08050C8F800002B
:10225000FFF712FD064604E0FFF70EFD801B642821
:1022600075D82868C0438000F6D520680F4902035E
:1022700001D5E26B1AB1C0022BD5206C48BB0868AF
:102280000A68C0F301406369C2F302729B0143EA2A
:1022900000400EE0083802408C38024000700040D8
:1022A00090380240FFFCFF0F84380240883802401B
:1022B00054E0237E40EA036040EA02700860386818
:1022C0006FF0FF03A26A20F4F85003EB02221043E0
:1022D00038602068800212D5E06F48450FD1086849
:1022E0000A68C0F303606369268CC2F302729B0123
:1022F00043EA064343EA006040EA0270086020783F
:10230000000715D508680A68C0F303606369C2F363
:1023100001429B0143EA024242EA0060227F40EA16
:10232000027008603868E16A20F440300843386081
:10233000286800E00BE040F080502860FFF79CFC2C
:10234000044607E0FFF798FC001B642802D903202D
:10235000BDE8F88F2868C0438000F3D40020F7E779
:102360002DE9F04704000D4669D0DFF81C81D8F84C
:10237000000000F00F00A8420CD2D8F8001021F0A5
:102380000F012943C8F80010D8F8000000F00F0032
:10239000A84254D120683D4E810712D5400703D58D
:1023A000306840F4E05030602078000703D5306892
:1023B00040F4604030603068A16820F0F0000843CD
:1023C00030602078C00729D030496068083901287A
:1023D00010D00968022810D0890700292FDA316847
:1023E00021F0030101433160FFF746FC074641F24B
:1023F00088390CE009688903EFE78901EDE7FFF709
:102400003BFCC11B494502D90320BDE8F087306879
:10241000616800F00C00B0EB810FF0D1D8F800102B
:10242000404601F00F01A9420BD9016821F00F01CC
:1024300029430160006800F00F00A84201D001208C
:10244000E3E72078400705D53068E16820F4E050E4
:10245000084330602078000706D53068216920F4F1
:10246000604040EAC100306000F058F83168084A26
:10247000C1F30311515CC840064908600648006872
:10248000FFF714FC0020C0E7003C0240083802407F
:1024900058A4000810000020080000200F2202604D
:1024A0000C4A136803F003034360136803F0F0035E
:1024B0008360136803F4E053C36012684FF4E05381
:1024C00003EAD20202610448006800F00F000860CD
:1024D0007047000008380240003C024004480549AB
:1024E00000680968044AC1F38221515CC840704702
:1024F000100000200838024068A40008044805497C
:1025000000680968044AC1F34231515CC840704711
:10251000100000200838024068A40008154810B5D3
:10252000006810F00C01144813D0431004290FD098
:1025300008290ED10F4C241F216801F03F022168A9
:10254000490207D52068C0F38810A0FB030106E00C
:10255000184610BD2168C1F38811A1FB00010023BA
:10256000FDF7B2FE2168C1F30141491C4900B0FBEF
:10257000F1F010BD083802400024F4002DE9F84FB6
:1025800004004FF0000877D02078DFF850B3ABF1AB
:102590000409C007A9F104054AD0DBF80010584629
:1025A000C1F38101012908D00068C0F3810002282D
:1025B0000AD1D9F80000400206D52868800337D533
:1025C00060680028DFD033E06068B0F5803F0BD052
:1025D00010B1B0F5A02F11D0286820F48030286009
:1025E000286820F4802002E0286840F480302860C9
:1025F000606888B1FFF740FB064609E0286840F4B0
:1026000080202860F0E7FFF737FB801B642873D831
:1026100028688003F7D50BE0FFF72EFB064604E0A1
:10262000FFF72AFB801B6428F1D828688003F7D4C1
:102630002078800740D5DBF80010584611F00C0FC9
:1026400008D00068C0F3810002280AD1D9F8000040
:10265000400206D42868800717D5E06801280BD10E
:1026600013E0E0680028286817D040F001002860D7
:10267000FFF702FB064605E02CE1FFF7FDFA801BA1
:102680000228C4D828688007F7D52868216920F077
:10269000F80040EAC10028600EE020F00100286048
:1026A000FFF7EAFA064604E0FFF7E6FA801B022885
:1026B00022D828688007F7D42078000725D5874FCF
:1026C00060696C37002838680FD040F0010038602E
:1026D000FFF7D2FA064604E0FFF7CEFA801B022885
:1026E0000AD838688007F7D50FE020F0010038607D
:1026F000FFF7C2FA064605E082E0FFF7BDFA801B4D
:1027000002287DD838688007F7D42078400769D53B
:10271000DFF8C8A10AF1380ADAF80000C0000CD4CA
:10272000DAF8001041F08051CAF80010DAF8000021
:102730004FF0010800F080500090694F3868C005E4
:102740000FD4386840F480703860FFF795FA064679
:1027500004E0FFF791FA801B642851D83868C0055F
:10276000F7D55E4FA068683701280AD008B1052860
:1027700011D0386820F001003860386820F004007B
:1027800002E0386840F001003860A06898B1FFF7B7
:1027900073FA06460BE0386840F004003860F0E752
:1027A000FFF76AFA811B41F28830814265D83868A8
:1027B0008007F5D50DE0FFF75FFA064606E0FFF764
:1027C0005BFA811B41F28830814256D83868800715
:1027D000F5D4B8F1000F05D0DAF8001021F08051DF
:1027E000CAF80010A169C9B3DBF80000C0F381008A
:1027F000022849D02868022920F08070286000E073
:102800003BE003D0FFF738FA044639E0FFF734FA2B
:10281000064604E0FFF730FA801B02282DD828680E
:102820008001F7D4D4E907012E4A0843A16A490878
:1028300002EB0141626A41EA8211084394F82C10CC
:1028400040EA016040F00051C9F80010286840F0EB
:1028500080702860FFF710FA044605E03CE0FFF7BF
:102860000BFA001B022808D828688001F7D533E04E
:10287000FFF702FA001B022802D90320BDE8F88FF7
:1028800028688001F4D427E0D9F80000012921D07C
:10289000E26900F4800191421CD1226A00F03F01FC
:1028A000914217D1626A47F6C0710140B1EB821FB5
:1028B00010D1A26A4FF0FF3300F4403103EB520213
:1028C000B1EB024F06D194F82C1000F07060B0EB21
:1028D000016F01D00120D1E70020CFE70838024086
:1028E000007000400000FFFF704770477047000015
:1028F00030B590F83C20012A3AD0012280F83C20E3
:10290000CA6800248B6822F440721A4D1A434B683F
:1029100022F480621A430B6822F400621A430B69A6
:1029200022F480521A434B6922F400521A438B6AF4
:1029300022F480421A430B8B22F4702242EA0342B3
:102940000368AB4202D00C4DAB420CD18D8C22F40B
:10295000700242EA0552CD6922F08072096A2A4368
:1029600022F000720A435A6480F83C40002030BDD7
:10297000022030BD0000014000040140F0B590F895
:102980003C20012A3CD0012580F83C50022280F8EE
:102990003D2003685A689C681A4E1B4FB34201D011
:1029A000BB4204D122F4700C4A6842EA0C0222F0C5
:1029B000700C0A6842EA0C025A600268B24213D0F4
:1029C000B2F1804F10D0114B9A420DD0104B9A4269
:1029D0000AD0104B9A4207D0BA4205D00E4B9A4209
:1029E00002D00E4B9A4204D1896824F08003194327
:1029F000916080F83D50002180F83C100846F0BD01
:102A00000220F0BD0000014000040140000400402D
:102A100000080040000C0040004001400018004049
:102A200010B5040003D094F83D0010B107E0012078
:102A300010BD002084F83C00204600F023F802205E
:102A400084F83D002068211D02F07AF9012084F805
:102A5000480084F83E0084F83F0084F8400084F881
:102A6000410084F8420084F8430084F8440084F86C
:102A7000450084F8460084F8470084F83D000020B3
:102A800010BD000008B50068334988420FD13348B3
:102A9000016841F00401016000680022052100F096
:102AA000040000901E20FFF777F91E204EE02B490E
:102AB0002B4A091D904226D1086840F002000860A8
:102AC00008680022052100F0020000902B20FFF78B
:102AD00063F92B20FFF752F9002205212C20FFF784
:102AE0005BF92C20FFF74AF900220F212D20FFF778
:102AF00053F92D20FFF742F9002205212E20FFF780
:102B00004BF92E2022E0174A90420ED1086840F47B
:102B10008030086008680022052100F480300090B1
:102B20001820FFF739F9182010E00F4A904211D110
:102B3000086840F48020086008680022052100F43D
:102B4000802000901A20FFF727F91A20BDE80840DE
:102B5000FFF714B908BD00000008004040380240EB
:102B600000040140004001400048014090F83D1041
:102B7000012901D001207047022180F83D10006832
:102B80001249884214D0B0F1804F11D010498842C8
:102B90000ED0104988420BD00F49884208D00F4907
:102BA000884205D00E49884202D00E49884207D19A
:102BB00081680D4A1140062906D0B1F5803F03D047
:102BC000016841F0010101600020704700000140F0
:102BD0000004004000080040000C004000040140D8
:102BE00000400140001800400700010090F83D102F
:102BF000012901D001207047022180F83D100168B1
:102C0000CA6842F00102CA6000681349884214D0C1
:102C1000B0F1804F11D0114988420ED0104988423E
:102C20000BD01049884208D00F49884205D00F497F
:102C3000884202D00E49884207D181680D4A11406E
:102C4000062906D0B1F5803F03D0016841F00101AB
:102C500001600020704700000000014000040040B7
:102C600000080040000C004000040140004001400A
:102C7000001800400700010070B5044690F83C00C1
:102C80000025012817D0012684F83C60022084F832
:102C90003D00206882682F4B1A4022F47F428260F8
:102CA0000868502838D00DDC20284FD005DC90B3C0
:102CB000102811D14AE0022070BD302846D04028AB
:102CC0000AD13BE060282FD070280DD0B0F5805F8E
:102CD00003D0B0F5005F12D0012584F83D600020DC
:102CE00084F83C00284670BD4A682068D1E9021388
:102CF00002F09BF82068816841F0770109E04A689A
:102D00002068D1E9021302F090F82068816841F44C
:102D100080418160E1E719E0CA684968206802F0F3
:102D2000BBF92068502106E0CA684968206802F0B3
:102D3000C4F92068602102F082F8CEE7CA684968C9
:102D4000206802F0A9F920684021F4E722680146D2
:102D50001046F0E788FFFEFF2DE9F04104000D4624
:102D600003D094F83D0018B108E00120BDE8F081DF
:102D7000002084F83C00204600F046F8022084F849
:102D80003D00206881681F4A114081602068211D34
:102D900001F0D6FF206881688269066A2B68AF69F6
:102DA00026F0AA060B4340F203318A43A96842EA9F
:102DB0000722EF6911434FF6FC429143EA6841EA6A
:102DC00007212F6A0A432969090141EA07311143A2
:102DD0006A686D69836046EA05152A432068816147
:102DE00020680262012084F8480084F83E0084F8DC
:102DF0003F0084F8440084F8450084F83D0000203A
:102E0000B4E70000F8BFFEFF70B586B00446142199
:102E10006846FDF7B1FA6248022521680024614A3C
:102E2000012681423BD15F481430016841F0010125
:102E30000160006800F001000590106840F010008B
:102E400010601068694600F0100005904FF4206093
:102E50000090CDE901545448CDE90346FEF70CFE3D
:102E6000002205211820FEF797FF1820FEF786FFA5
:102E7000002205211920FEF78FFF1920FEF77EFFA3
:102E8000002205211A20FEF787FF1A20FEF776FFA1
:102E9000002205211B20FEF77FFF1B2059E0414B3C
:102EA00042481033B1F1804F22D0414EB14254D14B
:102EB000196841F002011960196801F002010591D9
:102EC000116841F001011160116801F001010591E3
:102ED000C0210091CDE90154CDE903456946FEF7D3
:102EE000CBFD002205211D20FEF756FF1D2030E0FE
:102EF000196841F001011960196801F0010105919B
:102F0000116841F001011160116801F001010591A2
:102F1000116841F002011160116801F00201059190
:102F200020210091CDE90154CDE903466946FEF721
:102F3000A3FD08200090CDE901541E486946CDE963
:102F40000346FEF799FD002205211C20FEF724FF11
:102F50001C20FEF713FF06B070BD174EB142FAD128
:102F6000196841F008011960196801F0080105911C
:102F7000116841F001011160116801F00101059132
:102F800003210091CDE90154CDE903456946FEF7DF
:102F900073FD002205213220FEF7FEFE3220D8E725
:102FA00000000140303802400010024000000240A2
:102FB0000004004000040240000C004070B590F88E
:102FC0003E50044690F83F3090F8442090F8450079
:102FD000022621B104290BD0012D16D10FE0012DBD
:102FE00013D1012A11D184F83E6084F8446016E0C0
:102FF000012B0AD1012808D184F83F600DE0012B94
:1030000003D1012A01D1012801D0012070BD84F82B
:103010003E6084F83F6084F8446084F8456091B174
:10302000042904D020680122002101F0F1FE20686B
:103030000122042101F0ECFE2068016841F0010149
:103040000160002070BD012220680021F2E7704776
:103050002DE9F04104460068C66805694FF0000795
:10306000A90713D5B10711D5F91E016101202077F9
:10307000206880698007204602D0FFF7E8FF04E05F
:1030800000F0E6F8204600F0A8F92777680716D583
:10309000700714D521686FF00400086102202077C2
:1030A0002068806910F4407F204602D0FFF7CFFFF0
:1030B00004E000F0CDF8204600F08FF927772807CC
:1030C00015D5300713D521686FF00800086104207A
:1030D00020772068C0698007204602D0FFF7B7FF3D
:1030E00004E000F0B5F8204600F077F92777E8060D
:1030F00016D5F00614D521686FF01000086108207D
:1031000020772068C06910F4407F204602D0FFF786
:103110009EFF04E000F09CF8204600F05EF927775F
:10312000E80708D0F00706D021686FF001000861B9
:10313000204600F0D3F9280601D4A80408D53006AB
:1031400006D521686FF4025008612046FFF7CDFBD9
:10315000E80508D5300606D521686FF4807008614F
:103160002046FFF7C1FB680608D5700606D5216822
:103170006FF040000861204600F0BAF9A8060AD5B1
:10318000B00608D521686FF0200008612046BDE830
:10319000F041FFF7ABBBBDE8F081000030B587B070
:1031A000044614216846FDF7E7F820680021214C09
:1031B0000223214AA04211D1106840F0080010609B
:1031C000106800F0080005904FF470400090CDE9C1
:1031D0000131CDE903131948694613E0184D032462
:1031E000A84213D1106840F004001060106800F08D
:1031F0000400059020020090CDE90131CDE90314CF
:1032000010486946FEF738FC07B030BD0E4DA842A5
:10321000FAD1106840F010001060106800F0100043
:10322000059060200090CDE90131CDE903140748F5
:103230006946E7E70008004030380240000C0240D1
:10324000000401400008024000400140001002401C
:10325000704770B5044690F83C0000260D460128E2
:103260000BD0012084F83C000C2A4AD007DC82B144
:10327000042A20D0082A06D131E0022070BD102A8D
:1032800053D0142A63D00126002084F83C00304635
:1032900070BD206801F0DCFD2068816941F0080103
:1032A00081612068816921F0040181612068816960
:1032B0002A69114311E0206801F0FEFD2068816950
:1032C00041F4006181612068816921F4806181613C
:1032D000206881692A6941EA02218161D4E7206876
:1032E00001F024FE2068C16941F00801C161206835
:1032F000C16921F00401C1612068C1692A691143D3
:1033000011E0206801F04AFE2068C16941F40061C3
:10331000C1612068C16921F48061C1612068C1690F
:103320002A6941EA0221C161AEE7206801F062FE2C
:103330002068416D41F0080141652068416D21F030
:10334000040141652068416D2A69114311E020683C
:1033500001F078FE2068416D41F40061416520680C
:10336000416D21F4806141652068416D2A6941EA1F
:103370000221416588E710B5040003D094F83D00B0
:1033800010B107E0012010BD002084F83C00204669
:1033900000F022F8022084F83D002068211D01F091
:1033A000CFFC012084F8480084F83E0084F83F00F8
:1033B00084F8400084F8410084F8420084F8430017
:1033C00084F8440084F8450084F8460084F84700F7
:1033D00084F83D00002010BD7047704710B50446CA
:1033E00069B104290ED008290FD00C2910D010295A
:1033F00011D094F84300012810D0012010BD94F89A
:103400003E00F8E794F83F00F5E794F84000F2E753
:1034100094F84100EFE794F84200ECE70220E9B3AA
:1034200004293FD0082940D00C2941D0102942D08E
:1034300084F843000122206801F0EAFC1F4920685B
:103440001F4A884201D0904203D1436C43F40043A9
:1034500043642068884213D0B0F1804F10D01949DE
:1034600088420DD0184988420AD01849884207D0AE
:10347000904205D01649884202D01649884207D1A9
:103480008168154A1140062906D0B1F5803F03D066
:10349000016841F001010160002010BDFFE784F8E0
:1034A0003E00C7E784F83F00C4E784F84000C1E766
:1034B00084F84100BEE784F84200BBE70000014009
:1034C000000401400004004000080040000C0040DF
:1034D0000040014000180040070001000068034957
:1034E000884201D1FEF7CEBB7047000000200040AB
:1034F0007047704770B50446C06FD4F8806021688B
:1035000089684FF01005090618D5212816D12068C2
:10351000083050E8001F21F0800140E80012002A26
:10352000F5D1206F38B1FEF7D5F820B1206FFEF746
:103530002CF9202821D0204601F0ACFF20688068BB
:10354000400618D5222E16D12068083050E8001FFA
:1035500021F0400140E80012002AF5D1606F38B137
:10356000FEF7B8F820B1606FFEF70FF9202804D0FD
:10357000204601F069FF002070BDC4F8845003208C
:1035800070BD70472DE9F04103680446D869196899
:103590009A6840F60F0528424FF000054FF00206EA
:1035A00005D182067ED58A067CD5A16E24E1DFF89E
:1035B00078C202F0010701EA0C0C57EA0C0C71D03A
:1035C0005FEAC07C0CD05FEAC15C09D54FF0010C0A
:1035D000C3F820C0D4F8843043F00103C4F8843029
:1035E000830709D5D30707D023681E62D4F8843037
:1035F00043F00403C4F8843043070AD5D20708D047
:10360000236804221A62D4F8842042F00202C4F82B
:10361000842002070CD501F020023A4308D0236829
:1036200008221A62D4F8842042F00802C4F88420E8
:1036300002050BD54A0109D523684FF400621A62CE
:10364000D4F8842042F02002C4F88420D4F88420E6
:10365000002A36D0800605D5880603D5A16E09B1AB
:1036600020468847D4F8840021688968490602D436
:1036700010F0280F27D0204601F0E6FE2068806871
:1036800040061BD52068083050E8001F21F040019B
:1036900040E80012002AF5D1606F78B163490165F6
:1036A000606F00E015E0FEF75EF8002809D0606F5B
:1036B000016D00E02046BDE8F04108472046FFF7D5
:1036C00060FFBDE8F0812046FFF75BFFC4F884503F
:1036D000F7E7276E2022012F7ED1C7067CD5CF06C3
:1036E0007AD51020186220688068400650D5636F34
:1036F000186840684FF480770004000C3CD0B4F8A0
:103700005810814238D9A4F85A00D869B8422BD051
:10371000206850E8001F21F4807140E80013002B5E
:10372000F6D12068083050E8001F21F0010140E880
:103730000013002BF5D12068083050E8001F21F05D
:10374000400140E80013002BF5D1C4F88020256625
:10375000206850E8001F21F0100140E80012002A04
:10376000F6D1606FFDF7B6FF6666B4F85800B4F89E
:103770005A10401A81B207E0B4F858108142A0D123
:10378000D869B8429DD166662046FFF7B2FE98E739
:10379000B4F85800B4F85A10401A81B2B4F85A007C
:1037A00000288ED000298CD0206850E8003F23F4F8
:1037B000907340E80037002FF6D12068083050E8B9
:1037C000003F23F0010340E80037002FF5D1C4F893
:1037D00080202566A56600E009E0206850E8002FFB
:1037E00022F0100240E80023002BF4D1CBE70306BF
:1037F00006D50B0604D5E16E00297FF45BAF60E7C8
:103800004006C4D54806C2D52046016851E8003FAD
:1038100023F0400341E80034002CF6D1C267C566AE
:1038200000F052FA4DE70000200100041153000897
:1038300010B5040002D0E06F10B107E0012010BD08
:10384000002084F87800204600F026F82420E06765
:103850002068016821F001010160606A10B1204612
:1038600001F0C4FC204601F021FE0128E7D02068C9
:10387000416821F4904141602068816821F02A016B
:1038800081602068016841F0010101602046BDE8C7
:10389000104001F00FBD00002DE9F04FA7B0044625
:1038A000142121A8FCF768FD84216846FCF764FD1B
:1038B000BE4D0227BC4903262068103DDFF8EC927C
:1038C0004FF4806B88424FF0080A4FF000083FD158
:1038D0006846CDF800B0CDF85480FEF7C5FA08B1BF
:1038E000FDF776FDD9F8001041F48011C9F80010F9
:1038F000D9F8000000F480102690286840F00400F9
:103900002860286800F004002690286840F008002D
:103910002860286821A9544600F0080026904FF43A
:10392000805081E88101A248CDE9246AFEF7A4F81D
:1039300021A9042081E881019E48CDE92464FEF795
:103940009BF8002205213520FEF726FA352048E0B5
:10395000994988424AD18014CDF85C80009068462D
:10396000FEF782FA08B1FDF733FDD9F8001041F0F7
:103970008041C9F80010D9F8000000F0804026907E
:10398000286840F010002860286821A900F0100085
:1039900026904FF4C070CDE92107CDF894A047469A
:1039A0008648CDE92386FEF767F8864D844828606F
:1039B0004FF02060C5E90107C5E9037B6F61284628
:1039C000AF61EF612F626F62FDF7B2FF08B1FDF7E3
:1039D000FFFC656700220521AC635220FEF7DCF98D
:1039E0005220FEF7CBF927B0BDE8F08F7649884228
:1039F0002BD14014CDF8608000906846FEF734FA71
:103A000008B1FDF7E5FCD9F8001041F00041C9F814
:103A10000010D9F8000000F000402690286840F01F
:103A200010002860286821A900F0100081E8C0017A
:103A30002496CDE925A06148FEF71EF80022052155
:103A40005320FEF7A9F95320CBE760494FF0070A4E
:103A500088422CD14020CDF8448000906846FEF783
:103A600003FA08B1FDF7B4FC5048001D016841F0AD
:103A700010010160006800F010002690286840F0F6
:103A800001002860286821A900F0010026904FF469
:103A9000C06081E881014E48CDE9246AFDF7ECFF62
:103AA000002205212520FEF777F9252099E74949CD
:103AB00088422CD18020CDF8488000906846FEF7DF
:103AC000D3F908B1FDF784FCD9F8001041F40031B6
:103AD000C9F80010D9F8000000F4003026902868DA
:103AE00040F001002860286821A900F0010026901C
:103AF0000C2081E881013648CDE9246AFDF7BCFF3E
:103B0000002205212620FEF747F9262069E73249E1
:103B100088427FF468AF8015CDF84C8000906846ED
:103B2000FEF7A2F908B1FDF753FCD9F8001041F4F3
:103B30008021C9F80010D9F8000000F480202690F8
:103B4000286840F002002860286821A900F00200DF
:103B500026904FF44060CDE92107CDF894A0474668
:103B60001E48CDE92386FDF787FF164D14486035C2
:103B7000303828604FF00060C5E90107C5E9037BD4
:103B80006F612846AF61EF612F626F62FDF7D0FE73
:103B900008B1FDF71DFC656700220521AC632720F5
:103BA000FEF7FAF827201CE700500040403802409A
:103BB00000080240000C0240007800400010024063
:103BC00058600240C8130020007C004000100140F3
:103BD0000000024000440040004800400004024051
:103BE00030B4D0F88030202B02D0022030BC704797
:103BF00091B18AB10023036603685B681B0208D594
:103C0000036853E8004F44F0806443E80045002D0A
:103C1000F6D130BC01F064BD0120E7E77047704782
:103C20002DE9F8430446C06F1F4615460E4620286E
:103C300002D00220BDE8F8839EB195B10020C4F8FF
:103C400084002120E067FEF717F8A4F85050814661
:103C5000A4F852504FF02008A068B0F5805F02D061
:103C600003E00120E6E7206910B13546002610E0A8
:103C700000250EE08021204601F082FDB8B9D5B1C3
:103C800015F8010B21688862B4F85200401EA4F8B0
:103C90005200B4F852004B464FF000020097002843
:103CA000E8D14FF04001204601F06AFD40B1C4F870
:103CB0007C800320BEE736F8020BC0F30800E1E782
:103CC000C4F87C800020B5E77047FEE7F0B52DED25
:103CD000028B83B09FED538A00254FF0010C8DEDD0
:103CE000018A2C462B468DF8085012E007880CFA02
:103CF00003FE17EA0E0F0AD00788641CE4B203F132
:103D0000010E0CFA0EF6374201D16D1CEDB25B1CB0
:103D1000DBB28B42EAD345720472434B1E78434DAB
:103D2000E6B11B78012B04D0022B08D0032B1FD146
:103D30000BE002AB009301AB04F08CFF18E002AB88
:103D4000009301AB05F03CF812E002AB009301AB2D
:103D500004F002FF0CE085ED018A1FE0344B1B6A82
:103D60001E05E6D4DE04EAD4DE011CD58DED018A01
:103D70009DF908000528EEDCECB39DF90800D0B3EE
:103D800000EE100ADDED010AB8EEC00A80EE801ADE
:103D90008DED011A9DED010A85ED010A03B00020A9
:103DA000BDEC028BF0BD1B0302D504F089FFF3E7E5
:103DB0001E4ED3B2403E8F1A24E0B0F800C0CA1A9B
:103DC000521E9DF808E02CFA02FC0CF0010CF444A1
:103DD0008DF808C0B0F800C02CFA02FC0CF001020B
:103DE00000EE102A06EB8302F8EE400A92ED001A6C
:103DF0009DED010A00E012E000EE810A5B1CDBB2DF
:103E00008DED010A9F42D8DC017A0429A3D29DF9E5
:103E1000081004299FDA407A01289CD8ACE78DED80
:103E2000018AB7E700000000640D002014EB0020B9
:103E300020E800200D4808B5016841F40011016038
:103E400000680022052100F4001000900C20FDF70E
:103E5000A3FF0C20FDF792FF002205210E20FDF7A5
:103E60009BFFBDE808400E20FDF788BF30380240B8
:103E7000044A0021044810B503F056FF03490860C6
:103E800010BD00002CA400083D4B000800000020DD
:103E90002DE9F04186B014216846FCF76DFA3848E8
:103EA000016841F010010160016801F01001059105
:103EB000016841F080010160016801F08001059115
:103EC000016841F001010160016801F00101059103
:103ED000016841F004010160016801F004010591ED
:103EE000016841F002010160016801F002010591E1
:103EF000016841F00801016000680022214F102193
:103F000000F0080005903846FDF7B1FEDFF8788034
:103F10004FF4C056002231464046FDF7A8FE00246B
:103F200069461020009001253846CDE901540394DC
:103F3000FDF7A2FD43F2F6106946CDE900041348EF
:103F40000294FDF799FD40F6FB706946CDE9000447
:103F50000F480294FDF790FD28026946CDE9000460
:103F600040460294FDF788FD00966946CDE901546C
:103F700040460394FDF780FD06B0BDE8F0810000E7
:103F800030380240000802400000024000040240B5
:103F9000000C02400C4845F25F420A4910B501602E
:103FA00042F20F7141600021C0E9021201618021DB
:103FB0008161FEF735FD002803D0BDE81040FDF714
:103FC00007BA10BD004801404C10002010B58CB05D
:103FD00024216846FCF7D0F91848002416490994B2
:103FE0000A940B94C0E900144FF6FF71C0E9024136
:103FF00080210461C0E9054103200494CDE9000457
:1040000001206946CDE90204CDE905400B4807943B
:104010000894FEF7A1FE08B1FDF7DAF9074809A9EF
:1040200009940A940B94FEF7A9FC002801D0FDF72F
:10403000CFF90CB010BD000000000140380E002088
:1040400010B58CB024216846FCF796F91648002478
:104050004FF0804109940A940B94C0E900144FF684
:10406000FF71C0E902418021046181610320CDE933
:10407000000401200494CDE902046946CDE905401D
:10408000094807940894FEF767FE08B1FDF7A0F908
:10409000054809A909940B94FEF770FC002801D08B
:1040A000FDF796F90CB010BD840E002010B58CB051
:1040B00024216846FCF760F9174800241549099443
:1040C0000A940B94C0E900144FF6FF71C0E9024155
:1040D0008021046181610320CDE900040120049462
:1040E000CDE902046946CDE905400B4807940894E0
:1040F000FEF732FE08B1FDF76BF9074809A90994EC
:104100000B94FEF73BFC002801D0FDF761F90CB0E1
:1041100010BD000000040040D00E002010B58EB08D
:10412000002468461C210794089409940A940B946F
:104130000C940D94FCF720F92A482949C0E9001491
:1041400042F62F21C0E90241046180218161FEF71E
:1041500067FC08B1FDF73CF94FF480500790214807
:1041600007A9FEF789FD08B1FDF732F91D48FFF7F1
:1041700002F908B1FDF72CF91A480BA90B940D941C
:10418000FEF7FCFB08B1FDF723F960206946CDE995
:1041900000041448002202940494FFF75AF808B16E
:1041A000FDF716F90F4804226946FFF752F808B1E7
:1041B000FDF70EF90B4808226946FFF74AF808B1E7
:1041C000FDF706F907480C226946FFF742F808B1E7
:1041D000FDF7FEF80348FEF7E1FF0EB010BD00004A
:1041E000000800401C0F002010B58CB02421684648
:1041F000FCF7C2F817480024154909940A940B9457
:10420000C0E900144FF6FF71C0E90241802104614A
:1042100081610320CDE9000401200494CDE902046A
:104220006946CDE905400B4807940894FEF794FDD4
:1042300008B1FDF7CDF8074809A909940B94FEF7DA
:104240009DFB002801D0FDF7C3F80CB010BD0000A5
:10425000000C0040680F002010B59AB000241C210B
:1042600017940BA8189415941694129413941494FC
:10427000FCF782F82C216846FCF77EF82F482E497F
:10428000C0E9001442F62F21C0E9024180210461F7
:10429000C0E90541FEF7C4FB08B1FDF799F84FF4FA
:1042A00080501590254815A9FEF7E6FC08B1FDF7EA
:1042B0008FF82248FFF75FF808B1FDF789F81F482B
:1042C00012A9129413941494FEF758FB08B1FDF749
:1042D0007FF86020CDE90B04184808220BA90D9443
:1042E0000E940F9410941194FEF7B3FF08B1FDF7EC
:1042F0006FF812480C220BA9FEF7ABFF08B1FDF7CF
:1043000067F84FF400500094019469460294CDE997
:104310000440000303940694CDE90740074809943C
:104320000A94FEF7E5FA08B1FDF752F80348FEF7E4
:1043300035FF1AB010BD000000040140B40F00208A
:1043400010B58CB0002468461C2107940894099489
:104350000A94FCF711F81E481C49C0E9001442F603
:104360002F21C0E90241046180218161FEF758FBE1
:1043700008B1FDF72DF84FF480500790144807A9B5
:10438000FEF77AFC08B1FDF723F81148FEF7F3FFBA
:1043900008B1FDF71DF860206946CDE900040C481E
:1043A000002202940494FEF754FF08B1FDF710F8C0
:1043B000074804226946FEF74CFF08B1FDF708F8EC
:1043C0000348FEF7EBFE0CB010BD000000400140BA
:1043D000001000200D480C220B4910B501604FF46D
:1043E000E131416000218160C160C0E90412816156
:1043F000C16101624162FFF71BFA002803D0BDE8EA
:104400001040FCF7E5BF10BD0050004098100020A0
:104410000D480C220B4910B501604FF4E1314160A9
:1044200000218160C160C0E904128161C161016243
:104430004162FFF7FDF9002803D0BDE81040FCF70A
:10444000C7BF10BD00780040201100200D480C228D
:104450000B4910B501604FF4E131416000218160EA
:10446000C160C0E904128161C16101624162FFF76C
:10447000DFF9002803D0BDE81040FCF7A9BF10BD4C
:10448000007C0040A81100200D480C220B4910B5FB
:1044900001604FF4E131416000218160C160C0E9F9
:1044A00004128161C16101624162FFF7C1F9002814
:1044B00003D0BDE81040FCF78BBF10BD00100140D9
:1044C000301200200D480C220B4910B501604FF44A
:1044D000E131416000218160C160C0E90412816165
:1044E000C16101624162FFF7A3F9002803D0BDE872
:1044F0001040FCF76DBF10BD00440040B812002012
:104500000D480C220B4910B501604FF41651416063
:1045100000218160C160C0E904128161C161016252
:104520004162FFF785F9002803D0BDE81040FCF791
:104530004FBF10BD0048004040130020FEE7FEE7DB
:104540002DE9F0470024804604202DED088BF0EE85
:1045500063BAF0EE438AB0EE629AF0EE429AB0EEA1
:1045600061AAF0EE41AAB0EE60BAB0EE408AFCF764
:10457000BFFD314F97F87400002859D12F4D304EB0
:10458000DFF8C09085ED038A86ED01BA99ED028AC5
:10459000F5EEC0BAF1EE10FA08DDF0EE6B0AB0EEFF
:1045A0004B0A02F0E3FD86ED010A01E086ED01BA57
:1045B000B8F1000F05D0E4B1012C23D0022C2FD18B
:1045C00029E024B1012C08D0022C29D10BE0B4EE53
:1045D000EA8AF1EE10FA11DA22E0B4EEE98AF1EE9D
:1045E00010FA14DA1CE0B4EEE88AF1EE10FA1FD9E2
:1045F00016E0B4EEEA8AF1EE10FA11D8012485ED46
:1046000003AA0DE0B4EEE98AF1EE10FA08D802240C
:1046100085ED039A04E0B4EEE88AF1EE10FA07DAC9
:1046200097F87400002803D1052004F079FFADE766
:10463000BDEC088BBDE8F087A8E70020080E00203D
:10464000E80D0020C0EA00202DE9F04700242DED00
:10465000048B82B0DFED9F9A9F4FCDED009AF3EE71
:10466000048AB3EE098A387FB0EE689A012806D131
:104670000320B0EE688AB2EE049A02F0D3FD022065
:10468000B0EE691AF0EE480AB0EE480AFCF776FC84
:10469000FCF7D2FBDFF844A24FF48078904D914EA6
:1046A000DFF84492B1EE048A34B1012C47D0022CD9
:1046B0007ED0032C7DD19CE032206946FCF7E8FFD8
:1046C000B0EE490A00F014F9002823D09DED000A4D
:1046D000B5EEC00AF1EE10FA03D102F0B5FB8DED94
:1046E000000A387F95ED000A012814D030EE081A30
:1046F00030EE282A0020F0EE693AB0EE413AF2EEB0
:10470000082AF2EE081ADDED000AB3EE090AFFF7F7
:1047100017FF0124CFE070EE080A70EE281A00207F
:10472000B2EE082AF0EE602AB2EE081AB3EE090AD9
:1047300004F060FC02F088FB8DED000AE9E704203C
:104740009DED001AF2EE080AB2EE080AFCF716FC1C
:10475000544602E0052004F0E3FE41462046FDF702
:1047600081FA0028F6D002E0052004F0D9FE414687
:104770002046FDF777FA0028F6D1FCF73FFB6420CE
:1047800004F0CEFED7ED090A96ED000A03F008FA10
:1047900002F05AFB8DED000AB0EE401A0420F2EE52
:1047A000080AB2EE040AFCF767FBFCF727FB01E0FE
:1047B00013E07FE0642004F0B3FE04209DED001AB6
:1047C000FAEE080AB1EE080AFCF756FBFCF716FBF6
:1047D000C82004F0A5FE02246DE0FCF70FFB642066
:1047E00004F09EFEFCF7BAFC642004F099FE03245A
:1047F00061E0387F01280BD002F026FBB0EE401AB2
:104800000420F2EE080AB2EE0E0AFCF735FB1EE0B9
:104810000420FCF76DFCB2EE080A89ED030A02F0F1
:1048200013FB324880ED010A02E0052004F078FE17
:10483000D5ED000A96ED020A70EEC80AB4EEE00A61
:10484000F1EE10FAF1DC0DE0052004F069FED5ED83
:10485000000A96ED020A70EEC80AB4EEE00AF1EE24
:1048600010FAF1DC02F062FA032002F0DBFCB3EE96
:10487000040AFCF74FFC0220FCF73AFC02E005209A
:1048800004F04EFED5ED000A96ED020A70EEC80A5D
:10489000B4EEE00AF1EE10FAF1D302F047FA032089
:1048A00002F0C0FCB6EE000A89ED080AB3EE0E0A6B
:1048B000FCF730FC0424052004F032FE042C7FF4C5
:1048C000F3AE0021084601F033FD02B0BDEC048BCD
:1048D000BDE8F0870000000020E80020000C024046
:1048E000540D0020C0EA0020080E0020E80D002032
:1048F00010B52DED028BB0EE408A02F077FB134825
:1049000000221449D0ED020A114890ED001A70EE11
:10491000C10AF0EEE00AF4EEC80AF1EE10FA06DC85
:104920000D48437A032B02D3007A05280AD208786F
:10493000401CC0B20870052805D301200A70BDECE8
:10494000028B10BD0A700020F9E70000C0EA0020C9
:10495000540D00209800002014EB002010B54849A9
:104960001C222DED028B8EB06846FBF7DEFC45491C
:104970001C2207A8FBF7D9FC9FED430A404880EDB5
:10498000000A9FED420A80ED010A9FED410A80ED89
:10499000020ADFED408A0220F2EE080AB0EE681A41
:1049A000B2EE080AFCF7EAFAFCF746FA3A4CBFEE18
:1049B000008A10E002F01AFB2088C0F3C11003281F
:1049C00006D1207A052803D202F03EFAB0EE408AE2
:1049D000052004F0A5FD207A0828EBD318EE100A74
:1049E00010F1814F03D102F02FFAB0EE408A2B482C
:1049F000F1EE040AF0EE683A90ED000A0020F2EEC3
:104A0000082A30EE201AF3EE040AF2EE081A30EE0D
:104A1000202AB0EE413AF0EE480AB3EE090AFFF759
:104A20008FFD0420B0EE481AF2EE080A9FED1C0A32
:104A3000FCF722FAFCF7E2F9C82004F071FD02F05D
:104A400003FAB0EE408A02F0FFF9DFED160A30EE0D
:104A5000200AF0EE480AFCF7C5FB09481C2269460B
:104A6000FBF763FC07481C2207A9FBF75EFC01214A
:104A7000084601F05DFC0EB0BDEC028B10BD0000DD
:104A80005CE90020B0E9002000000C426F12833B7B
:104A9000000096430000000014EB0020540D00209D
:104AA000000096420000344310B52DED048BB0EEAB
:104AB000409A02F0C9F91D4CDFED1D8AB0EE408A24
:104AC0002078F8B1F0EE480A94ED010A03F0A4F85A
:104AD00084ED018AD4ED020AB0EEC00A30EE200A5D
:104AE00084ED020A1349A068884212DB002020707E
:104AF000C4ED018AC4ED028A04F02EFB0120BDEC56
:104B0000048B10BD0120207084ED018AC4ED028A5F
:104B1000E8E70120B0EE490A04F032FBF7EE000AA4
:104B20009FED050A04F0CAFA0020E8E7F40D002022
:104B300000000000000004439A99993F012003F00F
:104B4000A1F8FBE710B504F00BFC02F02BFC02F01F
:104B500017FF04F029FCBDE81040002004F056BD0A
:104B600008B50448202304A10090DA00054801F0AC
:104B70001EFD08BDD80D002053746172745F74610E
:104B8000736B0000454B0008502010B572B680F3DF
:104B90001188BFF34F8FBFF36F8F62B605F09EF998
:104BA00018B104494FF080500860002080F311884C
:104BB00010BD000004ED00E010B592B03021684651
:104BC000FBF7DAFB14210CA8FBF7D6FB1F480168A2
:104BD00041F080510160006800F0805011901C4845
:104BE000016841F4404101600068022400F4404043
:104BF000119001200090000401908001CDE9064051
:104C000004200890D820CDE9090468460B94FDF7EC
:104C1000B5FC08B172B6FEE7FDF7F0F808B172B660
:104C2000FEE70F20CDE90C0400200E904FF4A050B9
:104C30000F904FF48050109007210CA8FDF790FBC7
:104C4000002801D072B6FEE712B010BD4038024015
:104C5000007000400248016841F470010160704733
:104C600088ED00E0044810B5FEF7F2F9BDE8104009
:104C70000248FEF7EDB90000380E002000100020B9
:104C80000148FEF7E5B90000380E0020044810B5D1
:104C9000FEF7DEF9BDE810400248FEF7D9B9000082
:104CA000380E00204C1000200148FEF7D1B900005A
:104CB000380E00200148FEF7CBB90000840E00201A
:104CC0000148FEF7C5B90000D00E00200148FEF7EC
:104CD000BFB900001C0F00200148FEF7B9B9000061
:104CE000680F002005480068C168C943C90701D1A1
:104CF000891E01610148FEF7ABB900007CEB002082
:104D00000148FEF7A5B90000B40F00200148FEF7E6
:104D10009FB90000B40F0020044810B5FEF798F9C1
:104D2000BDE810400248FEF793B90000B40F002020
:104D3000881400200148FEF78BB90000B40F002052
:104D4000F0B502684FF0804E264D274E274FA842FF
:104D5000DFF89CC0274B09D0704507D0B04205D082
:104D6000B84203D0604501D0984203D122F07004CC
:104D70004A682243A8421BD0704519D0B04217D0D0
:104D8000B84215D0604513D0984211D01A4CA042B9
:104D90000ED01A4CA0420BD0194CA04208D0194C8E
:104DA000A04205D0184CA04202D0184CA04203D11A
:104DB00022F44074CA6822434C6922F080022243E4
:104DC0008C68C4620C688462A84201D0984201D108
:104DD00009690163016841F0040101600121416139
:104DE0000260F0BD000001400004004000080040E7
:104DF000000C00400004014000400140004401401C
:104E00000048014000180040001C00400020004005
:104E1000012301F01F0110B5046A8B409C4304621A
:104E2000036A8A401343036210BD10B5846842EAE6
:104E300003220A4324F47F442243826010BD826827
:104E400022F070020A4342F00701816070470000BF
:104E5000F0B5056A026A22F00102026242688369C3
:104E600025F00205114C124E23400C6823F0030379
:104E7000104F1C438B682B43B04201D0B84205D180
:104E8000CD6823F008031D4325F00403B04201D090
:104E9000B84205D14D6922F4407215438A692A430C
:104EA00042608461496841630362F0BD8FFFFEFF89
:104EB0000000014000040140F0B5056A026A22F0DA
:104EC0001002026242688369154C174E23400C6839
:104ED00023F4407343EA042425F020038D6843EA59
:104EE0000513104DA84201D0B04206D1CF6823F07F
:104EF000800343EA071323F04003A84201D0B042E5
:104F000007D14D6922F4406242EA85028D6942EA86
:104F1000850242608461496881630362F0BD0000DC
:104F2000FF8FFFFE0000014000040140F0B5056A5C
:104F3000026A22F4807202624268C369144C164EFF
:104F400023400C6823F003031C4325F400738D6891
:104F500043EA05230F4DA84201D0B04206D1CF68E5
:104F600023F4006343EA072323F48063A84201D0BB
:104F7000B04207D14D6922F4405242EA05128D69D0
:104F800042EA05124260C4614968C1630362F0BD30
:104F90008FFFFEFF000001400004014030B5046AAD
:104FA000026A22F4805202624268C36924F4005407
:104FB0000D4D2B400D6823F4407343EA05238D68A3
:104FC00044EA0534094DA84202D0094DA84204D153
:104FD0004D6922F4804242EA85124260C361496809
:104FE0000164046230BD0000FF8FFFFE000001403D
:104FF0000004014030B5056A026A22F48032026280
:105000004268436D0C4C23400C681C4325F400336C
:105010000D8943EA0543094DA84202D0084DA84234
:1050200004D14D6922F4803242EA0522426044658F
:1050300049688165036230BD8FFFFEFF00000140BB
:105040000004014030B5046A026A22F48012026250
:105050004268436D24F400140C4D2B400D6843EA64
:1050600005230D8944EA0554094DA84202D0094D93
:10507000A84204D14D6922F4802242EA852242608E
:1050800043654968C165046230BD0000FF8FFFFEC3
:10509000000001400004014010B5046A036A23F0D7
:1050A00001030362836923F0F00343EA021383617F
:1050B00024F00A020A43026210BD10B5036A046AB2
:1050C00024F010040462846923F0A00343EA011170
:1050D00024F4704444EA02328261016210BD00008F
:1050E00010B5214C2DED028B60789FED208A10B118
:1050F000B0EE480A0AE01E4890ED000AFBF78EFE6B
:10510000D4ED030A30EE600AFBF788FEDFED190AE2
:1051100019481A4C30EEC00AF7EE000A10EE101AC9
:1051200080ED020AC0ED060AB1F1804F0DDA144994
:1051300084ED018A84ED008A80ED048A80ED008A86
:1051400000200870BDEC028B10BD0E490A4802F029
:105150002BFFD4ED040A01F01BFA84ED000AB1EE36
:10516000400A84ED010AEDE7F40D00200000000084
:10517000C0EA00200000B44304EA0020080E00202A
:10518000B30D002094E9002010B500202DED028B16
:10519000F7EE008AB0EE008A03F0F2FFB0EEC00A2C
:1051A000B4EEC80AF1EE10FA05D203F0D5FF0120E3
:1051B000BDEC028B10BDF0EE480AB0EE680A03F0B9
:1051C0007DFF0020F4E700000148FEF7DBB9000096
:1051D000981000200148FEF7D5B9000020110020EA
:1051E0000148FEF7CFB90000A811002090F8241064
:1051F000090706D501684A68436B22F400421A4346
:105200004A6090F82410C90706D001684A68836A8A
:1052100022F400321A434A6090F82410890706D518
:1052200001684A68C36A22F480321A434A6090F8DF
:105230002410490706D501684A68036B22F48022CE
:105240001A434A6090F82410C90606D501688A6896
:10525000836B22F480521A438A6090F824108906E6
:1052600006D501688A68C36B22F400521A438A602B
:1052700090F82410490611D501684A68036C22F49D
:1052800080121A434A60016CB1F5801F06D1016893
:105290004A68436C22F4C0021A434A6090F8241012
:1052A000090606D501684A68806C22F40022024390
:1052B0004A607047F8B500250446C0F88450FCF7F2
:1052C000DBFC0346206800684FF02006000716D577
:1052D0006FF07E40009000222046310400F050FA2A
:1052E00068B1206850E8001F21F0800140E80012FA
:1052F000002AF6D1E667032084F87850F8BDE66707
:10530000C4F8806025666566002084F87850F8BD92
:1053100010B5806B0021A0F85A10FEF732F910BDCD
:1053200070B5846BE06FD4F88050216889684FF0C5
:105330000006090606D5212804D1A4F852602046AB
:1053400000F0A8F820688068400606D5222D04D118
:10535000A4F85A60204600F077F8D4F8840040F0B2
:105360001000C4F884002046FEF70BF970BD034618
:1053700070B5D9690024806BB1F5807F2DD0A0F87D
:105380005A40016851E8002F22F4807241E800255C
:10539000002DF6D10168083151E8002F22F00102FA
:1053A00041E80025002DF5D10168083151E8002FB2
:1053B00022F0400241E80025002DF5D12021C0F85F
:1053C0008010016E012908D1016851E8002F22F0F8
:1053D000100241E80025002DF6D14466016E012936
:1053E00002D0FEF71BFC70BDA0F85A40196849684E
:1053F000B0F8582089B28A4201D9A0F85A10B0F802
:105400005A10511A89B2FEF774F870BD10B50246F1
:10541000806B01214166016E012902D0FEF7FFFB7E
:1054200010BDB0F858104B08A0F85A3012685268F6
:1054300092B2914201D3A0F85A20B0F85A20891AAA
:1054400089B2FEF756F810BD016851E8002F22F42A
:10545000907241E80023002BF6D10168083151E831
:10546000002F22F0010241E80023002BF5D1016E4C
:10547000012908D1016851E8002F22F0100241E80B
:105480000023002BF6D12021C0F8801000210166F6
:1054900081667047016851E8002F22F0C00241E8A0
:1054A0000023002BF6D12021C167704770B5044658
:1054B000816800690025E269014360691043014386
:1054C000206802687B4B1A400A43026020684168EA
:1054D000E26821F4405111434160216AA06901430F
:1054E0002068826822F430620A438260724B4FF473
:1054F00000422068714998420AD1086810F0030000
:1055000052D001287CD002287BD003286ED187E0BE
:105510006B4B98420AD1086810F00C007AD004282E
:105520007CD0082878D00C2860D179E0654B98426F
:105530000AD1086810F030006CD010286ED02028F6
:105540006AD0302852D16BE05F4B98420AD108688C
:1055500010F0C0005ED0402860D080285CD0C02809
:1055600044D15DE0594B98420DD1086810F4407069
:1055700050D0B0F5807F51D0B0F5007F4CD0B0F561
:10558000407F33D14CE0524B98420FD1086810F461
:10559000406009D0B0F5806F40D0B0F5006F3BD0CF
:1055A000B0F5406F22D13BE0012120E0494B984209
:1055B0000DD1086810F440502CD0B0F5805F2DD08C
:1055C000B0F5005F28D0B0F5405F0FD128E0424B26
:1055D00098420BD1086810F440401BD0B0F5804FC2
:1055E0001CD0904218D0B0F5404F19D01021E3697B
:1055F0003A484FF6EF76934233D109294CD202E074
:105600000CE009E006E0DFE801F00D10154729473E
:10561000474716000021EAE70221E8E70421E6E710
:105620000821E4E7FCF75AFF01E0FCF767FF0200FE
:1056300001D139E002466068510001EB5001B1FB35
:10564000F0F0A0F11001B14226D84FF6F071014000
:10565000C0F3420001432068C16025E0FCF75EFF13
:10566000E5E7092918D2DFE801F005080D17191739
:1056700017170E00FCF732FF01E0FCF73FFF0200B6
:1056800001D111E00246606802EB5001B1FBF0F07D
:10569000A0F11001B14204D9012505E0FCF73EFF5D
:1056A000EDE7216880B2C8600020A066E066284669
:1056B00070BD0000F369FFEF001001409038024018
:1056C0000044004000480040004C004000500040B2
:1056D0000014014000780040007C00400024F400E9
:1056E00070B541650021A0F858200446C0F8841028
:1056F0002220C4F88000606FD8B11E4BC363636F73
:105700001D481864636F1D48D8641346606F0165B7
:10571000606D656F2168024628462431FCF770F9F8
:1057200038B11020C4F884002020C4F88000012083
:1057300070BD206940B1206850E8001F41F48071BD
:1057400040E80012002AF6D12068083050E8001F17
:1057500041F0010140E80012002AF5D1206808302C
:1057600050E8001F41F0400140E80012002AF5D146
:10577000002070BD6F5300080D540008215300082D
:105780002DE9F0471F4690460D460446089E4FF00F
:10579000000932E0701C30D0FCF76EFAC01BB0423A
:1057A00018D8BEB120680168490726D5802D24D0BD
:1057B000402D22D0C169C94309070DD408250562CF
:1057C0002046FFF741FEC4F88450012084F8789009
:1057D000BDE8F0870320FBE7C069C04300050CD497
:1057E00021684FF4006008622046FFF72DFE20205C
:1057F000C4F8840084F87890ECE72068C06935EA42
:10580000000004D000204045C4D00020E0E7012083
:10581000F9E700000148FDF7B5BE00003012002096
:105820000148FDF7AFBE0000B81200203E4870B539
:105830000068C169C1F3001100296BD01021016219
:105840003948FDF757FE394800684068384CC0F1C8
:105850008400C0B22128207056D3364A10785528CB
:1058600052D1507851284FD1907D55284CD1D07DC0
:10587000532849D100211620135C401C20281944CC
:10588000C9B2F9DB92F8200088423DD1108BDFEDE0
:105890002A0A00B2274D404200EE100A9FED271A57
:1058A0008435B8EEC00A20EE200A20EE010A85ED0C
:1058B000020A508B00B201EE900AF8EEE11A61EE96
:1058C000A01A61EE811AC5ED011A908B00B201EEAB
:1058D000900A1B48F8EEE11A61EEA00A60EE810A18
:1058E000C5ED000A007878B101F03AFA85ED020AB8
:1058F00095ED010A01F034FA85ED010A95ED000AF3
:1059000001F02EFA85ED000A21780A48FAF734FDF5
:1059100000202070074984220348FEF761F9BDE8A2
:1059200070400148FDF72EBE4013002028140020CF
:10593000600D00203CEA00200000003800003443E5
:10594000450D0020FEE700000FB47CB50C0009AD4A
:1059500001D0611E00E00021CDE90001064B6A463E
:105960002946089800F0ECF8002C02D0009A00219B
:1059700011707CBC5DF814FB476200080907090E32
:10598000002804DB00F1E02080F80014704700F0EC
:105990000F0000F1E02080F8141D704702E008C8F5
:1059A000121F08C1002AFAD170477047002001E099
:1059B00001C1121F002AFBD1704700002DE9FF5FD3
:1059C00082B00021DDE90430020DDDF840B0034370
:1059D00018D044F61050A2F2FF3242431514119829
:1059E00001281FD0A5EB0B00401C5FEA000A4FF016
:1059F00000064E4FDFF83891B046504615D5CAF133
:105A0000000413E0119801244AA3012801D16FEA90
:105A10000B010298119AC0E90031C0E9024206B0B8
:105A2000BDE8F09FCBF10000DFE704460021404ACB
:105A3000491842EB0450CDE9001012E0E00707D00E
:105A400032463B4640464946FAF7A8FC804689461E
:105A500032463B4610461946FAF7A0FC06460F466A
:105A60006410002CEAD1DDE90401DDE90023BAF17C
:105A7000000F06DAFAF792FC42464B46FAF78EFC24
:105A800005E0FAF749FE42464B46FAF745FE044662
:105A90000E460022284BFAF7C7FE03D84FF0FF301E
:105AA000014607E00022254B20463146FAF78DFDDE
:105AB000FAF7A1FE102409E0002C0ADB0A220023D9
:105AC000FAF702FC039B30321A55641E50EA0102B9
:105AD000F2D1641C039AC4F111031444119A012AEF
