:020000040800F2
:1000000028F10020A5020008474A0008C73D000863
:10001000454A0008F90C000881640008000000004F
:10002000000000000000000000000000E1010008E6
:10003000E1120008000000003D020008A95100087C
:10004000BF020008BF020008BF020008BF0200088C
:10005000BF020008BF020008BF020008BF0200087C
:10006000BF020008BF020008BF020008BF0200086C
:1000700031120008BF020008BF020008BF020008DA
:10008000BF020008BF020008BF020008BF0200084C
:10009000BF020008BF020008BF020008BF0200083C
:1000A00085520008C9520008AD520008A15200084C
:1000B000D5520008E1520008ED520008BF020008C6
:1000C000BF020008BF020008BF020008BF0200080C
:1000D000BF020008516300085D63000869630008FF
:1000E000BF020008BF020008BF0200082153000839
:1000F00055530008395300082D530008BF0200086B
:10010000BF020008BF020008F9520008BF02000841
:10011000355A0008415A0008BF020008055300087C
:10012000BF020008BF020008BF020008BF020008AB
:10013000BF020008BF020008BF020008BF0200089B
:10014000BF020008BF020008BF020008BF0200088B
:10015000BF020008BF020008BF020008BF0200087B
:10016000BF020008BF020008BF020008BF0200086B
:10017000BF020008BF020008BF020008BF0200085B
:10018000BF020008BF020008BF0200084D5A000865
:10019000BF020008BF020008BF020008BF0200083B
:1001A000BF020008BF020008BF020008BF0200082B
:1001B000BF020008BF020008BF020008BF0200081B
:1001C000BF020008BF020008DFF810D000F006F9F7
:1001D00000480047A9900008AFF3008028F10020F4
:1001E0002D4B19680868B0E8F04F80F30988BFF319
:1001F0006F8F4FF0000080F31188704700000000FF
:1002000008480068006880F308884FF0000080F319
:10021000148862B661B6BFF34F8FBFF36F8F00DFF4
:1002200000BF00BF08ED00E0DFF80C00016841F4FA
:1002300070010160704700BF88ED00E0EFF30980B6
:10024000BFF36F8F144B1A681EF0100F08BF20ED1C
:10025000108A20E9F04F106009B44FF0500072B6D8
:1002600080F31188BFF34F8FBFF36F8F62B60BF02F
:1002700017FD4FF0000080F3118809BC1968086869
:10028000B0E8F04F1EF0100F08BFB0EC108A80F3FA
:100290000988BFF36F8F704714000020EFF30580CB
:1002A000704700000648804706480047FEE7FEE723
:1002B000FEE7FEE7FEE7FEE7FEE7FEE7FEE7FEE716
:1002C00075520008C90100082DE9F05F05460020BD
:1002D00092469B4688460646814640241BE02846B7
:1002E00041464746224600F068F853465A46C01A2F
:1002F000914110D311461846224600F04FF82D1AAE
:1003000067EB01084F4622460120002100F046F825
:1003100017EB00094E41201EA4F10104DFDC484622
:1003200031462A464346BDE8F09F10B5431A934232
:1003300009D28318881803E010F8011D03F8011D85
:10034000521EF9D210BD40EA01039B0703D009E019
:1003500008C9121F08C0042AFAD203E011F8013BB1
:1003600000F8013B521EF9D210BDD2B201E000F8F4
:10037000012B491EFBD270470022F6E710B5134649
:100380000A4604461946FFF7F0FF204610BD421CFE
:1003900010F8011B0029FBD1801A7047202A04DBCA
:1003A000203A00FA02F1002070479140C2F1200388
:1003B00020FA03F3194390407047202A04DB203AC7
:1003C00021FA02F00021704721FA02F3D040C2F175
:1003D000200291400843194670470000064C074D23
:1003E00006E0E06840F0010394E807009847103405
:1003F000AC42F6D3FFF7ECFE68CB000888CB0008D0
:1004000070B58D1810F8014B14F0030201D110F8EB
:10041000012B231106D110F8013B03E010F8016B0A
:1004200001F8016B521EF9D1ABB110F8012B04F0A9
:100430000C048A1A0C2C03D0A2EB84129B1C08E03B
:1004400010F8014BA2EB0422F8E712F8014B01F877
:10045000014B5B1EF9D5A942D4D3002070BD00002A
:10046000F0B500242DED088B81B09FED8E8A8E496A
:1004700001208E4E8DED008AF0EE488A0870306AB9
:10048000B0EE489A010501D5012008E0C10401D56C
:10049000022004E0000301D5032000E0002008F062
:1004A00077FDF0EE489A0220B0EE691AF3EE040AE6
:1004B000B3EE040A00F0FAFC00F03EFC7C4D7D4FE8
:1004C000B7EE00BAF3EE04AAB1EE04AA052C7AD274
:1004D000DFE804F003327A8EA700022000F09CFDD2
:1004E000B3EE040A00F0AAFD00F0D4FCB0EEC00A9E
:1004F00010EE100A704988421DDBB1EE040A04F0C8
:10050000BFFC002817D0D6ED090A95ED000A09F0C6
:1005100069FA96ED098A38EE0B0A06F0E3FFF0EE71
:10052000408A0420B0EE681AF3EE040AB3EE040A1F
:1005300000F0BCFC0124AAE097ED000A0020F0EED8
:10054000694A30EE2A2A30EE0A1AB0EE694AF0EE15
:10055000693A32EE2A3AF2EE082AF3EE091AF0EE80
:10056000680AB3EE090A04F06FFA00F0E5FB042014
:10057000B0EE681AF2EE080AB2EE0E0A00F00CFCB9
:1005800095ED020AF0EE680A9FED4C1A0020F0EE9D
:10059000694A40EE410A97ED000AB0EE694AF0EE72
:1005A000693A30EE0A3AF2EE082AB0EE692AF2EE23
:1005B000081AB0EE691AB2EE080A04F045FA00F023
:1005C000BBFB022463E061E038EE0B0A06F08AFF11
:1005D0003B488DED000AB0EE409A80ED010A3948A3
:1005E000B3EE090A80ED030A00F0A6FB03244EE0F7
:1005F000B0EE490A684607F0B1F900F04BFCB0EEE6
:10060000C00A10EE100A3049884240DB04209DEDFC
:10061000001AF2EE080AB2EE080A00F047FC0424C1
:1006200035E097ED000A0120F0EE694A30EE4A1AF3
:1006300030EE6A2AB0EE694AF0EE693AB0EE413A1D
:10064000F3EE042AF2EE081ADDED000AB2EE080A13
:1006500004F0FAF90220B0EE691AF3EE090AB3EEDB
:10066000090A00F023FCD6ED090A95ED000A09F00D
:10067000B9F908F07DFF15480021C0ED049AC0EDDE
:10068000039AC0ED059A084606F0BEFF0524052032
:100690000BF0B2F9052C7FF419AF01B0BDEC088B5B
:1006A000F0BD0000000000008C000020F8E70020F2
:1006B00070EB00207C0D0020000040408FC2F53C14
:1006C0000C0E00202C0E00200000824298EA002030
:1006D0002DE9F041234C207800F0FB00207094EDD0
:1006E0000B0A00F0ABFC022000F096FC0BF05CFE65
:1006F000074608F015F81C4D41F2883615E008F061
:100700000FF800F0CDFB20B93146384607F03FF82E
:1007100040B1207800F0FB002070BDE8F0410820D7
:1007200000F098BB05200BF067F9287A0828E6D37B
:10073000012500F0E3FA04F0E9FF00F0B1FB002826
:100740000DD140F6B8300BF057F900F0A9FB0028A6
:1007500005D184F83050207840F004002070BDE8C6
:10076000F0810000F8E70020C4EB002070B52DED0B
:10077000028B92B0684606F0D5FF4F48B3EE090AE7
:1007800080ED040A00F0F0FA9FED4C0A4C4880ED31
:10079000000A9FED4C0A80ED010AB1EE000A80EDDF
:1007A000020A11A808F0C4F8002865D011A808F0C2
:1007B0008BF900287BD004209DED111AF2EE040A7B
:1007C000B2EE040A00F072FB3F4D4FF4807402E079
:1007D00005200BF011F92146284601F061FA0028A6
:1007E000F6D1042041F288319DED111AF2EE040A8F
:1007F000B2EE000A06F026FFF0B300F07FFA082000
:1008000005F034FF4FF47A7601213246002003F0E0
:1008100063FC9DED111AF2EE080AB1EE080A06F02B
:10082000ADFF48B300F06AFA284C294DD4ED090A0F
:1008300095ED000A09F0D6F807F0A0FEDFED250AD5
:1008400030EE200A06F04EFEB0EE408A00F01AFCB0
:1008500000F026FB80B907F091FE38EE400A06F062
:1008600041FEB0EEC00A10EE100A1B4988421EDCA1
:1008700001213246084600E019E003F02DFCDDEDD1
:100880000F0AB0EE480A07F07BFF80B1D4ED0F0AE3
:1008900095ED000A09F0A6F800F0C4FAB3EE020ADA
:1008A000684606F071FE12B0BDEC028B70BD684662
:1008B00006F0FCFEF7E700002C0E00209A99193F85
:1008C00060EA002000000000000C0240F8E7002071
:1008D00070EB00200000344300002041F0B50024FC
:1008E0002DED088B81B09FED529A524D524F8DEDF8
:1008F000009AB2EE048A287FF2EE088A2428D7ED07
:1009000000AA08FE280A03D1DFED4C0AC7ED000A51
:100910000220B0EE491AF0EE400A00F0C7FA0A20B1
:100920000BF06AF800F008FA454EF1EE089AB1EEC5
:1009300004AA9FED44BA24B1012C21D0022C5DD130
:100940003EE03220694600F08FFEB2EE000A04F06D
:1009500097FAA0B39DED000AB5EEC00AF1EE10FAC9
:1009600003D107F00BFE8DED000AB0EE401A042013
:10097000F2EE0E0AB2EE0E0A00F098FA01243EE002
:10098000287FD6ED000A24284FF00000B1EE0C1AA3
:1009900008FE280A30EE813AB0EE494A30EEA92A24
:1009A00030EE8A1AF0EE444AF0EE4B3AF0EE402A6E
:1009B000F0EE401ADDED000A04F046F802241EE0D5
:1009C000287FD6ED000A24284FF00100B2EE001A6D
:1009D00008FE280A30EEC12AB0EE494A30EEE93A64
:1009E00030EECA1AF0EE444AF0EE4B3AF0EE402AEE
:1009F000F0EE401ADDED000A04F026F8032405208D
:100A00000AF0FAFF032C96D100F078F90E48D5EDE4
:100A1000090A90ED000A08F0E5FF0021C7ED00AAE1
:100A2000084606F0F1FD01B0BDEC088BF0BD0000FA
:100A300000000000F8E7002060EA00209A99993F42
:100A40007C0D0020CDCC4C3D70EB002070B52DED21
:100A5000028B92B0684606F065FE4F48B3EE090A75
:100A600080ED040A9FED4D0A4D4C84ED000A9FED88
:100A70004D8AB6EE000A84ED018A84ED020A11A8BF
:100A80000AF0DEFB002874D011A80AF01FFB002832
:100A90007DD09FED450A042084ED000A84ED018A93
:100AA00084ED028A9DED111AF2EE060AB2EE060AF4
:100AB00000F0FCF93D4D4FF4807402E005200AF08F
:100AC0009BFF2146284601F0EBF80028F6D100F004
:100AD00015F94FF47A760121304606F01DFD042009
:100AE00041F288319DED111AF2EE060AB2EE000ACB
:100AF00006F0A8FDE8B300F001F99DED111AF2EE41
:100B0000080AB1EE040A06F039FE90B300F0F6F8D8
:100B1000274C284DD4ED090A95ED000A08F062FF34
:100B200007F02CFDDFED240A30EE200A06F0DAFC97
:100B3000B0EE408A00F0A6FA00F0B2F9C8B907F0AA
:100B40001DFD38EE400A06F0CDFCB0EEC00A10EEF6
:100B5000100A1A4988421ADC01213246084603F07D
:100B6000BBFAB0EE480A0AF0B7FB10B1D4ED0F0A99
:100B700000E00CE095ED000A08F034FFB3EE040A43
:100B8000684606F001FD12B0BDEC028B70BD6846F0
:100B900006F08CFDF7E700002C0E00209A99193E14
:100BA00060EA002000000000CDCC4C3F000C024069
:100BB000F8E7002070EB00200000344300002041E3
:100BC0002DE9F04343491C222DED028B8FB0B0EE8E
:100BD000408A6846FFF7A9FB3F491C2207A8FFF798
:100BE000A4FB3E4F97F904403D4890F800803D4DEE
:100BF0003D48D5ED090A90ED000A08F0F3FE00F03B
:100C00007DF84FF47A790021484606F085FC00F023
:100C1000A1F800F0A9F800263E71032003F020FAA5
:100C20002C48D5ED098AB2EE0E0A80ED020A2A4858
:100C3000B7EE080A80ED000A9FED2C0A80ED010A4C
:100C4000B0EE040A80ED020A00F076F80420B0EE5F
:100C5000681AF2EE080AB2EE080A00F027F902E07C
:100C600005200AF0C9FE00F015F9B0EEC00AB4EE96
:100C7000C80AF1EE10FAF3D31D4806701D4806703D
:100C8000032003F0EDF93C711C2212486946FFF77E
:100C90004CFB11481C2207A9FFF747FB404603F015
:100CA000DFF900F0B7F800F0BDF800F027F80121F7
:100CB0004A46084603F010FA00F03EF885F8306026
:100CC000287840F0040028700FB0BDEC028BBDE81E
:100CD000F08300000CEA002060EA0020940D002060
:100CE0008C0D0020F8E7002070EB002000000000D1
:100CF000DD0D0020DE0D0020FEE70000002010B515
:100D000000F08AF904489FED030A80ED000A80EDA7
:100D1000010A10BD000000002C0E0020B5EEC00A34
:100D2000F1EE10FA05D2B0EEC00ADFED020A30EEA5
:100D3000C00A70470000B44310B507F091FB0448A7
:100D40009FED020A80ED070A10BD000000000000C0
:100D50002C0E002010B506F0EFFA024800210171B8
:100D6000C18010BD80E7002002480021017441824B
:100D70007047000080E7002002480021017541759E
:100D80007047000080E700200249002088750BF0C2
:100D9000BBBC000080E7002070B506462DED048B3B
:100DA000B0EE408AB0EE419AB5EEC08AF0EE608AAD
:100DB000F1EE10FA25D9FFF7BFFF304600F02CF90D
:100DC000114D95F8741000291BD1104C042E02D03F
:100DD000C4ED028A08E00E48C4ED038A80ED019A52
:100DE00002E005200AF008FED4ED070AF0EEE00A62
:100DF000F4EEC80AF1EE10FA03D295F87400002858
:100E0000EFD0BDEC048B70BD80E700202C0E0020DD
:100E10000C0E00200248012101710021C1807047A1
:100E200080E70020024801210174002141827047BF
:100E300080E70020024801210175002141757047BB
:100E400080E700200249012088750BF05DBC00009E
:100E500080E7002070B5040019D00D4D95F874009E
:100E600028B9012C01D0022C01D105F0FBFB95F82B
:100E7000740008B985F87540012085F8740008F001
:100E80007BF80BF041FCBDE87040FFF737BF70BD49
:100E900080E70020014890ED070A70472C0E0020E3
:100EA000014890F87400704780E7002010B50446B0
:100EB0002DED048BF0EE418AB0EE609AB0EE408AE0
:100EC00000F0AAF80C4890F8740000280DD10B49E6
:100ED000022C81ED008A81ED019A09D0042C04D105
:100EE000074881ED038AC0ED018ABDEC048B10BD7B
:100EF00081ED028AF9E7000080E700202C0E002037
:100F00000C0E002070B53C4C94F8740018B1BDE88C
:100F10007040FFF7F3BE0BF00FFC00283CD1207DA2
:100F2000002598B109F048FD10EE100A33498842B7
:100F30000BDB607D401CC0B26075032806D365756D
:100F40000220BDE87040FFF785BF65752C4800782A
:100F5000022821D120792B4E50B32B4890ED010A65
:100F6000B0EEC00A10EE100AB0F1814F02DDE08849
:100F7000401C06E0B4F90600002806DDC8280EDA99
:100F80000A38E08000B2002807DC94ED020AB5EED2
:100F9000C00AF1EE10FA02DC70BDC82808DB06F0CA
:100FA000CBF92571E58094ED000A86ED020A70BD4B
:100FB000B4F906000028FADD1449012807D191EDA3
:100FC000000A84ED020A91ED020A84ED030A94ED11
:100FD000000AF6EE000A20EE200A86ED020AB2EEC2
:100FE000040A81ED000A9FED0A0A81ED010A9FEDD6
:100FF000090A81ED020A70BD80E70020000034423A
:10100000D80D00202C0E0020C4EB00200CEA00209C
:101010000000000000004843074910B50446097865
:10102000022903D1022C01D007F0A6FF2046BDE81B
:10103000104008F061BF0000D80D002010B50E4828
:101040002DED028BB0EE408A90F8741000290CD17F
:1010500080ED008AB0EE480A07F0AAFF0748017841
:101060000748042904D080ED028ABDEC028B10BD34
:1010700080ED038AF9E7000080E70020D80D00200A
:101080002C0E002010B51E491C222DED028B88B0BD
:101090006846FFF74AF91B4C1948B2EE000A94ED76
:1010A000048A84ED040AB0EE000A80ED000AB3EE73
:1010B000040A80ED020A9FED140A80ED010A9FEDFB
:1010C000130A80ED030A07F059FADFED110A012037
:1010D00030EE200AF0EE080A06F0DCFCFFF70EFE08
:1010E0004FF496700AF088FC05481C2284ED048AAF
:1010F0006946FFF71AF908B0BDEC028B10BD00007D
:1011000044EA00202C0E002000000000CDCC4C3E14
:101110000000344370B50E4C01200E4DF2EE000A73
:101120002DED028B94ED048AD5ED028AC4ED040AFC
:10113000F3EE040AC5ED020AF0EE000A06F0AAFC7E
:1011400084ED048AC5ED028ABDEC028B70BD0000FF
:101150002C0E002044EA002010B5FFF7A1FE002865
:1011600030D11948194C407810B1012803D016E04D
:1011700006F058FE13E006F047FE94F8300008F041
:1011800075F8012809D109F027FC30B109F02CFCD1
:1011900009F056FC06F090FE01E009F051FC2079C0
:1011A00025280BD1207F2B2808D109F015FC28B168
:1011B000FFF7A4FD4FF47A700AF01EFCBDE8104062
:1011C00007F04EB810BD0000A0000020F8E7002096
:1011D0002DE9F04100252C4609F07AFB0D4A1080DC
:1011E00000200123168803FA00F73E4209D0168832
:1011F000641CE4B2471C03FA07F10E4201D16D1CD6
:10120000EDB2401CC0B21028ECD355721472BDE888
:10121000F0810000D0EB002010B509F011FC06F0C1
:10122000F3FD02490020C87010BD0000A00000209E
:10123000014800F0CBBA0000001400200168182318
:10124000CAB2103AB2FBF3F2054B6FF30901032A5D
:101250009B5CC36500D9091D816508467047000085
:1012600004C80008014610B500208B694FF0C07417
:101270008A6A53B1B3F5005F15D072B1012A0CD060
:10128000022A0AD0032A09D104E01AB1012A06D0A1
:10129000022A03D1C96AC90100D5012010BDC96A5B
:1012A000A142FAD010BD002AF7D0012AF2D0022ABA
:1012B000F3D0032AF3D010BD30B50468256825F4B7
:1012C00080252560046863608368402B036803D031
:1012D00099600068C26030BD9A600068C16030BD2E
:1012E000704700001848002110B501F085FE16482F
:1012F000042101F081FE144801F096FC13480021FE
:1013000001F07AFE1148042101F076FE0F4801F049
:101310008BFC0F48002101F06FFE0D48042101F005
:101320006BFE0B4801F080FC0A48002101F064FECE
:101330000848042101F060FE064801F075FCBDE894
:101340001040054801F070BC700E0020BC0E00205B
:10135000080F0020A00F00208410002072B6FEE7C6
:101360002DE9F04700242DED028B90B09FED6E8AA1
:1013700014216846FFF700F8142105A8FEF7FCFFCA
:101380000020DFF8A8C105AF03460DF1380901467A
:10139000EA460E900F9001EB41020CEB8202157AA7
:1013A0001DB1157A022D05D012E009F80410641C55
:1013B000E4B20DE0D2ED010A0AEB8005C5ED000AAA
:1013C000D2ED000A07EB8002401CC2ED000AC0B259
:1013D000491C0529DFDB032C04D284424FF07E58E0
:1013E00010D3ACB100204A4609E0115C401C01EB6F
:1013F00041010CEB810191ED010A30EE088AA04217
:10140000F3DB84E024B100220A930B930AAB5DE086
:1014100080B3012804D000220C930D930CAB22E082
:101420009DED000A10B0BDEC028BBDE8F087511CA9
:1014300007EB820514E007EB8104D5ED000A94ED7B
:10144000001A70EEC10AF0EEE00A10EE904A444530
:1014500005DC9C5C641C9C545C5C641C5C54491CF6
:101460008142E8DB521C8242E1DB00259DF83020FE
:10147000294606E00BE05C5C944201D92246CDB2DD
:10148000491C8142F7DB12B10AEB850048E0B0EE5F
:10149000480AC7E7511C07EB820614E007EB8105F9
:1014A00096ED000AD5ED000A30EE600AB0EEC00AF3
:1014B00010EE105A454505DC9D5C6D1C9D545D5C2D
:1014C0006D1C5D54491C8142E8DB521C8242E1DB09
:1014D00000269DF82820314605E05D5C954201D943
:1014E0002A46CEB2491C8142F7DB521C944215D3E6
:1014F00000204A4609E0115C401C01EB41010CEB65
:10150000810191ED010A30EE088AA042F3DB00EE82
:10151000104AF8EE400A88EE200A83E70AEB8600BC
:1015200090ED000A7EE70000000000009C0D002006
:1015300070B52DED028BB0EE408A07F0F1F83F4C0C
:101540003F4E404D607810B1FFF70AFF01E096ED85
:10155000010A3A4885ED020A083090ED000A85ED4F
:10156000060A707ADFED380A012802D8307A03289B
:101570000AD90120A07085ED020AC5ED040AC5ED67
:10158000030AC5ED050A01E00020A070E178C0B2B1
:1015900088420AD095ED021A30EE410A85ED030A21
:1015A000C5ED050AC5ED040AE0702849254808F094
:1015B000C3FC10EE100A264984ED010A884202DBC2
:1015C0009FED240A06E010EE100A2349884203D357
:1015D0009FED220A84ED010A9FED211AB0EEC80AA0
:1015E000C0EE010A94ED011A60EE810AC4ED010A11
:1015F000B4EEE00AF1EE10FA06D3B1EE400AB4EE12
:10160000E00AF1EE10FA01DD84ED010AB5EEC08AC0
:10161000F1EE10FA94ED010A03D2B1EE400A84ED26
:10162000010A104878EE400A38EE000AC0ED000AC0
:1016300080ED010ABDEC028B70BD00008C0D002016
:10164000C4EB002098EA0020000000000CEA002013
:101650000000484300004843000048C3000048C35E
:10166000000020422C0E002070B506000D462DED26
:10167000068B9FED238AB0EE489AF0EE488A2BD075
:10168000002D29D000249FED1FAA16E006F076FF5A
:10169000B0EE408A28EE0A0AF0EE409A05F038FBD8
:1016A00030EE099AB0EE690A05F0AAF9052070EE4D
:1016B000288A0AF0A1F9641CE4B2B442E6D3F0EE41
:1016C000680AB0EE490A05F043FA10EE100A0E4916
:1016D000884204DA85ED008ABDEC068B70BDF0EE21
:1016E000680AB0EE490A05F035F8DFED080A20EE89
:1016F000200A85ED000A08F0CDF985ED000AEBE738
:101700000000000035FA8E3C6F12833AE12E6542EC
:101710002DE9F041876D044600F0CCFA054694F8B7
:1017200035000026022806D080206065012084F85C
:101730003460BDE8F0812068016821F01601016085
:101740002068416921F080014161206C08B9A06CDA
:1017500020B12068016821F008010160206801685B
:1017600021F0010101600CE000F0A4FA401B052803
:1017700007D920206065032084F8350084F83460A0
:10178000D7E720680068C007EED194F85C103F20CE
:101790008840B860012084F83500002084F8346067
:1017A000C7E790F83510022903D080214165012058
:1017B0007047052180F835100068016821F00101AB
:1017C000016000207047406D704700002DE9F8432C
:1017D000044665484FF00009CDF800904FF41651CB
:1017E000A56D0068B0FBF1F72E68082194F85C2025
:1017F00001FA02F030420FD02068026852070BD580
:10180000026822F00402026094F85C008140A96042
:10181000606D40F00100606594F85C104FF00108C5
:1018200008FA01F0304208D021684969090604D558
:10183000A860606D40F00200606594F85C100420C0
:101840008840304208D021680968890704D5A8601B
:10185000606D40F00400606594F85C1010208840D2
:10186000304218D021680968090714D5A86020689B
:101870000168490304D50068000308D5A16C07E09E
:101880000168C90503D4016821F008010160216CD9
:1018900009B12046884794F85C10202088403042E7
:1018A00031D021680968C9062DD5A86094F83500A3
:1018B00005282068016806D0490347D50068000361
:1018C0001DD4616C1CE021F01601016020684169A3
:1018D00021F080014161206C08B9A06C20B1206822
:1018E000016821F00801016094F85C103F208840F5
:1018F000A86084F8358084F83490216D1FE0E16B96
:1019000009B120468847606D00282BD0606DC00764
:1019100014D0052084F835002068016821F0010109
:1019200001600098401C0090B84203D8206800680D
:10193000C007F6D184F8358084F83490E16C002932
:1019400010D001B02046BDE8F04308470168C90542
:10195000D5D4016821F01001016084F8358084F845
:101960003490CCE7BDE8F8831000002070B5044641
:1019700000F0A0F905465CB1022084F8350000268D
:1019800084F834602068016821F0010101600CE0F6
:10199000012070BD00F08EF9401B052805D92020DC
:1019A0006065032084F8350070BD20680068C007BA
:1019B000F0D121680A6820480240D4E901031843A5
:1019C000D4E903352B43184363691843A3691843CB
:1019D000E3691843236A18431043626A042A03D157
:1019E000D4E90B231A43104308602068406920F0B3
:1019F0000701606A042840EA01050CD1A06A05438A
:101A0000E06A40B12046FFF72DFC20B14020606520
:101A100084F83560BCE7206845612046FFF70EFC7E
:101A200094F85C203F21914081606665012084F834
:101A30003500002070BD00003F8010F02DE9F0411E
:101A4000866D044690F83400002501280DD0012051
:101A500084F8340094F835700020012F07D0022557
:101A600084F834002846BDE8F0810220FBE7022715
:101A700084F8357060652046FFF71EFC94F85C1012
:101A80003F208840B0602068016841F01601016085
:101A90002068416941F080014161206C20B12068DB
:101AA000016841F0080101602068016841F001010E
:101AB0000160D7E72DE9F84FDFF8B0910022032746
:101AC0004FF00F0CA9F1040B09F1040AABF1040E5D
:101AD0000B68012595402B40AB426ED10C7904F088
:101AE0000304012C01D0022C15D18668540007FA9A
:101AF00004F826EA0806D1F80C8008FA04F848EA47
:101B00000608C0F808804468AC430D79C5F3001599
:101B10009540254345600C79E443A40708D0C56887
:101B2000540007FA04F6B5438E68A6402E43C660FB
:101B30000C7904F00304022C11D1D40800EB8406C4
:101B4000356A5407E40E0CFA04F825EA0805D1F8C2
:101B5000108008FA04F848EA0508C6F820800568ED
:101B6000540007FA04F6B5430E7906F00306A640C2
:101B70002E4306604C6814F4403F70D03C4C2568FE
:101B800045F480452560246822F0030504F4804470
:101B90000094384C05EB0408D8F808589407260F31
:101BA0000CFA06F4A543344CA04201D100242EE0E7
:101BB000324CA04202D1012429E050E0304CA04236
:101BC00001D1022423E02F4CA04201D103241EE0C6
:101BD0002D4CA04201D1042419E02C4CA04201D18B
:101BE000052414E02A4CA04201D106240FE0294C20
:101BF000A04201D107240AE0274CA04201D10824C9
:101C000005E0264CA04201D1092400E00A24B4409A
:101C10002C43C8F80848D9F800404D464E689C430C
:101C2000F60200D51C432C60DAF8004055464E6899
:101C30009C43B60200D51C432C60DBF800405D4697
:101C40004E689C43B60300D51C432C60DEF8004070
:101C500075464E689C43F60300D51C432C60521C0D
:101C6000102AFFF435AFBDE8F88F0000083C0140B2
:101C700044380240003001400000024000040240AD
:101C800000080240000C0240001002400014024014
:101C900000180240001C02400020024000240240C4
:101CA0000069084000D0012070470AB18161704787
:101CB0000904FBE701488068704700000400002029
:101CC0000248816802781144816070470400002056
:101CD000032010B500F09EF80F2000F005F800F08A
:101CE0004FF8002010BD000030B505461F4887B0F2
:101CF000016841F480710160006806A900F48070F9
:101D00000590684600F0E8FB0398B0B100F004FCD1
:101D100040001749174AB0FBF1F11748026040F242
:101D2000E732491E41600021C0E9032181608161E1
:101D300000F094FE040003D015E000F0EDFBE8E7AE
:101D40000D4800F071FF04000DD12D2000F034F893
:101D5000102D07D2002229462D2000F03BF807481D
:101D6000056000E0012407B0204630BD4038024045
:101D700040420F00002000406014002008000020B6
:101D80000C4882B0016841F080510160006800F0A9
:101D9000805000900748001D016841F480410160B7
:101DA000006800220F2100F480400090901E02B0D5
:101DB00000F010B840380240002809DB012100F093
:101DC0001F0291404009800000F1E020C0F800119E
:101DD000704700000E4BF0B41B68C3F30223C3F13D
:101DE0000704042C00D904241D1D072D01D2002353
:101DF00000E0DB1E012606FA04F56D1E0D409D4035
:101E00009E40761E164045EA0601F0BC04F091BCE7
:101E10000CED00E0064A00F0070110684FF6FF03E2
:101E2000184040EA01200349084310607047000051
:101E30000CED00E00000FA051848F8B5016841F023
:101E4000805101600068164D00F0805000902868B5
:101E500040F480302860FFF72DFF4FF47A76044677
:101E600004E0FFF727FF001BB0420FD86868C003EB
:101E7000F7D5286840F400302860FFF71BFF0446C0
:101E800006E0FFF717FF001BB04201D90320F8BDA1
:101E900068688003F5D50020F8BD00004038024096
:101EA000007000402DE9F84F044600780026DFF866
:101EB00020943546C0070ED0D9F8001021F4000157
:101EC000C9F80010D9F80010626B1143C9F800106E
:101ED000606B00B901262068FE4F00030ED53868FC
:101EE000E16B20F4401008433860E06BB0F5801FD0
:101EF00001D010B102E0012600E001252068C002F7
:101F00000ED53868216C20F4400008433860206CFE
:101F1000B0F5800F01D010B102E0012600E00125EC
:101F20002068C10100D50126800666D5E848383012
:101F3000016841F0805101600068DFF89CA300F067
:101F400080500090DAF8001041F48071CAF8001057
:101F5000FFF7B0FE804605E0FFF7ACFEA0EB0800FF
:101F600064287DD8DAF80000C005F5D5DFF864A351
:101F7000AAF11C0ADAF8000010F440702AD0218E71
:101F800001F44071814225D0DAF80010DAF800201F
:101F900021F4407142F48032CAF80020DAF80020BF
:101FA00022F48032CAF80020CAF80010DAF80000E3
:101FB000C0070FD0FFF77EFE804641F2883B05E068
:101FC000FFF778FEA0EB08015945CAD8DAF80000FF
:101FD0008007F5D5206BC0F3012103297ED0D9F805
:101FE000001021F4F811C9F80010DAF80010228E60
:101FF000C2F30B021143CAF800102078C00607D5BF
:10200000386820F0807038603868A16B0843386009
:1020100020884104B14805D50168626E21F4403141
:10202000114301602188090405D50168A26E21F4DD
:102030004021114301602168C90305D50168E26EA2
:1020400021F44011114301602168890305D501681D
:10205000226F21F44001114301602178490600E01C
:1020600002E105D50168626C21F0030111430160B2
:102070002178090605D50168A26C21F00C011143F5
:1020800001602188C90505D50168E26C21F03001A5
:10209000114301602188890505D50168226D21F071
:1020A000C001114301602188490505D50168626DB1
:1020B00021F44071114301602188090505D50168AB
:1020C000A26D21F44061114301602188C90407D544
:1020D0000168E26D21F44051114300E03DE00160F0
:1020E0002188890405D50168226E21F440411143FD
:1020F00001602168490205D50168A26F21F0806165
:102100001143016021684FF00069890209D5016817
:10211000E26F21F0006111430160E16F494500D198
:10212000012521680A0700D50125490305D5016865
:10213000626F21F04071114301602168090206D5E8
:102140000168D4F8802021F0805111430160DFF84C
:102150008081A8F108086EB909E0D9F80020604B29
:1021600022F4F81218400243C9F800203DE7206825
:10217000800178D5D8F8001021F08061C8F80010EF
:10218000FFF798FD064604E0FFF794FD801B6428E6
:102190006AD8D8F800000001F6D420785149C00769
:1021A00011D0606B78B908680A68C0F301406368B1
:1021B000C2F303629B0143EA004040EA0260227AD4
:1021C00040EA027008602068020303D5E26BB2F5B2
:1021D000801F05D0C0021AD5206CB0F5800F16D133
:1021E00008680A68C0F301406368C2F302729B0189
:1021F00043EA0040237B40EA036040EA0270086043
:102200003868626A20F01F00521E10433860206850
:10221000C0010FD508680A68C0F303606368268AA6
:10222000C2F302729B0143EA064343EA006040EABC
:1022300002700860206880010BD56068228A8001E6
:1022400040EA0240227B40EA0260227A40EA0270C1
:102250000860D8F8001041F08061C8F80010FFF75E
:1022600029FD064606E009E082E0FFF723FD801B1A
:1022700064287DD8D8F800000001F6D5B5B3D8F8A9
:102280000000454620F08050C8F80000FFF712FD1E
:10229000064604E0FFF70EFD801B642875D8286809
:1022A000C0438000F6D520680F49020301D5E26BD8
:1022B0001AB1C0022BD5206C48BB08680A68C0F36D
:1022C00001406369C2F302729B0143EA00400EE0E1
:1022D000083802408C3802400070004090380240BC
:1022E000FFFCFF0F843802408838024054E0237E10
:1022F00040EA036040EA0270086038686FF0FF034C
:10230000A26A20F4F85003EB0222104338602068E0
:10231000800212D5E06F48450FD108680A68C0F303
:1023200003606369268CC2F302729B0143EA064391
:1023300043EA006040EA027008602078000715D583
:1023400008680A68C0F303606369C2F301429B0135
:1023500043EA024242EA0060227F40EA02700860DB
:102360003868E16A20F4403008433860286800E0AB
:102370000BE040F080502860FFF79CFC044607E02B
:10238000FFF798FC001B642802D90320BDE8F88FF2
:102390002868C0438000F3D40020F7E72DE9F04718
:1023A00004000D4669D0DFF81C81D8F8000000F069
:1023B0000F00A8420CD2D8F8001021F00F012943D9
:1023C000C8F80010D8F8000000F00F00A84254D15F
:1023D00020683D4E810712D5400703D5306840F490
:1023E000E05030602078000703D5306840F460404A
:1023F00030603068A16820F0F00008433060207839
:10240000C00729D0304960680839012810D0096810
:10241000022810D0890700292FDA316821F0030142
:1024200001433160FFF746FC074641F288390CE072
:1024300009688903EFE78901EDE7FFF73BFCC11B62
:10244000494502D90320BDE8F0873068616800F093
:102450000C00B0EB810FF0D1D8F80010404601F02D
:102460000F01A9420BD9016821F00F012943016036
:10247000006800F00F00A84201D00120E3E72078B7
:10248000400705D53068E16820F4E050084330602B
:102490002078000706D53068216920F4604040EAC2
:1024A000C100306000F058F83168084AC1F30311E8
:1024B000515CC8400649086006480068FFF714FCF4
:1024C0000020C0E7003C0240083802400CC8000869
:1024D00010000020080000200F2202600C4A136840
:1024E00003F003034360136803F0F0038360136891
:1024F00003F4E053C36012684FF4E05303EAD202DE
:1025000002610448006800F00F0008607047000096
:1025100008380240003C0240044805490068096848
:10252000044AC1F38221515CC8407047100000206A
:10253000083802401CC800080448054900680968BA
:10254000044AC1F34231515CC8407047100000207A
:10255000083802401CC80008154810B5006810F083
:102560000C01144813D0431004290FD008290ED1B0
:102570000F4C241F216801F03F022168490207D552
:102580002068C0F38810A0FB030106E0184610BDC8
:102590002168C1F38811A1FB00010023FDF794FE1F
:1025A0002168C1F30141491C4900B0FBF1F010BDA5
:1025B000083802400024F4002DE9F84F04004FF0E1
:1025C000000877D02078DFF850B3ABF10409C007DA
:1025D000A9F104054AD0DBF800105846C1F3810187
:1025E000012908D00068C0F3810002280AD1D9F877
:1025F0000000400206D52868800337D560680028AF
:10260000DFD033E06068B0F5803F0BD010B1B0F59B
:10261000A02F11D0286820F480302860286820F48A
:10262000802002E0286840F480302860606888B12B
:10263000FFF740FB064609E0286840F48020286048
:10264000F0E7FFF737FB801B642873D82868800306
:10265000F7D50BE0FFF72EFB064604E0FFF72AFB59
:10266000801B6428F1D828688003F7D4207880077D
:1026700040D5DBF80010584611F00C0F08D0006868
:10268000C0F3810002280AD1D9F80000400206D424
:102690002868800717D5E06801280BD113E0E068AF
:1026A0000028286817D040F001002860FFF702FBDF
:1026B000064605E02CE1FFF7FDFA801B0228C4D88E
:1026C00028688007F7D52868216920F0F80040EADB
:1026D000C10028600EE020F001002860FFF7EAFA50
:1026E000064604E0FFF7E6FA801B022822D8286895
:1026F0008007F7D42078000725D5874F60696C37AD
:10270000002838680FD040F001003860FFF7D2FA97
:10271000064604E0FFF7CEFA801B02280AD8386884
:102720008007F7D50FE020F001003860FFF7C2FA0C
:10273000064605E082E0FFF7BDFA801B02287DD83F
:1027400038688007F7D42078400769D5DFF8C8A13A
:102750000AF1380ADAF80000C0000CD4DAF80010E8
:1027600041F08051CAF80010DAF800004FF001087B
:1027700000F080500090694F3868C0050FD4386869
:1027800040F480703860FFF795FA064604E0FFF7E2
:1027900091FA801B642851D83868C005F7D55E4F80
:1027A000A068683701280AD008B1052811D0386818
:1027B00020F001003860386820F0040002E038683A
:1027C00040F001003860A06898B1FFF773FA064640
:1027D0000BE0386840F004003860F0E7FFF76AFA71
:1027E000811B41F28830814265D838688007F5D571
:1027F0000DE0FFF75FFA064606E0FFF75BFA811B84
:1028000041F28830814256D838688007F5D4B8F153
:10281000000F05D0DAF8001021F08051CAF800103E
:10282000A169C9B3DBF80000C0F38100022849D0D8
:102830002868022920F08070286000E03BE003D087
:10284000FFF738FA044639E0FFF734FA064604E0A9
:10285000FFF730FA801B02282DD828688001F7D4B2
:10286000D4E907012E4A0843A16A490802EB014155
:10287000626A41EA8211084394F82C1040EA016030
:1028800040F00051C9F80010286840F080702860BE
:10289000FFF710FA044605E03CE0FFF70BFA001BD7
:1028A000022808D828688001F7D533E0FFF702FA3C
:1028B000001B022802D90320BDE8F88F2868800198
:1028C000F4D427E0D9F80000012921D0E26900F40E
:1028D000800191421CD1226A00F03F01914217D140
:1028E000626A47F6C0710140B1EB821F10D1A26A43
:1028F0004FF0FF3300F4403103EB5202B1EB024FD3
:1029000006D194F82C1000F07060B0EB016F01D08C
:102910000120D1E70020CFE70838024000700040D6
:102920000000FFFF704770477047000030B590F817
:102930003C20012A3AD0012280F83C20CA680024B9
:102940008B6822F440721A4D1A434B6822F480625D
:102950001A430B6822F400621A430B6922F4805276
:102960001A434B6922F400521A438B6A22F48042C4
:102970001A430B8B22F4702242EA03420368AB42F3
:1029800002D00C4DAB420CD18D8C22F4700242EA85
:102990000552CD6922F08072096A2A4322F0007242
:1029A0000A435A6480F83C40002030BD022030BD0C
:1029B0000000014000040140F0B590F83C20012ADD
:1029C0003CD0012580F83C50022280F83D2003686D
:1029D0005A689C681A4E1B4FB34201D0BB4204D1C7
:1029E00022F4700C4A6842EA0C0222F0700C0A6869
:1029F00042EA0C025A600268B24213D0B2F1804F30
:102A000010D0114B9A420DD0104B9A420AD0104B65
:102A10009A4207D0BA4205D00E4B9A4202D00E4BD2
:102A20009A4204D1896824F080031943916080F8A8
:102A30003D50002180F83C100846F0BD0220F0BD5A
:102A40000000014000040140000400400008004074
:102A5000000C0040004001400018004010B5040088
:102A600003D094F83D0010B107E0012010BD002014
:102A700084F83C00204600F023F8022084F83D0052
:102A80002068211D02F06CFC012084F8480084F8C5
:102A90003E0084F83F0084F8400084F8410084F848
:102AA000420084F8430084F8440084F8450084F828
:102AB000460084F8470084F83D00002010BD000067
:102AC00008B50068334988420FD13348016841F0A6
:102AD0000401016000680022052100F0040000905C
:102AE0001E20FFF777F91E204EE02B492B4A091DC7
:102AF000904226D1086840F0020008600868002271
:102B0000052100F0020000902B20FFF763F92B2035
:102B1000FFF752F9002205212C20FFF75BF92C204A
:102B2000FFF74AF900220F212D20FFF753F92D203E
:102B3000FFF742F9002205212E20FFF74BF92E2046
:102B400022E0174A90420ED1086840F480300860B5
:102B500008680022052100F4803000901820FFF75B
:102B600039F9182010E00F4A904211D1086840F45A
:102B70008020086008680022052100F48020009071
:102B80001A20FFF727F91A20BDE80840FFF714B90B
:102B900008BD000000080040403802400004014029
:102BA000004001400048014090F83D10012901D04B
:102BB00001207047022180F83D10006812498842C8
:102BC00014D0B0F1804F11D0104988420ED0104976
:102BD00088420BD00F49884208D00F49884205D05F
:102BE0000E49884202D00E49884207D181680D4AB9
:102BF0001140062906D0B1F5803F03D0016841F0AD
:102C00000101016000207047000001400004004005
:102C100000080040000C004000040140004001405A
:102C2000001800400700010090F83D10012901D074
:102C300001207047022180F83D100168CA6842F007
:102C40000102CA6000681349884214D0B0F1804F75
:102C500011D0114988420ED0104988420BD010493A
:102C6000884208D00F49884205D00F49884202D0D7
:102C70000E49884207D181680D4A1140062906D0C5
:102C8000B1F5803F03D0016841F0010101600020EF
:102C900070470000000001400004004000080040B0
:102CA000000C0040000401400040014000180040BA
:102CB0000700010070B5044690F83C00002501288B
:102CC00017D0012684F83C60022084F83D0020687B
:102CD00082682F4B1A4022F47F4282600868502895
:102CE00038D00DDC20284FD005DC90B3102811D14E
:102CF0004AE0022070BD302846D040280AD13BE08F
:102D000060282FD070280DD0B0F5805F03D0B0F5CB
:102D1000005F12D0012584F83D60002084F83C005B
:102D2000284670BD4A682068D1E9021302F08DFB85
:102D30002068816841F0770109E04A682068D1E99C
:102D4000021302F082FB2068816841F480418160B7
:102D5000E1E719E0CA684968206802F0ADFC206824
:102D6000502106E0CA684968206802F0B6FC206875
:102D7000602102F074FBCEE7CA684968206802F05F
:102D80009BFC20684021F4E7226801461046F0E7EA
:102D900088FFFEFF2DE9F04104000D4603D094F8B2
:102DA0003D0018B108E00120BDE8F081002084F862
:102DB0003C00204600F046F8022084F83D002068E0
:102DC00081681F4A114081602068211D02F0C8FA05
:102DD000206881688269066A2B68AF6926F0AA06B6
:102DE0000B4340F203318A43A96842EA0722EF69A4
:102DF00011434FF6FC429143EA6841EA07212F6AEA
:102E00000A432969090141EA073111436A686D697A
:102E1000836046EA05152A432068816120680262C2
:102E2000012084F8480084F83E0084F83F0084F8CC
:102E3000440084F8450084F83D000020B4E7000019
:102E4000F8BFFEFF70B586B0044614216846FDF752
:102E500093FA6248022521680024614A01268142D2
:102E60003BD15F481430016841F001010160006806
:102E700000F001000590106840F01000106010682C
:102E8000694600F0100005904FF420600090CDE9F5
:102E900001545448CDE90346FEF70CFE00220521FB
:102EA0001820FEF797FF1820FEF786FF0022052165
:102EB0001920FEF78FFF1920FEF77EFF0022052163
:102EC0001A20FEF787FF1A20FEF776FF0022052161
:102ED0001B20FEF77FFF1B2059E0414B4248103377
:102EE000B1F1804F22D0414EB14254D1196841F026
:102EF00002011960196801F002010591116841F0A1
:102F000001011160116801F001010591C0210091DA
:102F1000CDE90154CDE903456946FEF7CBFD00221A
:102F200005211D20FEF756FF1D2030E0196841F0F5
:102F300001011960196801F001010591116841F062
:102F400001011160116801F001010591116841F062
:102F500002011160116801F0020105912021009128
:102F6000CDE90154CDE903466946FEF7A3FD0820EB
:102F70000090CDE901541E486946CDE90346FEF7AD
:102F800099FD002205211C20FEF724FF1C20FEF7DE
:102F900013FF06B070BD174EB142FAD1196841F067
:102FA00008011960196801F008010591116841F0E4
:102FB00001011160116801F00101059103210091E7
:102FC000CDE90154CDE903456946FEF773FD0022C2
:102FD00005213220FEF7FEFE3220D8E70000014036
:102FE000303802400010024000000240000400405F
:102FF00000040240000C004070B590F83E500446BA
:1030000090F83F3090F8442090F84500022621B116
:1030100004290BD0012D16D10FE0012D13D1012A67
:1030200011D184F83E6084F8446016E0012B0AD187
:10303000012808D184F83F600DE0012B03D1012A5B
:1030400001D1012801D0012070BD84F83E6084F8D0
:103050003F6084F8446084F8456091B1042904D04D
:1030600020680122002102F0E3F9206801220421F6
:1030700002F0DEF92068016841F0010101600020E2
:1030800070BD012220680021F2E770472DE9F04170
:1030900004460068C66805694FF00007A90713D504
:1030A000B10711D5F91E01610120207720688069E0
:1030B0008007204602D0FFF7E8FF04E000F0E6F8C2
:1030C000204600F0A8F92777680716D5700714D5B1
:1030D00021686FF004000861022020772068806971
:1030E00010F4407F204602D0FFF7CFFF04E000F04D
:1030F000CDF8204600F08FF92777280715D530073F
:1031000013D521686FF0080008610420207720683B
:10311000C0698007204602D0FFF7B7FF04E000F047
:10312000B5F8204600F077F92777E80616D5F006BF
:1031300014D521686FF010000861082020772068FE
:10314000C06910F4407F204602D0FFF79EFF04E0E4
:1031500000F09CF8204600F05EF92777E80708D0D9
:10316000F00706D021686FF001000861204600F0EA
:10317000D3F9280601D4A80408D5300606D521685D
:103180006FF4025008612046FFF7CDFBE80508D533
:10319000300606D521686FF4807008612046FFF77D
:1031A000C1FB680608D5700606D521686FF040009F
:1031B0000861204600F0BAF9A8060AD5B00608D57D
:1031C00021686FF0200008612046BDE8F041FFF75C
:1031D000ABBBBDE8F081000030B587B004461421D8
:1031E0006846FDF7C9F820680021214C0223214AD6
:1031F000A04211D1106840F008001060106800F083
:10320000080005904FF470400090CDE90131CDE900
:1032100003131948694613E0184D0324A84213D13B
:10322000106840F004001060106800F00400059081
:1032300020020090CDE90131CDE903141048694620
:10324000FEF738FC07B030BD0E4DA842FAD1106829
:1032500040F010001060106800F010000590602031
:103260000090CDE90131CDE9031407486946E7E74D
:103270000008004030380240000C024000040140C9
:10328000000802400040014000100240704770B545
:10329000044690F83C0000260D4601280BD0012082
:1032A00084F83C000C2A4AD007DC82B1042A20D0E2
:1032B000082A06D131E0022070BD102A53D0142A0A
:1032C00063D00126002084F83C00304670BD2068A1
:1032D00002F0CEF82068816941F008018161206820
:1032E000816921F004018161206881692A691143A3
:1032F00011E0206802F0F0F82068816941F4006173
:1033000081612068816921F480618161206881691F
:103310002A6941EA02218161D4E7206802F016F9A6
:103320002068C16941F00801C1612068C16921F0CC
:103330000401C1612068C1692A69114311E0206854
:1033400002F03CF92068C16941F40061C161206864
:10335000C16921F48061C1612068C1692A6941EABB
:103360000221C161AEE7206802F054F92068416D86
:1033700041F0080141652068416D21F0040141657B
:103380002068416D2A69114311E0206802F06AF952
:103390002068416D41F4006141652068416D21F470
:1033A000806141652068416D2A6941EA02214165D9
:1033B00088E710B5040003D094F83D0010B107E091
:1033C000012010BD002084F83C00204600F022F8C7
:1033D000022084F83D002068211D01F0C1FF01207A
:1033E00084F8480084F83E0084F83F0084F84000E8
:1033F00084F8410084F8420084F8430084F84400D3
:1034000084F8450084F8460084F8470084F83D00BD
:10341000002010BD7047704710B5044669B10429FB
:103420000ED008290FD00C2910D0102911D094F8F3
:103430004300012810D0012010BD94F83E00F8E7A9
:1034400094F83F00F5E794F84000F2E794F8410063
:10345000EFE794F84200ECE70220E9B304293FD0FB
:10346000082940D00C2941D0102942D084F84300CB
:103470000122206801F0DCFF1F4920681F4A8842B2
:1034800001D0904203D1436C43F40043436420686D
:10349000884213D0B0F1804F10D0194988420DD026
:1034A000184988420AD01849884207D0904205D06E
:1034B0001649884202D01649884207D18168154AC8
:1034C0001140062906D0B1F5803F03D0016841F0D4
:1034D00001010160002010BDFFE784F83E00C7E74E
:1034E00084F83F00C4E784F84000C1E784F8410055
:1034F000BEE784F84200BBE7000001400004014041
:103500000004004000080040000C00400040014062
:10351000001800400700010000680349884201D1FB
:10352000FEF7CEBB70470000002000407047704798
:1035300070B50446C06FD4F88060216889684FF088
:103540001005090618D5212816D12068083050E842
:10355000001F21F0800140E80012002AF5D1206F01
:1035600038B1FEF7D5F820B1206FFEF72CF92028EE
:1035700021D0204602F0C4FB20688068400618D5A0
:10358000222E16D12068083050E8001F21F040019B
:1035900040E80012002AF5D1606F38B1FEF7B8F8A4
:1035A00020B1606FFEF70FF9202804D0204602F00A
:1035B00081FB002070BDC4F88450032070BD000062
:1035C0000549884207D1054904200122487504496C
:1035D000014800F02FBB7047D010002004E9002004
:1035E0005E0D00202DE9F04103680446D869196892
:1035F0009A6840F60F0528424FF000054FF002068A
:1036000005D182067ED58A067CD5A16E24E1DFF83D
:1036100078C202F0010701EA0C0C57EA0C0C71D0D9
:103620005FEAC07C0CD05FEAC15C09D54FF0010CA9
:10363000C3F820C0D4F8843043F00103C4F88430C8
:10364000830709D5D30707D023681E62D4F88430D6
:1036500043F00403C4F8843043070AD5D20708D0E6
:10366000236804221A62D4F8842042F00202C4F8CB
:10367000842002070CD501F020023A4308D02368C9
:1036800008221A62D4F8842042F00802C4F8842088
:1036900002050BD54A0109D523684FF400621A626E
:1036A000D4F8842042F02002C4F88420D4F8842086
:1036B000002A36D0800605D5880603D5A16E09B14B
:1036C00020468847D4F8840021688968490602D4D6
:1036D00010F0280F27D0204602F0ECFA206880680E
:1036E00040061BD52068083050E8001F21F040013B
:1036F00040E80012002AF5D1606F78B16349016596
:10370000606F00E015E0FEF74CF8002809D0606F0C
:10371000016D00E02046BDE8F04108472046FFF774
:103720004FFFBDE8F0812046FFF74AFFC4F8845000
:10373000F7E7276E2022012F7ED1C7067CD5CF0662
:103740007AD51020186220688068400650D5636FD3
:10375000186840684FF480770004000C3CD0B4F83F
:103760005810814238D9A4F85A00D869B8422BD0F1
:10377000206850E8001F21F4807140E80013002BFE
:10378000F6D12068083050E8001F21F0010140E820
:103790000013002BF5D12068083050E8001F21F0FD
:1037A000400140E80013002BF5D1C4F880202566C5
:1037B000206850E8001F21F0100140E80012002AA4
:1037C000F6D1606FFDF7A4FF6666B4F85800B4F850
:1037D0005A10401A81B207E0B4F858108142A0D1C3
:1037E000D869B8429DD166662046FFF7A0FE98E7EB
:1037F000B4F85800B4F85A10401A81B2B4F85A001C
:1038000000288ED000298CD0206850E8003F23F497
:10381000907340E80037002FF6D12068083050E858
:10382000003F23F0010340E80037002FF5D1C4F832
:1038300080202566A56600E009E0206850E8002F9A
:1038400022F0100240E80023002BF4D1CBE703065E
:1038500006D50B0604D5E16E00297FF45BAF60E767
:103860004006C4D54806C2D52046016851E8003F4D
:1038700023F0400341E80034002CF6D1C267C5664E
:1038800000F0A0FA4DE70000200100047D5B000875
:1038900010B5040002D0E06F10B107E0012010BDA8
:1038A000002084F87800204600F026F82420E06705
:1038B0002068016821F001010160606A10B12046B2
:1038C00002F0CAF8204602F0E5FA0128E7D02068A5
:1038D000416821F4904141602068816821F02A010B
:1038E00081602068016841F0010101602046BDE867
:1038F000104002F015B900002DE9F04FA7B0814645
:10390000142121A8FCF738FD84216846FCF734FD1A
:10391000AC4C0226AA490325D9F80000103CA94F57
:103920004FF4806B88424FF0080A4FF000083FD1F7
:103930006846CDF800B0CDF85480FEF7B3FA08B170
:10394000FDF70CFD386840F480103860386800F4EA
:1039500080102690206840F004002060206800F06D
:1039600004002690206840F008002060206823AA08
:103970004446574600F0080026904FF48050CDE9A9
:10398000210682E8B000904821A9FEF793F80420B0
:1039900023AACDE921068D4821A982E8B000FEF7CF
:1039A00089F8002205213520FEF714FA35202CE095
:1039B000874988422ED14015CDF850800090684646
:1039C000FEF770FA08B1FDF7C9FC386840F4002032
:1039D0003860386800F400202690206840F0040029
:1039E0002060206821A900F0040026904FF4406078
:1039F00081E841017448CDE9245AFEF75BF80022C2
:103A000005213420FEF7E6F93420FEF7D5F927B07A
:103A1000BDE8F08F6F49884228D14014CDF860800E
:103A200000906846FEF73EFA08B1FDF797FC38684B
:103A300040F000403860386800F000402690206870
:103A400040F010002060206821A900F0100081E8FB
:103A500060012495CDE925A05F48FEF72BF80022F0
:103A600005215320FEF7B6F95320CEE75B494FF00E
:103A7000070A88422CD14020CDF844800090684647
:103A8000FEF710FA08B1FDF769FC4E48001D016809
:103A900041F010010160006800F0100026902068DD
:103AA00040F001002060206821A900F0010026906C
:103AB0004FF4C06081E841014948CDE9245AFDF73F
:103AC000F9FF002205212520FEF784F925209CE737
:103AD0004449884229D18020CDF84880009068462A
:103AE000FEF7E0F908B1FDF739FC386840F4003022
:103AF0003860386800F400302690206840F00100FB
:103B00002060206821A900F0010026900C2081E8A7
:103B100041013348CDE9245AFDF7CCFF00220521AD
:103B20002620FEF757F926206FE72F4988427FF4B9
:103B30006EAF8015CDF84C8000906846FEF7B2F964
:103B400008B1FDF70BFC386840F480203860386815
:103B500000F480202690206840F002002060206859
:103B600021A900F0020026904FF44060CDE9210623
:103B7000CDF894A046461D48CDE92385FDF79AFF70
:103B80001C4C1B4820604FF00060C4E90106C4E9EA
:103B9000036B66612046A661E66126626662FDF7F8
:103BA000E5FE08B1FDF7DAFBC9F8744000220521F3
:103BB000C4F838902720FEF70DF9272025E70000EC
:103BC000005000404038024000080240000C024013
:103BD000004C0040007C00400010024000100140FA
:103BE0000000024000440040004800400004024041
:103BF000286002400014002030B4D0F88030202B20
:103C000002D0022030BC704791B18AB10023036614
:103C100003685B681B0208D5036853E8004F44F053
:103C2000806443E80045002DF6D130BC02F04CBA68
:103C30000120E7E730B4D0F88030202B02D00220FA
:103C400030BC704791B18AB10023036603685B689A
:103C50001B0208D5036853E8004F44F0806443E832
:103C60000045002DF6D130BC02F07EBA0120E7E716
:103C70000F4930B4884218D10E4908784A78401C60
:103C800000F07F00904202D10120C87006E08A78DF
:103C90000B78094C03F07F03E254087001220549B8
:103CA00030BC0348891CFFF7C5BF30BC704700001B
:103CB000D01000205C0D002044E8002070472DE962
:103CC000F8430446C06F1F4615460E46202802D012
:103CD0000220BDE8F8839EB195B10020C4F88400AD
:103CE0002120E067FDF7E6FFA4F850508146A4F8D4
:103CF00052504FF02008A068B0F5805F02D003E07A
:103D00000120E6E7206910B13546002610E00025C5
:103D10000EE08021204602F0D1FAB8B9D5B115F8ED
:103D2000010B21688862B4F85200401EA4F85200CA
:103D3000B4F852004B464FF0000200970028E8D13B
:103D40004FF04001204602F0B9FA40B1C4F87C803F
:103D50000320BEE736F8020BC0F30800E1E7C4F821
:103D60007C800020B5E70000C36F202B01D002202B
:103D7000704781B17AB1C164A0F85020A0F85220F8
:103D80000021C166C0F884102121C1678168B1F5A6
:103D9000805F02D003E001207047016961B10749EB
:103DA000C166016851E8002F42F0800241E800231B
:103DB000002BF6D1002070470149F1E7716200083D
:103DC000216200087047FEE702490120887004F074
:103DD000E1BF00005C0E002070B5174D00240729DC
:103DE000064601D0082903D12888401C28800B24CE
:103DF000304604F0D7FF204401041048090C05D0D8
:103E0000EA680A44EA6042680A444260072E0BD11D
:103E10006A890523521C6A814268B2FBF3F2EB689F
:103E20001A44EA600022426009B9072E03D1BDE8B6
:103E3000704004F0AFBF70BD78EC00205C0E002035
:103E400004490020086048608860C86002494860F2
:103E500004F0A0BF78EC00205C0E0020F0B5A9B003
:103E6000FDF728FF214E0546B078002837D030787E
:103E700048B9F068281AB0F5FA6F30D304F08AFF19
:103E8000307800282BD01A48C06F202827D1B0687E
:103E9000281A192823D37078A022694604F0B4FEAA
:103EA000F8B16F463846FCF772FA0446C01CA028E9
:103EB00000D99D240F4822463946FCF736FA0D49B1
:103EC000FF200855641C0855641C0855641C0848EC
:103ED000A2B2FFF749FF7078401C7070B56029B03E
:103EE000F0BD002030707070F560F8E75C0E0020C7
:103EF000E011002088EC0020F0B52DED028B83B09E
:103F00009FED538A00254FF0010C8DED018A2C4660
:103F10002B468DF8085012E007880CFA03FE17EACA
:103F20000E0F0AD00788641CE4B203F1010E0CFAEC
:103F30000EF6374201D16D1CEDB25B1CDBB28B4239
:103F4000EAD345720472434B1E78434DE6B11B78A9
:103F5000012B04D0022B08D0032B1FD10BE002ABA6
:103F6000009301AB06F04CFE18E002AB009301ABEE
:103F700006F0FCFE12E002AB009301AB06F0C2FDBE
:103F80000CE085ED018A1FE0344B1B6A1E05E6D468
:103F9000DE04EAD4DE011CD58DED018A9DF908000E
:103FA0000528EEDCECB39DF90800D0B300EE100A52
:103FB000DDED010AB8EEC00A80EE801A8DED011A1F
:103FC0009DED010A85ED010A03B00020BDEC028BD6
:103FD000F0BD1B0302D506F049FEF3E71E4ED3B237
:103FE000403E8F1A24E0B0F800C0CA1A521E9DF855
:103FF00008E02CFA02FC0CF0010CF4448DF808C027
:10400000B0F800C02CFA02FC0CF0010200EE102AFD
:1040100006EB8302F8EE400A92ED001A9DED010ACC
:1040200000E012E000EE810A5B1CDBB28DED010ABC
:104030009F42D8DC017A0429A3D29DF908100429F3
:104040009FDA407A01289CD8ACE78DED018AB7E76A
:10405000000000008C0D0020C4EB0020F8E70020D9
:1040600070B5044607F0E8FB164D2C7004F058FBC1
:1040700005F10800144C90ED000A84ED060A6878FA
:1040800010B1FDF76DF902E0104890ED010A1148FA
:1040900084ED020AD4ED060A30EEC00ADFED0C0A08
:1040A00084ED010A84ED030AC4ED040AC4ED050A97
:1040B000D0ED000A20EE800A84ED000ABDE87040D1
:1040C00007F0DEBB8C0D002098EA0020C4EB002036
:1040D000000000000CEA00207CB514466A4604F09B
:1040E000D7FF0948322307226946FFF7E8FD05009C
:1040F00007D134B14FF47A704443B4FBF0F007F0C9
:104100007BFC28467CBD000058110020094808B5FA
:10411000016841F40011016000680022052100F4EB
:10412000001000900C20FDF755FEBDE808400C2063
:10413000FDF742BE30380240044A0021044810B561
:1041400005F02EFD0349086010BD0000E0C700081F
:104150005D510008000000202DE9F04186B01421D7
:104160006846FCF709F93848016841F01001016020
:10417000016801F010010591016841F080010160C2
:10418000016801F080010591016841F001010160C1
:10419000016801F001010591016841F0040101602D
:1041A000016801F004010591016841F0020101601C
:1041B000016801F002010591016841F00801016008
:1041C00000680022214F102100F0080005903846B9
:1041D000FDF76BFDDFF878804FF4C05600223146C2
:1041E0004046FDF762FD002469461020009001253D
:1041F0003846CDE901540394FDF75CFC43F2F61018
:104200006946CDE9000413480294FDF753FC40F6DB
:10421000FB706946CDE900040F480294FDF74AFCA3
:1042200028026946CDE9000440460294FDF742FCAD
:1042300000966946CDE9015440460394FDF73AFCE7
:1042400006B0BDE8F08100003038024000080240AE
:104250000000024000040240000C02400C4845F2FD
:104260005F420A4910B5016042F20F7141600021BE
:10427000C0E90212016180218161FEF7EFFB002895
:1042800003D0BDE81040FDF769B810BD00480140FB
:104290008410002010B58CB024216846FCF76CF81F
:1042A00018480024164909940A940B94C0E9001494
:1042B0004FF6FF71C0E9024180210461C0E9054168
:1042C00003200494CDE9000401206946CDE90204ED
:1042D000CDE905400B4807940894FEF75BFD08B153
:1042E000FDF73CF8074809A909940A940B94FEF7D6
:1042F00063FB002801D0FDF731F80CB010BD0000C1
:1043000000000140700E002010B58CB024216846DA
:10431000FCF732F8164800244FF0804109940A94C3
:104320000B94C0E900144FF6FF71C0E902418021EF
:10433000046181610320CDE9000401200494CDE9EA
:1043400002046946CDE90540094807940894FEF740
:1043500021FD08B1FDF702F8054809A909940B945D
:10436000FEF72AFB002801D0FCF7F8FF0CB010BDC7
:10437000BC0E002010B58CB024216846FBF7FCFF72
:1043800017480024154909940A940B94C0E90014B5
:104390004FF6FF71C0E90241802104618161032071
:1043A000CDE9000401200494CDE902046946CDE979
:1043B00005400B4807940894FEF7ECFC08B1FCF7A5
:1043C000CDFF074809A909940B94FEF7F5FA0028D8
:1043D00001D0FCF7C3FF0CB010BD0000000400408A
:1043E000080F002010B58EB0002468461C210794E9
:1043F000089409940A940B940C940D94FBF7BCFF59
:104400002A482949C0E9001442F62F21C0E9024197
:10441000046180218161FEF721FB08B1FCF79EFF5A
:104420004FF480500790214807A9FEF743FC08B1DC
:10443000FCF794FF1D48FEF7BCFF08B1FCF78EFFA8
:104440001A480BA90B940D94FEF7B6FA08B1FCF7C5
:1044500085FF60206946CDE90004144800220294DB
:104460000494FEF714FF08B1FCF778FF0F4804220C
:104470006946FEF70CFF08B1FCF770FF0B480822F5
:104480006946FEF704FF08B1FCF768FF07480C22F5
:104490006946FEF7FCFE08B1FCF760FF0348FEF733
:1044A0009BFE0EB010BD000000080040540F00201D
:1044B00010B58CB024216846FBF75EFF1748002436
:1044C000154909940A940B94C0E900144FF6FF7142
:1044D000C0E902418021046181610320CDE900042B
:1044E00001200494CDE902046946CDE905400B485A
:1044F00007940894FEF74EFC08B1FCF72FFF07481D
:1045000009A909940B94FEF757FA002801D0FCF78B
:1045100025FF0CB010BD0000000C0040A00F0020D3
:1045200010B59AB000241C2117940BA81894159468
:104530001694129413941494FBF71EFF2C216846D2
:10454000FBF71AFF2F482E49C0E9001442F62F212D
:10455000C0E9024180210461C0E90541FEF77EFA0D
:1045600008B1FCF7FBFE4FF480501590254815A9C3
:10457000FEF7A0FB08B1FCF7F1FE2248FEF719FF99
:1045800008B1FCF7EBFE1F4812A91294139414947F
:10459000FEF712FA08B1FCF7E1FE6020CDE90B044A
:1045A000184808220BA90D940E940F94109411949E
:1045B000FEF76DFE08B1FCF7D1FE12480C220BA9E4
:1045C000FEF765FE08B1FCF7C9FE4FF400500094F9
:1045D000019469460294CDE90440000303940694D3
:1045E000CDE90740074809940A94FEF79FF908B1FE
:1045F000FCF7B4FE0348FEF7EFFD1AB010BD000053
:1046000000040140EC0F002010B58CB00024684677
:104610001C210794089409940A94FBF7ADFE1E48E8
:104620001C49C0E9001442F62F21C0E9024104618F
:1046300080218161FEF712FA08B1FCF78FFE4FF47A
:1046400080500790144807A9FEF734FB08B1FCF727
:1046500085FE1148FEF7ADFE08B1FCF77FFE602035
:104660006946CDE900040C48002202940494FEF748
:104670000EFE08B1FCF772FE074804226946FEF7F9
:1046800006FE08B1FCF76AFE0348FEF7A5FD0CB074
:1046900010BD000000400140381000200D480C22E1
:1046A0000B4910B501604FF4165141600021816043
:1046B000C160C0E904128161C16101624162FFF71A
:1046C000E7F8002803D0BDE81040FCF747BE10BD56
:1046D000004C0040581100200D480C220B4910B529
:1046E00001604FF4E131416000218160C160C0E9A7
:1046F00004128161C16101624162FFF7C9F80028BB
:1047000003D0BDE81040FCF729BE10BD00500040AA
:10471000D01000200D480C220B4910B501604FF459
:10472000E131416000218160C160C0E90412816112
:10473000C16101624162FFF7ABF8002803D0BDE818
:104740001040FCF70BBE10BD007C0040E0110020C3
:104750000D480C220B4910B501604FF41651416011
:1047600000218160C160C0E904128161C161016200
:104770004162FFF78DF8002803D0BDE81040FCF738
:10478000EDBD10BD00100140681200200D480C2244
:104790000B4910B501604FF4165141600021816052
:1047A000C160C0E904128161C16101624162FFF729
:1047B0006FF8002803D0BDE81040FCF7CFBD10BD56
:1047C00000440040F01200200D480C220B4910B5A7
:1047D00001604FF4E131416000218160C160C0E9B6
:1047E00004128161C16101624162FFF751F8002842
:1047F00003D0BDE81040FCF7B1BD10BD004800403B
:10480000781300202DE9F0474FF000048846070098
:1048100025469AB006D03878FF2803D04D49087F46
:10482000342801D3052050E08A460CE0342901D316
:1048300002204AE003F0C4FEFF2812D0385D641C59
:10484000E4B2642C02D2395DFF29EFD1002CE9D00B
:10485000381910F8011C4145E4D1642C03D304201D
:1048600033E0032031E0DFF8F09099F8000028B140
:10487000401EC6B2384900200E3103E00026F9E799
:10488000401CC0B23218642AEBD28A5CFF2A01D0E5
:104890004245F5D132188B5C4345E2D1401C6B4652
:1048A000C0B207E08A5CFF2A09D05A556D1C401C33
:1048B000EDB2C0B2642D02D23218642AF2D360196C
:1048C000C0B23218642A05D3012004F003FD1AB0E7
:1048D000BDE8F087002007E006EB000817F800C0ED
:1048E000401CC0B201F808C0A042F5D300203444F7
:1048F00007E004EB000813F800C0401CC0B201F848
:1049000008C0A842F5D3FF238B54521CD0B202E05A
:104910000B54401CC0B26428FAD339789AF81C00B2
:1049200003F04EFEFF289CD00C4900EB40001822FB
:1049300001EBC00107483430FBF7F7FC0649761C51
:1049400089F800600020891FC87006F079F80020FF
:10495000BDE70000F8E70020A600002018010020B5
:104960002DE9F04105004FF0000406D02878FF281B
:1049700003D03149087F342801D3052022E088463E
:104980000CE0342901D302201CE003F019FEFF28BB
:104990000DD0285D641CE4B2642C02D2295DFF298D
:1049A000EFD1002CE9D0642C03D304200AE00320CB
:1049B00008E0224F387848B1401EC6B23319642B44
:1049C00006D30120BDE8F04104F084BC0026F5E7E1
:1049D0001A4900200E3106E006EB000C2A5C401C50
:1049E000C0B201F80C20A042F6D3FF22CA545B1CCF
:1049F000D8B202E00A54401CC0B26428FAD3895DE0
:104A000098F81C0003F0DCFDFF28D0D00C4900EB27
:104A10004000182201EBC00107483430FBF785FC49
:104A20000649761C3E700020891FC87006F008F801
:104A30000020BDE8F0810000F8E70020A60000207B
:104A400018010020FEE7FEE72DE9F047002480462C
:104A50002DED0C8BB0EE649AF0EE449AB0EE63DA72
:104A6000B0EE43AAF0EE62AAB0EE42BAF0EE61BA3E
:104A7000B0EE41CAF0EE60CAB0EE408ADFED478A80
:104A80000420FCF7C9FA464F97F8740000287DD13E
:104A9000444D454EDFF8149185ED038AC6ED01CAF9
:104AA00099ED028AB5EEC0DAF1EE10FA08DDF0EE0B
:104AB0004D0AB0EE6C0A04F02FFA86ED010A01E00F
:104AC000C6ED01CAB8F1000F05D0E4B1012C23D026
:104AD000022C41D12BE024B1012C08D0022C3BD177
:104AE0000BE0B4EECC8AF1EE10FA11DA34E0B4EE59
:104AF000CB8AF1EE10FA14DA2EE0B4EECA8AF1EEA7
:104B000010FA47D918E0B4EECC8AF1EE10FA23D8A7
:104B10000124C5ED03BA1FE0B4EECB8AF1EE10FA22
:104B20001AD8C5ED03AA0224D5ED078A14E0B4EE25
:104B3000CA8AF1EE10FA2DDAB5EEC09AF1EE10FA4B
:104B40000ADD95ED070A30EE680AB0EEC00AB4EE51
:104B5000C90AF1EE10FA1DDA97F87400002819D18D
:104B6000F5EEC09AF1EE10FA0EDD95ED070AB0EE03
:104B7000C00AB4EEE90AF1EE10FA05DBBDEC0C8BCD
:104B8000BDE8F047FCF7BAB8052000E002E006F007
:104B900033FF85E7BDEC0C8BBDE8F087000000001B
:104BA00080E700202C0E00200C0E002070EB00206F
:104BB00008B10E2801D900207047034901EB80009D
:104BC00050F8040C70470000F8C900082DE9F04FB8
:104BD00000242DED068B81B0DFEDA2AAA24DCDED14
:104BE00000AAF3EE049AB3EE098A287FB0EE69AA10
:104BF0000128B2EE040A02D0092802D006E0B0EE85
:104C0000698A0320B0EE40AA04F0C2F90220B0EE97
:104C10006A1AF0EE480AB0EE480AFCF747F9FCF7CA
:104C20008BF832206946FCF71FFDDFF840824FF415
:104C30007A7B8F4FDFF83CA2F1EE048A34B1012C6D
:104C400047D0022C7DD0032C7CD19CE0B0EE4A0AE8
:104C500000F016F9002827D09DED000AB5EEC00A35
:104C6000F1EE10FA03D103F089FC8DED000A287FE4
:104C700098ED000A012818D030EE281AF0EE6A3AB2
:104C800030EE292A0020F0EE634AB0EE634AB0EE1F
:104C9000413AF2EE082AF2EE081ADDED000AB3EE10
:104CA000090AFFF7D1FE0124CCE070EE280A70EE6D
:104CB000291A0020B2EE082AF0EE602AB2EE081A95
:104CC000B3EE090A06F0B0FB03F058FC8DED000AC4
:104CD000E9E704209DED001AF2EE080AB2EE080A98
:104CE000FCF7E4F8644E4FF4807402E0052006F00F
:104CF00083FE21463046FCF7D3FF0028F6D1FBF7B0
:104D0000FDFF0121584602F007FCFBF7F7FF642086
:104D100006F072FED5ED090A97ED000A04F062FE76
:104D200003F02CFC8DED000AB0EE401A0420F2EEE8
:104D3000080AB1EE080AFCF72FF8FBF7DFFF642042
:104D400001E012E07DE006F057FE04209DED001A20
:104D5000FAEE080AB1EE080AFCF71EF8FBF7CEFFE0
:104D6000C82006F049FE02246CE0FBF7C7FF642070
:104D700006F042FEFCF786F901215A460846FFF785
:104D8000ABF903245EE00420FCF746F9B2EE080A12
:104D90008AED030A564603F0F1FB3848444680ED9D
:104DA000010A02E0052006F027FED4ED000A97ED87
:104DB000020A70EEE80AB4EEE00AF1EE10FAF1DC55
:104DC00003F04EFB032004F0E3F8B3EE040AFCF713
:104DD00035F90220FCF720F997ED028A07F0E4FA92
:104DE000B2EE009A4FF4FA59044697ED020AB4EE77
:104DF000C80AF1EE10FA01D2B0EE408A78EE090A44
:104E0000B4EEE00AF1EE10FA08DC07F0CDFA001B70
:104E1000484503D8052006F0EFFDE6E7D5ED0F0A7B
:104E200097ED000A04F0DEFD03F01AFB032004F006
:104E3000AFF8B6EE000A86ED080AB3EE0E0AFCF7EC
:104E4000FDF80424052006F0D7FD042C7FF4F6AE0F
:104E50000021084602F0D8FB01B0BDEC068BBDE88E
:104E6000F08F000000000000F8E700207C0D00201B
:104E700070EB00202C0E0020000C02400C0E0020D5
:104E80000E4800220F49D0ED020A0D4890ED001A9D
:104E900070EEC10AF0EEE00AF4EEC00AF1EE10FA8C
:104EA00008DD0878401CC0B20870052803D3012033
:104EB0000A7070470A7000207047000070EB0020F5
:104EC0007C0D00209C00002010B54C491C222DEDCB
:104ED000028B8EB06846FBF728FA49491C2207A8C6
:104EE000FBF723FA4548B3EE0C0A80ED000A9FED6C
:104EF000450A80ED010A9FED440A80ED020ADFEDCC
:104F0000438A0220F2EE080AB0EE681AB2EE080AEE
:104F1000FBF7CCFFFBF710FF3D4CBFEE008A10E023
:104F200003F0FEFB2088C0F3C110032806D1207ACD
:104F3000052803D203F022FBB0EE408A052006F0DC
:104F40005BFD207A0828EBD318EE100A10F1814F90
:104F500003D103F013FBB0EE408A2E48F1EE040AB1
:104F6000F0EE683A90ED000A0020F1EE044A30EECF
:104F7000201AF1EE0C0AB0EE634A30EE202AB0EEB1
:104F8000413AF2EE082AF2EE081AF0EE480AB3EEC1
:104F9000090AFFF759FDFBF7B1FE4FF47A7420467A
:104FA00006F02AFD0121204602F0B6FA0420B0EEF8
:104FB000481AF2EE080AB1EE080AFBF7EDFEFBF71D
:104FC0009DFEC82006F018FDFCF75CF80121224682
:104FD0000846FFF781F809481C226946FBF7A5F946
:104FE00007481C2207A9FBF7A0F90121084602F097
:104FF0000BFB0EB0BDEC028B10BD00000CEA0020D4
:1050000060EA00206F12833B00009643000000001E
:10501000C4EB00207C0D002070B5B0EE401A2DEDE1
:10502000048B03F0ABFA3F4C00259FED3D9AF0EE68
:10503000408A2078B0EE498AA0B3F0EE680A94ED79
:10504000010A04F00BFDB0EE408AC4ED018A94ED34
:10505000020A30EE080A84ED020A94ED030AD4ED48
:10506000020A4FF0804130EE600AF0EEC00A10EE06
:10507000900A88423ADCB0EEC81A11EE100A2A4AA9
:10508000904233DC6078142804D2401CC0B26070B7
:1050900014282CD300F050F806F008FB0120BDECDA
:1050A000048B70BDFFE701202070C4ED018A84ED00
:1050B000029AB0EE410A04F007FDF0EE400AB0EEAD
:1050C000680A04F0CBFC9FED191AF0EEC00A70EEEE
:1050D000C10AF0EEE00A10EE900AB0F17E5F01DC4A
:1050E0009FED130A84ED030A6570B6E7657010EE54
:1050F000900A88420FDC0F4880ED020A80ED069A84
:10510000B1EE400A80ED010A80ED030A80ED059AB8
:1051100006F0CCFA01E006F0EBF90020BFE7000052
:1051200000000000180E00209A99993E00003443B8
:10513000000034C3B4EA0020064800219FED060AAF
:10514000017080ED010A80ED020A80ED030A4170D2
:1051500070470000180E002000000000012004F03D
:10516000CDFCFBE710B506F067FB04F021F804F076
:1051700029FB06F085FBBDE81040002006F0B2BC1C
:1051800008B50448202304A10090DA00054802F085
:10519000FAFC08BD000E002053746172745F7461E4
:1051A000736B000065510008502010B572B680F393
:1051B0001188BFF34F8FBFF36F8F62B607F0FAF815
:1051C00018B104494FF080500860002080F3118826
:1051D00010BD000004ED00E010B592B0302168462B
:1051E000FBF7CAF814210CA8FBF7C6F81F480168A2
:1051F00041F080510160006800F0805011901C481F
:10520000016841F4404101600068022400F440401C
:10521000119001200090000401908001CDE906402A
:1052200004200890D820CDE9090468460B94FDF7C6
:10523000C3F908B172B6FEE7FCF7FEFD08B172B61D
:10524000FEE70F20CDE90C0400200E904FF4A05093
:105250000F904FF48050109007210CA8FDF79EF896
:10526000002801D072B6FEE712B010BD40380240EF
:10527000007000400248016841F47001016070470D
:1052800088ED00E0044810B5FDF700FFBDE81040D0
:105290000248FDF7FBBE0000700E00203810002011
:1052A0000148FDF7F3BE0000700E0020044810B561
:1052B000FDF7ECFEBDE810400248FDF7E7BE000038
:1052C000700E0020841000200148FDF7DFBE0000B2
:1052D000700E00200148FDF7D9BE0000BC0E002072
:1052E0000148FDF7D3BE0000080F00200148FDF77C
:1052F000CDBE0000540F00200148FDF7C7BE0000DE
:10530000A00F002005480068C168C943C90701D142
:10531000891E01610148FDF7B9BE00002CEC002098
:105320000148FDF7B3BE0000EC0F00200148FDF777
:10533000ADBE0000EC0F0020044810B5FDF7A6FE3E
:10534000BDE810400248FDF7A1BE0000EC0F0020B0
:10535000601400200148FDF799BE0000EC0F00200A
:10536000F0B502684FF0804E264D274E274FA842D9
:10537000DFF89CC0274B09D0704507D0B04205D05C
:10538000B84203D0604501D0984203D122F07004A6
:105390004A682243A8421BD0704519D0B04217D0AA
:1053A000B84215D0604513D0984211D01A4CA04293
:1053B0000ED01A4CA0420BD0194CA04208D0194C68
:1053C000A04205D0184CA04202D0184CA04203D1F4
:1053D00022F44074CA6822434C6922F080022243BE
:1053E0008C68C4620C688462A84201D0984201D1E2
:1053F00009690163016841F0040101600121416113
:105400000260F0BD000001400004004000080040C0
:10541000000C0040000401400040014000440140F5
:105420000048014000180040001C004000200040DF
:10543000012301F01F0110B5046A8B409C430462F4
:10544000036A8A401343036210BD10B5846842EAC0
:1054500003220A4324F47F442243826010BD826801
:1054600022F070020A4342F0070181607047000099
:10547000F0B5056A026A22F001020262426883699D
:1054800025F00205114C124E23400C6823F0030353
:10549000104F1C438B682B43B04201D0B84205D15A
:1054A000CD6823F008031D4325F00403B04201D06A
:1054B000B84205D14D6922F4407215438A692A43E6
:1054C00042608461496841630362F0BD8FFFFEFF63
:1054D0000000014000040140F0B5056A026A22F0B4
:1054E0001002026242688369154C174E23400C6813
:1054F00023F4407343EA042425F020038D6843EA33
:105500000513104DA84201D0B04206D1CF6823F058
:10551000800343EA071323F04003A84201D0B042BE
:1055200007D14D6922F4406242EA85028D6942EA60
:10553000850242608461496881630362F0BD0000B6
:10554000FF8FFFFE0000014000040140F0B5056A36
:10555000026A22F4807202624268C369144C164ED9
:1055600023400C6823F003031C4325F400738D686B
:1055700043EA05230F4DA84201D0B04206D1CF68BF
:1055800023F4006343EA072323F48063A84201D095
:10559000B04207D14D6922F4405242EA05128D69AA
:1055A00042EA05124260C4614968C1630362F0BD0A
:1055B0008FFFFEFF000001400004014030B5046A87
:1055C000026A22F4805202624268C36924F40054E1
:1055D0000D4D2B400D6823F4407343EA05238D687D
:1055E00044EA0534094DA84202D0094DA84204D12D
:1055F0004D6922F4804242EA85124260C3614968E3
:105600000164046230BD0000FF8FFFFE0000014016
:105610000004014030B5056A026A22F48032026259
:105620004268436D0C4C23400C681C4325F4003346
:105630000D8943EA0543094DA84202D0084DA8420E
:1056400004D14D6922F4803242EA05224260446569
:1056500049688165036230BD8FFFFEFF0000014095
:105660000004014030B5046A026A22F4801202622A
:105670004268436D24F400140C4D2B400D6843EA3E
:1056800005230D8944EA0554094DA84202D0094D6D
:10569000A84204D14D6922F4802242EA8522426068
:1056A00043654968C165046230BD0000FF8FFFFE9D
:1056B000000001400004014010B5046A036A23F0B1
:1056C00001030362836923F0F00343EA0213836159
:1056D00024F00A020A43026210BD10B5036A046A8C
:1056E00024F010040462846923F0A00343EA01114A
:1056F00024F4704444EA02328261016210BD000069
:105700000148807870470000510D00202DE9F047D6
:10571000DFF894A150462DED028B82B09AF8041068
:10572000007F0C2902D00A2909D00CE0192802D0E8
:10573000132802D007E0002406E0012404E0132827
:105740000FD018280FD0FF24042C09D2DFF85C8179
:10575000A8F1030518F8040038B1032805D0A87093
:1057600077E00224F0E70324EEE7287850B1002028
:10577000694600F005FF38B1022002B0BDEC028B93
:10578000BDE8F0870120F3E79DF8020000F09DF8E6
:105790000300AB705DD0032B4FF0010908F8043013
:1057A0000AD0012C06D0022C04D0E4B3032C61D023
:1057B0006878C0B301225EE034B1012C07D0022C1E
:1057C0000AD0032C64D10BE0394F182602E0384F81
:1057D000BF1F13260A2507E0354F093F132602E0B5
:1057E000334FFF1E19260C253049091D085D78BB73
:1057F00034B3012C26D0022C26D0032C26D0FF2037
:1058000018F80000032824D001F80490FBF794FA5C
:10581000042054469AED091AFBEE090A9FED250A69
:10582000FBF7BAFA00E025E0FBF768FA502006F033
:10583000E3F8314638462577FEF7E4FF30BB0AE04F
:105840000320DDE70220DBE70120D9E70020D7E7CE
:10585000FFE7012091E7FBF751FA94ED0F8A02F080
:105860008DFEF0EE400AB0EE480AFBF753FC84EDE3
:10587000098A16E000220721052000F02FF838B130
:10588000FFF796F920B1FFF76BF818B1042074E721
:10589000032072E785F800906878FF2801D2401C49
:1058A0006870002069E70000F8E70020540D002030
:1058B00039CA000800002042012803D0022800D184
:1058C00009B10020704701207047012804D0022848
:1058D00002D0032800D00020704700001CB5052826
:1058E00002D0062809D00CE0072902D0082902D0EE
:1058F00007E0002407E0012405E007290DD008296E
:105900000DD04FF0FF34002C2EDB52B1012A13D002
:10591000022A1FD0032A27D124E00224F3E703241C
:10592000F1E700211846FFF7C7FF002811D011A0AA
:1059300000680090684609E000211846FFF7BCFFA8
:10594000002806D00CA00068019001A850FA84F04D
:1059500000781CBD032B07D1052801D00A201CBDEF
:1059600009201CBD032B01D000201CBD0B34E0B26C
:105970001CBD0000010205060304070810B5214CF8
:105980002DED028BA0789FED208A10B1B0EE480A71
:105990000AE01E4890ED000AFBF7C0F9D4ED040AB6
:1059A00030EE600AFBF7BAF9DFED190A19481A4C14
:1059B00030EEC00AF7EE000A10EE101A80ED020A6F
:1059C000C0ED060AB1F1804F0DDA144984ED018A69
:1059D00084ED008A80ED048A80ED008A0020087042
:1059E000BDEC028B10BD0E490A4804F0A5FAD4EDB7
:1059F000040A02F0B9F884ED000AB1EE400A84ED21
:105A0000010AEDE7180E00200000000070EB0020F6
:105A10000000B443B4EA00202C0E0020DB0D00206F
:105A200044EA00200020B0EE001AF7EE000A05F06C
:105A3000B3BD00000148FDF7D5BD0000581100209E
:105A40000148FDF7CFBD0000D01000200148FDF750
:105A5000C9BD0000E011002090F82410090706D508
:105A600001684A68436B22F400421A434A6090F886
:105A70002410C90706D001684A68836A22F40032FC
:105A80001A434A6090F82410890706D501684A68CD
:105A9000C36A22F480321A434A6090F824104907FE
:105AA00006D501684A68036B22F480221A434A60D3
:105AB00090F82410C90606D501688A68836B22F421
:105AC00080521A438A6090F82410890606D501682E
:105AD0008A68C36B22F400521A438A6090F824103B
