:020000040800F2
:1000000050EF0020A502000847420008D33900083D
:1000100045420008E90800084556000800000000B5
:10002000000000000000000000000000E1010008E6
:1000300025110008000000003D0200083D480008AE
:10004000BF020008BF020008BF020008BF0200088C
:10005000BF020008BF020008BF020008BF0200087C
:10006000BF020008BF020008BF020008BF0200086C
:1000700069100008BF02000875100008BF020008E0
:10008000BF020008BF020008BF020008BF0200084C
:10009000BF020008BF020008BF020008BF0200083C
:1000A000194900085D490008414900083549000820
:1000B000694900087549000881490008BF02000825
:1000C000BF020008BF020008BF020008BF0200080C
:1000D000BF02000815550008215500082D550008DD
:1000E000BF020008BF020008BF020008B5490008AF
:1000F000E9490008CD490008C1490008BF020008CD
:10010000BF020008BF0200088D490008BF020008B6
:10011000BF020008C94E0008BF0200089949000844
:10012000BF020008BF020008BF020008BF020008AB
:10013000BF020008BF020008BF020008BF0200089B
:10014000BF020008BF020008BF020008BF0200088B
:10015000BF020008BF020008BF020008BF0200087B
:10016000BF020008BF020008BF020008BF0200086B
:10017000BF020008BF020008BF020008BF0200085B
:10018000BF020008BF020008D54E0008E14E00087B
:10019000BF020008BF020008BF020008BF0200083B
:1001A000BF020008BF020008BF020008BF0200082B
:1001B000BF020008BF020008BF020008BF0200081B
:1001C000BF020008BF020008DFF810D000F0FEF800
:1001D00000480047ED5F0008AFF3008050EF0020BB
:1001E0002D4B19680868B0E8F04F80F30988BFF319
:1001F0006F8F4FF0000080F31188704700000000FF
:1002000008480068006880F308884FF0000080F319
:10021000148862B661B6BFF34F8FBFF36F8F00DFF4
:1002200000BF00BF08ED00E0DFF80C00016841F4FA
:1002300070010160704700BF88ED00E0EFF30980B6
:10024000BFF36F8F144B1A681EF0100F08BF20ED1C
:10025000108A20E9F04F106009B44FF0500072B6D8
:1002600080F31188BFF34F8FBFF36F8F62B607F033
:10027000E7FF4FF0000080F3118809BC1968086897
:10028000B0E8F04F1EF0100F08BFB0EC108A80F3FA
:100290000988BFF36F8F704714000020EFF30580CB
:1002A000704700000648804706480047FEE7FEE723
:1002B000FEE7FEE7FEE7FEE7FEE7FEE7FEE7FEE716
:1002C00009490008C90100082DE9F05F0546002032
:1002D00092469B4688460646814640241BE02846B7
:1002E00041464746224600F061F853465A46C01A36
:1002F000914110D311461846224600F048F82D1AB5
:1003000067EB01084F4622460120002100F03FF82C
:1003100017EB00094E41201EA4F10104DFDC484622
:1003200031462A464346BDE8F09F10B5431A934232
:1003300009D28318881803E010F8011D03F8011D85
:10034000521EF9D210BD40EA01039B0703D009E019
:1003500008C9121F08C0042AFAD203E011F8013BB1
:1003600000F8013B521EF9D210BDD2B201E000F8F4
:10037000012B491EFBD270470022F6E710B5134649
:100380000A4604461946FFF7F0FF204610BD202A12
:1003900004DB203A00FA02F1002070479140C2F1DC
:1003A000200320FA03F3194390407047202A04DB0E
:1003B000203A21FA02F00021704721FA02F3D040DE
:1003C000C2F120029140084319467047064C074D80
:1003D00006E0E06840F0010394E807009847103415
:1003E000AC42F6D3FFF7F4FE6C8F00088C8F000848
:1003F00070B58D1810F8014B14F0030201D110F8FC
:10040000012B231106D110F8013B03E010F8016B1A
:1004100001F8016B521EF9D1ABB110F8012B04F0B9
:100420000C048A1A0C2C03D0A2EB84129B1C08E04B
:1004300010F8014BA2EB0422F8E712F8014B01F887
:10044000014B5B1EF9D5A942D4D3002070BD00003A
:10045000F0B500242DED068B89B0DFED7A8A7A495C
:100460000320B0EE681A8DED081A8DED071AB0EE74
:1004700041AAB0EE418A08700220F3EE040AB3EEFE
:10048000040A00F0B9FA00F04FFA704D0026704FE0
:10049000F3EE049AB1EE049A052C75D2DFE804F06D
:1004A000033B758AA300022000F062FBB3EE040A4E
:1004B00000F068FB322008A900F0C2FFB1EE040A88
:1004C00004F05EF8002825D06248D5ED090A90EDC9
:1004D000000A06F0F1F81C216846FFF74DFF5E4860
:1004E0001C226946FFF721FF5C4806604660866073
:1004F00095ED090A8DED080A05F07EF9B0EE40AAE7
:100500000420B0EE4A1AF3EE040AB3EE040A00F037
:1005100073FA01248CE097ED000A0020F0EE683AAF
:1005200030EE292A30EE091AF2EE082AF3EE091A03
:1005300032EE293AF0EE4A0AB3EE090A03F084FEDD
:1005400000F0F2F90420B0EE4A1AF2EE080AB2EE18
:100550000E0A00F001FA97ED000A0020F0EE683A6A
:1005600030EE093AF2EE082AB0EE682AF2EE081AE6
:10057000B0EE681AF0EE4A0AB2EE080A03F064FE22
:1005800000F0D2F9022453E051E09DED080A05F095
:1005900033F9B0EE408A8DED070AB0EE401A042020
:1005A000F3EE0E0AB3EE0E0A00F026FA00F0BCF9E4
:1005B00003243DE0B0EE480A07A805F037F900F043
:1005C0000FFAB0EEC00A10EE100A254988422FDB60
:1005D00004209DED071AF2EE080AB2EE080A00F0B8
:1005E0000BFA042424E097ED000A0120F0EE683AAB
:1005F00030EE491A30EE692AF3EE042AF2EE081AB8
:10060000B0EE413ADDED070AB2EE080A03F01CFE37
:100610000220B0EE681AF3EE090AB3EE090A00F000
:10062000EBF985F83060287840F004002870052444
:10063000052007F0B1FC052C7FF42EAF09B0BDEC0E
:10064000068BF0BD00000000580D0020A4E700203C
:10065000480D002044EA0020A4E90020F4EA00202C
:100660000000824230B500242DED028B81B09FED59
:100670003F1A02208DED001AF2EE080AB2EE080AC7
:1006800000F0BAF90A2007F087FC00F04DF9384D68
:100690009FED388A24B1012C21D0022C51D139E0B0
:1006A0003220694600F0CCFEB2EE0E0A03F068FF7D
:1006B00078B39DED000AB5EEC00AF1EE10FA03D151
:1006C00005F09CFA8DED000AB0EE401A0420F2EE1F
:1006D0000E0AB2EE0E0A00F08FF9012432E095ED19
:1006E000000AF1EE040A002030EE201AF2EE0E0AA3
:1006F000F0EE483A30EE202AB0EE413AF2EE082A07
:10070000F2EE081ADDED000AB2EE080A03F09CFDD5
:10071000022417E095ED001AB0EE080A012031EE30
:10072000403AB2EE000AF0EE483A31EE402AF2EEDC
:10073000082AF2EE081ADDED000AB2EE080A03F00C
:1007400083FD0324052007F027FC032CA2D100F031
:10075000CDF80948002180F83010017841F00401FB
:10076000017001B0BDEC028B30BD00000000000044
:10077000480D0020CDCC4C3DA4E700202DE9F04FE2
:100780004C491C222DED028B8FB0B0EE408A68469A
:10079000FFF7CBFD48491C2207A8FFF7C6FDDFF88D
:1007A0001C81444698F90470DFF814B15D469BF84B
:1007B000006000F0C7F84FF0030A85F800A04FF082
:1007C000000984F80490DFED3F8A0220F3EE040A6A
:1007D000B0EE681AB3EE040A00F00EF900F0A4F8C7
:1007E000394D3A4C1CE005F0DBFA00F011FC3848BA
:1007F0000088C0F3C110032806D13648D5ED090A98
:1008000090ED000A05F058FF00F0EAF8B0EEC00ADB
:1008100010EE100A3049884208DA052007F0BCFBC8
:10082000207A0428DFD9607A0128DCD021489FEDA6
:100830002B0A80ED000AC0ED018AC0ED028A88F81B
:1008400004A000F071F80220B0EE681AF2EE080A77
:10085000B2EE080A00F0D0F802E0052007F09CFB99
:1008600000F0BEF8B0EEC00AB4EEC80AF1EE10FA1D
:10087000F3D31B484C4680F800901A4880F800904B
:1008800088F804708BF800601C220A486946FFF75C
:100890004CFD09481C2207A9FFF747FD85F83040A9
:1008A000287840F0040028700FB0BDEC028BBDE842
:1008B000F08F0000E0E8002034E90020600D002007
:1008C000580D002000000000A4E7002098EA002056
:1008D000A4EA002044EA00200000204200000C426C
:1008E000AA0D0020AB0D0020FEE70000002010B58F
:1008F00000F03EF904489FED030A80ED000A80ED08
:10090000010A10BD00000000EC0D0020B5EEC00A89
:10091000F1EE10FA05D2B0EEC00ADFED020A30EEB9
:10092000C00A70470000B44310B505F0D9F8044878
:100930009FED020A80ED070A10BD000000000000D4
:10094000EC0D002010B504F09DFE0248002101715D
:10095000C18010BD8CE7002070B505462DED048BDD
:10096000B0EE408AB0EE419AB5EEC08AF0EE608AF1
:10097000F1EE10FA1CD9FFF7D7FF284600F0F8F87F
:100980000D4C042D02D0C4ED028A08E00B48C4EDE2
:10099000038A80ED019A02E0052007F0FDFAD4ED0C
:1009A000070AF0EEE00AF4EEC80AF1EE10FAF3D30B
:1009B000BDEC048B70BD0000EC0D0020D80D0020B4
:1009C0000248012101710021C18070478CE700209D
:1009D0000248012101750021817570478CE70020D4
:1009E000014890ED070A7047EC0D00200148407D5A
:1009F000704700008CE7002010B504462DED048BF5
:100A0000F0EE418AB0EE609AB0EE408A00F0B0F8A5
:100A10000949022C81ED008A81ED019A09D0042C4C
:100A200004D1064881ED038AC0ED018ABDEC048B38
:100A300010BD81ED028AF9E7EC0D0020D80D0020F1
:100A400070B5434C607D00287ED1207D002588B1A3
:100A500006F038FE10EE100A3E49884209DBA07D00
:100A6000401CC0B2A075032804D301206075A57591
:100A70006AE0A5753848007802285CD12079374BA8
:100A80003749384A68B3108830F4707002D0E08873
:100A9000401C06E0B4F90600002806DDC8280EDA7E
:100AA0000A38E08000B2002807DC94ED020AB5EEB7
:100AB000C00AF1EE10FA02DC35E0C82811DB25711E
:100AC000E58094ED000A83ED020A94ED020AB5EE8A
:100AD000C00AF1EE10FA26DD81ED000A94ED030A5A
:100AE0001FE0B4F9060000281DDD012807D191EDB3
:100AF000000A84ED020A91ED020A84ED030A94EDE6
:100B0000000AF6EE000A20EE200A83ED020AB2EE99
:100B1000080A81ED000A9FED140A81ED010A9FED9C
:100B2000130A81ED020A207C002804D0107A08B94B
:100B3000507A08B1658270BD608A401C00B2608244
:100B4000C828F8DB65822574BDE87040FFF7CEBE8B
:100B50008CE7002000003442A50D0020EC0D0020A1
:100B6000E0E8002098EA0020000000000000484370
:100B700010B5044604F086FD2046BDE8104005F09F
:100B800067BF000010B50B482DED028BB0EE408A18
:100B900080ED008A05F0C4F9074801780748042968
:100BA00004D080ED028ABDEC028B10BD80ED038A7B
:100BB000F9E700008CE70020A50D0020EC0D0020D7
:100BC00010B51B491C222DED028B88B06846FFF73B
:100BD000ACFB184C9FED180A154894ED048A84ED7F
:100BE000040A9FED160A80ED000A9FED150A80EDBC
:100BF000020A9FED140A80ED010A04F0FFFFDFED09
:100C0000120A30EE200AF1EE000A04F05BFEFFF754
:100C10006DFE4FF4967007F0BFF905481C2284ED75
:100C2000048A6946FFF781FB08B0BDEC028B10BD5A
:100C300018E90020EC0D002000000C429A99993E22
:100C4000000050420000000000003243F0EE080AAD
:100C500004F038BE2DE9F04FDF4D0327DF4C4FF095
:100C60000009DFF87CB3DF4E2DED028B87B068788A
:100C700010B1012872D0CDE028784FF0020A4FF071
:100C8000010810B101281AD024E0FFF74DFE307F93
:100C9000072803D196F8340006280BD0306A0105E6
:100CA00001D5404602E0C10402D55046207002E062
:100CB000000325D5277085F8029085F8008096ED11
:100CC0000B0AFFF75FFF0220FFF752FFFFF778FEE6
:100CD00085F800A0FFF784FE308DF0EEC00A00EE2C
:100CE000100AB6EE001AB8EE400A20EE010AF4EE41
:100CF000C00AF1EE10FA1ADB2878022802D016E0BA
:100D00004846D3E7307F072803D196F834000628F9
:100D100004D0306A810304D5404600E0504620707C
:100D200004E04103FAD4800200D527702F70FFF74A
:100D300057FE308DF0EEC00A00EE100AB8EE400A01
:100D40009FEDA91AA87820EE010AF4EEC00AF1EE90
:100D500010FA04DB20B985F8028001E050E0E8B326
:100D60003078400749D405F01BF8A048316A04F0F8
:100D70000FFE98B3307840F004003070FFF730FE7B
:100D8000308DF0EEC00A00EE100AB8EE400A9FED7A
:100D9000981A20EE010AF4EEC00AF1EE10FA29DBEF
:100DA00004F02CFFD6ED0F0A05F0A6FCB0EEC08AC9
:100DB000D6ED0F0A96ED090A05F09EFC18EE100A12
:100DC000B0EEC00A58450ADB10EE100A584506DBA3
:100DD000306AC00203D4B3EE090A09E00AE096EDD6
:100DE000110AD6ED0B0AB4EEE00AF1EE10FA01D2C8
:100DF000FFF7C8FE307840077ED585F801800CE00B
:100E000096F8300005F08EF985F8019085F800908D
:100E100085F80290307840076ED5307820F00400D5
:100E2000307004F0EBFED6ED0F0A05F065FCB0EE75
:100E3000C08AD6ED0F0A96ED090A05F05DFC18EEA2
:100E4000100AB0EEC00A584506DB10EE100A5845ED
:100E500002DB306AC10209D5FFF766FD96ED110A83
:100E6000FFF790FE0220FFF783FE4BE0800504D4DD
:100E700018EE100A5F49884218DD04F0BFFEB0EE9C
:100E8000401A0420F3EE090AB2EE0E0AFFF764FDE1
:100E9000FFF72CFD642007F07FF804F0AFFEF0EEC2
:100EA000400A96ED0F0AFFF7D1FE2BE004F0A6FEF4
:100EB000B0EE401A0420F3EE090AB1EE040AFFF77F
:100EC0004BFD032005F0C4FD4B4896ED0F0A4B4D3A
:100ED00080ED000A02E0052007F05EF804F08EFEC7
:100EE000D6ED0F0A05F008FCB0EEC00A10EE100AAD
:100EF000A842F0DC002000E030E005F0A9FD32203F
:100F000007F04AF837491822301D1C310D46FFF70B
:100F10000CFA34491822284634318846FFF705FA7E
:100F20002D4DED1CA91C2878095CFF2911D0401C0F
:100F30002870307F04F084FE314900EB4000182215
:100F400001EBC0014046FFF7F0F9307907280AD0DD
:100F500031E0FFF7CBFC6878401C687007B0BDEC4F
:100F6000028BBDE8F08F307F062824D196F834003C
:100F7000032820D12348D6ED090A90ED000A05F098
:100F80009BFB1C216846FFF7F7F91F481C226946A6
:100F9000FFF7CBF91D48F3EE090AB2EE040AC0F8D8
:100FA0000090C0F80490C0F80890042096ED091A4B
:100FB000FFF7D2FC2770FFF7B7FC96ED0B0AFFF79F
:100FC000E1FD0220FFF7D4FD07B0BDEC028BBDE8C8
:100FD000F04FFFF7F5BC000094000020580D0020F2
:100FE00000002041A4E700209A99993E98EA002049
:100FF0003333333F0000B442D80D0020000040409E
:101000000001002044EA0020A4E90020F4EA0020C6
:101010002DE9F04100252C4606F0E0FA0D4A10803B
:1010200000200123168803FA00F73E4209D01688F3
:10103000641CE4B2471C03FA07F10E4201D16D1C97
:10104000EDB2401CC0B21028ECD355721472BDE84A
:10105000F0810000A4EA00200248002101704170E4
:101060008170704794000020014800F069BA0000C8
:101070000C140020014800F063BA0000AC130020FB
:1010800001681823CAB2103AB2FBF3F2054B6FF3B2
:101090000901032A9B5CC36500D9091D81650846C7
:1010A00070470000688E0008014610B500208B696B
:1010B0004FF0C0748A6A53B1B3F5005F15D072B1B6
:1010C000012A0CD0022A0AD0032A09D104E01AB15D
:1010D000012A06D0022A03D1C96AC90100D501201C
:1010E00010BDC96AA142FAD010BD002AF7D0012A6A
:1010F000F2D0022AF3D0032AF3D010BD30B5046831
:10110000256825F480252560046863608368402B8A
:10111000036803D099600068C26030BD9A600068BF
:10112000C16030BD704700001848002110B501F0C3
:101130001DFE1648042101F019FE144801F02EFC92
:101140001348002101F012FE1148042101F00EFEA7
:101150000F4801F023FC0F48002101F007FE0D4865
:10116000042101F003FE0B4801F018FC0A4800219D
:1011700001F0FCFD0848042101F0F8FD064801F0EB
:101180000DFCBDE81040054801F008BC1C0E002015
:10119000680E0020B40E00204C0F002030100020FC
:1011A00072B6FEE72DE9F04700242DED028B90B0DA
:1011B0009FED6E8A14216846FFF7DEF8142105A81A
:1011C000FFF7DAF80020DFF8A8C105AF03460DF1FC
:1011D00038090146EA460E900F9001EB41020CEBF4
:1011E0008202157A1DB1157A022D05D012E009F898
:1011F0000410641CE4B20DE0D2ED010A0AEB800594
:10120000C5ED000AD2ED000A07EB8002401CC2EDDA
:10121000000AC0B2491C0529DFDB032C04D284423A
:101220004FF07E5810D3ACB100204A4609E0115C63
:10123000401C01EB41010CEB810191ED010A30EE04
:10124000088AA042F3DB84E024B100220A930B93C6
:101250000AAB5DE080B3012804D000220C930D930B
:101260000CAB22E09DED000A10B0BDEC028BBDE896
:10127000F087511C07EB820514E007EB8104D5EDE4
:10128000000A94ED001A70EEC10AF0EEE00A10EECA
:10129000904A444505DC9C5C641C9C545C5C641C6A
:1012A0005C54491C8142E8DB521C8242E1DB002590
:1012B0009DF83020294606E00BE05C5C944201D9A1
:1012C0002246CDB2491C8142F7DB12B10AEB850000
:1012D00048E0B0EE480AC7E7511C07EB820614E06D
:1012E00007EB810596ED000AD5ED000A30EE600AA5
:1012F000B0EEC00A10EE105A454505DC9D5C6D1C31
:101300009D545D5C6D1C5D54491C8142E8DB521CA0
:101310008242E1DB00269DF82820314605E05D5C35
:10132000954201D92A46CEB2491C8142F7DB521CB4
:10133000944215D300204A4609E0115C401C01EBA1
:1013400041010CEB810191ED010A30EE088AA042C7
:10135000F3DB00EE104AF8EE400A88EE200A83E73D
:101360000AEB860090ED000A7EE700000000000016
:10137000680D002070B52DED028BB0EE408A04F0B0
:101380000FFD254C254D607810B1FFF70BFF02E0F3
:10139000234890ED010A204885ED020A08302149D2
:1013A00090ED000A1D4885ED060A05F04BFC10EE95
:1013B000100A1D4984ED010A884202DB9FED1B0AD9
:1013C00006E010EE100A1A49884203D39FED190A6D
:1013D00084ED010A9FED181AB0EEC80AB5EEC08A76
:1013E000C0EE010A94ED010A20EE800AF1EE10FA37
:1013F00084ED010A03D2B1EE400A84ED010A0F48E0
:1014000078EE400A38EE000AC0ED000A80ED010ACD
:10141000BDEC028B70BD0000580D00206CE900206F
:1014200098EA0020E0E8002000004843000048431C
:10143000000048C3000048C300002042EC0D00201B
:1014400070B500240E4605462DED028B9FED0C8AEB
:1014500008E004F0D3FB052030EE088A06F09CFD7E
:10146000641CE4B2AC42F4D300EE105AB8EE400A69
:10147000C8EE000AC6ED000ABDEC028B70BD00008C
:10148000000000002DE9F041876D044600F0CCFA21
:10149000054694F835000026022806D080206065B5
:1014A000012084F83460BDE8F0812068016821F0F3
:1014B000160101602068416921F080014161206CC2
:1014C00008B9A06C20B12068016821F00801016012
:1014D0002068016821F0010101600CE000F0A4FA2D
:1014E000401B052807D920206065032084F83500BB
:1014F00084F83460D7E720680068C007EED194F81C
:101500005C103F208840B860012084F8350000203E
:1015100084F83460C7E790F83510022903D08021A1
:10152000416501207047052180F835100068016889
:1015300021F00101016000207047406D70470000FC
:101540002DE9F843044665484FF00009CDF80090B6
:101550004FF41651A56D0068B0FBF1F72E68082115
:1015600094F85C2001FA02F030420FD02068026843
:1015700052070BD5026822F00402026094F85C0066
:101580008140A960606D40F00100606594F85C10D6
:101590004FF0010808FA01F0304208D0216849698B
:1015A000090604D5A860606D40F00200606594F8FB
:1015B0005C1004208840304208D0216809688907FF
:1015C00004D5A860606D40F00400606594F85C107C
:1015D00010208840304218D021680968090714D5C6
:1015E000A86020680168490304D50068000308D595
:1015F000A16C07E00168C90503D4016821F0080166
:101600000160216C09B12046884794F85C102020C5
:101610008840304231D021680968C9062DD5A860BC
:1016200094F8350005282068016806D0490347D59D
:10163000006800031DD4616C1CE021F016010160FC
:101640002068416921F080014161206C08B9A06CDB
:1016500020B12068016821F00801016094F85C1055
:101660003F208840A86084F8358084F83490216D4C
:101670001FE0E16B09B120468847606D00282BD040
:10168000606DC00714D0052084F83500206801681B
:1016900021F0010101600098401C0090B84203D87D
:1016A00020680068C007F6D184F8358084F834904B
:1016B000E16C002910D001B02046BDE8F043084796
:1016C0000168C905D5D4016821F01001016084F8D2
:1016D000358084F83490CCE7BDE8F8831000002012
:1016E00070B5044600F0A0F905465CB1022084F80C
:1016F0003500002684F834602068016821F001017B
:1017000001600CE0012070BD00F08EF9401B05283F
:1017100005D920206065032084F8350070BD20685D
:101720000068C007F0D121680A6820480240D4E967
:1017300001031843D4E903352B4318436369184365
:10174000A3691843E3691843236A18431043626A84
:10175000042A03D1D4E90B231A43104308602068FC
:10176000406920F00701606A042840EA01050CD1B5
:10177000A06A0543E06A40B12046FFF795FC20B11E
:101780004020606584F83560BCE7206845612046EC
:10179000FFF776FC94F85C203F21914081606665FC
:1017A000012084F83500002070BD00003F8010F05B
:1017B0002DE9F041866D044690F83400002501289B
:1017C0000DD0012084F8340094F835700020012FEA
:1017D00007D0022584F834002846BDE8F0810220B5
:1017E000FBE7022784F8357060652046FFF786FC2A
:1017F00094F85C103F208840B0602068016841F098
:10180000160101602068416941F080014161206C4E
:1018100020B12068016841F008010160206801687A
:1018200041F001010160D7E72DE9F84FDFF8B091F1
:10183000002203274FF00F0CA9F1040B09F1040A51
:10184000ABF1040E0B68012595402B40AB426ED1E5
:101850000C7904F00304012C01D0022C15D1866808
:10186000540007FA04F826EA0806D1F80C8008FAB2
:1018700004F848EA0608C0F808804468AC430D79CB
:10188000C5F300159540254345600C79E443A40752
:1018900008D0C568540007FA04F6B5438E68A64020
:1018A0002E43C6600C7904F00304022C11D1D40835
:1018B00000EB8406356A5407E40E0CFA04F825EAB6
:1018C0000805D1F8108008FA04F848EA0508C6F8B7
:1018D00020800568540007FA04F6B5430E7906F037
:1018E0000306A6402E4306604C6814F4403F70D0B7
:1018F0003C4C256845F480452560246822F00305AA
:1019000004F480440094384C05EB0408D8F80858D7
:101910009407260F0CFA06F4A543344CA04201D1DB
:1019200000242EE0324CA04202D1012429E050E0F4
:10193000304CA04201D1022423E02F4CA04201D11F
:1019400003241EE02D4CA04201D1042419E02C4CAC
:10195000A04201D1052414E02A4CA04201D1062462
:101960000FE0294CA04201D107240AE0274CA042F5
:1019700001D1082405E0264CA04201D1092400E051
:101980000A24B4402C43C8F80848D9F800404D4612
:101990004E689C43F60200D51C432C60DAF80040E8
:1019A00055464E689C43B60200D51C432C60DBF8BC
:1019B00000405D464E689C43B60300D51C432C6036
:1019C000DEF8004075464E689C43F60300D51C4384
:1019D0002C60521C102AFFF435AFBDE8F88F0000D0
:1019E000083C014044380240003001400000024001
:1019F0000004024000080240000C024000100240B7
:101A00000014024000180240001C02400020024066
:101A1000002402400069084000D0012070470AB14C
:101A2000816170470904FBE7014880687047000046
:101A300004000020024881680278114481607047E8
:101A400004000020032010B500F09EF80F2000F0E5
:101A500005F800F04FF8002010BD000030B5054635
:101A60001F4887B0016841F480710160006806A9D1
:101A700000F480700590684600F0E8FB0398B0B170
:101A800000F004FC40001749174AB0FBF1F1174879
:101A9000026040F2E732491E41600021C0E90321A3
:101AA0008160816100F094FE040003D015E000F035
:101AB000EDFBE8E70D4800F071FF04000DD12D208B
:101AC00000F034F8102D07D2002229462D2000F016
:101AD0003BF80748056000E0012407B0204630BD10
:101AE0004038024040420F00002000406C140020AB
:101AF000080000200C4882B0016841F0805101606C
:101B0000006800F0805000900748001D016841F413
:101B100080410160006800220F2100F480400090A5
:101B2000901E02B000F010B840380240002809DBD7
:101B3000012100F01F0291404009800000F1E020E7
:101B4000C0F80011704700000E4BF0B41B68C3F3DF
:101B50000223C3F10704042C00D904241D1D072D02
:101B600001D2002300E0DB1E012606FA04F56D1EFB
:101B70000D409D409E40761E164045EA0601F0BC91
:101B800003F061BD0CED00E0064A00F007011068AB
:101B90004FF6FF03184040EA012003490843106054
:101BA000704700000CED00E00000FA051848F8B599
:101BB000016841F0805101600068164D00F08050CE
:101BC0000090286840F480302860FFF72DFF4FF424
:101BD0007A76044604E0FFF727FF001BB0420FD8D7
:101BE0006868C003F7D5286840F400302860FFF724
:101BF0001BFF044606E0FFF717FF001BB04201D9A8
:101C00000320F8BD68688003F5D50020F8BD00000A
:101C100040380240007000402DE9F84F044600783B
:101C20000026DFF820943546C0070ED0D9F8001002
:101C300021F40001C9F80010D9F80010626B1143BB
:101C4000C9F80010606B00B901262068FE4F000340
:101C50000ED53868E16B20F4401008433860E06B23
:101C6000B0F5801F01D010B102E0012600E001258F
:101C70002068C0020ED53868216C20F4400008436B
:101C80003860206CB0F5800F01D010B102E0012661
:101C900000E001252068C10100D50126800666D537
:101CA000E8483830016841F0805101600068DFF891
:101CB0009CA300F080500090DAF8001041F480718D
:101CC000CAF80010FFF7B0FE804605E0FFF7ACFE53
:101CD000A0EB080064287DD8DAF80000C005F5D52F
:101CE000DFF864A3AAF11C0ADAF8000010F44070CF
:101CF0002AD0218E01F44071814225D0DAF80010FB
:101D0000DAF8002021F4407142F48032CAF8002051
:101D1000DAF8002022F48032CAF80020CAF8001055
:101D2000DAF80000C0070FD0FFF77EFE804641F2D0
:101D3000883B05E0FFF778FEA0EB08015945CAD8BB
:101D4000DAF800008007F5D5206BC0F301210329E4
:101D50007ED0D9F8001021F4F811C9F80010DAF893
:101D60000010228EC2F30B021143CAF80010207833
:101D7000C00607D5386820F0807038603868A16BDD
:101D80000843386020884104B14805D50168626E77
:101D900021F44031114301602188090405D501680F
:101DA000A26E21F44021114301602168C90305D5C9
:101DB0000168E26E21F4401111430160216889033A
:101DC00005D50168226F21F440011143016021789B
:101DD000490600E002E105D50168626C21F00301CB
:101DE000114301602178090605D50168A26C21F034
:101DF0000C01114301602188C90505D50168E26C19
:101E000021F03001114301602188890505D5016861
:101E1000226D21F0C001114301602188490505D5DB
:101E20000168626D21F44071114301602188090548
:101E300005D50168A26D21F440611143016021883C
:101E4000C90407D50168E26D21F44051114300E057
:101E50003DE001602188890405D50168226E21F4E6
:101E60004041114301602168490205D50168A26F14
:101E700021F080611143016021684FF000698902FF
:101E800009D50168E26F21F0006111430160E16F43
:101E9000494500D1012521680A0700D501254903DC
:101EA00005D50168626F21F040711143016021681E
:101EB000090206D50168D4F8802021F08051114331
:101EC0000160DFF88081A8F108086EB909E0D9F84F
:101ED0000020604B22F4F81218400243C9F8002099
:101EE0003DE72068800178D5D8F8001021F08061A6
:101EF000C8F80010FFF798FD064604E0FFF794FDD0
:101F0000801B64286AD8D8F800000001F6D4207835
:101F10005149C00711D0606B78B908680A68C0F3EE
:101F200001406368C2F303629B0143EA004040EA58
:101F30000260227A40EA027008602068020303D53A
:101F4000E26BB2F5801F05D0C0021AD5206CB0F547
:101F5000800F16D108680A68C0F301406368C2F3B5
:101F600002729B0143EA0040237B40EA036040EA9F
:101F7000027008603868626A20F01F00521E104329
:101F800038602068C0010FD508680A68C0F3036094
:101F90006368268AC2F302729B0143EA064343EA5E
:101FA000006040EA02700860206880010BD560681C
:101FB000228A800140EA0240227B40EA0260227AC3
:101FC00040EA02700860D8F8001041F08061C8F85B
:101FD0000010FFF729FD064606E009E082E0FFF762
:101FE00023FD801B64287DD8D8F800000001F6D5B9
:101FF000B5B3D8F80000454620F08050C8F800007E
:10200000FFF712FD064604E0FFF70EFD801B642873
:1020100075D82868C0438000F6D520680F490203B0
:1020200001D5E26B1AB1C0022BD5206C48BB086801
:102030000A68C0F301406369C2F302729B0143EA7C
:1020400000400EE0083802408C380240007000402A
:1020500090380240FFFCFF0F84380240883802406D
:1020600054E0237E40EA036040EA0270086038686A
:102070006FF0FF03A26A20F4F85003EB0222104332
:1020800038602068800212D5E06F48450FD108689B
:102090000A68C0F303606369268CC2F302729B0175
:1020A00043EA064343EA006040EA02700860207891
:1020B000000715D508680A68C0F303606369C2F3B6
:1020C00001429B0143EA024242EA0060227F40EA69
:1020D000027008603868E16A20F4403008433860D4
:1020E000286800E00BE040F080502860FFF79CFC7F
:1020F000044607E0FFF798FC001B642802D9032080
:10210000BDE8F88F2868C0438000F3D40020F7E7CB
:102110002DE9F04704000D4669D0DFF81C81D8F89E
:10212000000000F00F00A8420CD2D8F8001021F0F7
:102130000F012943C8F80010D8F8000000F00F0084
:10214000A84254D120683D4E810712D5400703D5DF
:10215000306840F4E05030602078000703D53068E4
:1021600040F4604030603068A16820F0F00008431F
:1021700030602078C00729D03049606808390128CC
:1021800010D00968022810D0890700292FDA316899
:1021900021F0030101433160FFF746FC074641F29D
:1021A00088390CE009688903EFE78901EDE7FFF75B
:1021B0003BFCC11B494502D90320BDE8F0873068CC
:1021C000616800F00C00B0EB810FF0D1D8F800107E
:1021D000404601F00F01A9420BD9016821F00F011F
:1021E00029430160006800F00F00A84201D00120DF
:1021F000E3E72078400705D53068E16820F4E05037
:10220000084330602078000706D53068216920F443
:10221000604040EAC100306000F058F83168084A78
:10222000C1F30311515CC8400649086006480068C4
:10223000FFF714FC0020C0E7003C024008380240D1
:10224000708E000810000020080000200F2202609D
:102250000C4A136803F003034360136803F0F003B0
:102260008360136803F4E053C36012684FF4E053D3
:1022700003EAD20202610448006800F00F0008601F
:102280007047000008380240003C024004480549FD
:1022900000680968044AC1F38221515CC840704754
:1022A0001000002008380240808E000804480549CC
:1022B00000680968044AC1F34231515CC840704764
:1022C0001000002008380240808E0008154810B524
:1022D000006810F00C01144813D0431004290FD0EB
:1022E00008290ED10F4C241F216801F03F022168FC
:1022F000490207D52068C0F38810A0FB030106E05F
:10230000184610BD2168C1F38811A1FB000100230C
:10231000FDF7DAFF2168C1F30141491C4900B0FB18
:10232000F1F010BD083802400024F4002DE9F84F08
:1023300004004FF0000877D02078DFF850B3ABF1FD
:102340000409C007A9F104054AD0DBF8001058467B
:10235000C1F38101012908D00068C0F3810002287F
:102360000AD1D9F80000400206D52868800337D585
:1023700060680028DFD033E06068B0F5803F0BD0A4
:1023800010B1B0F5A02F11D0286820F4803028605B
:10239000286820F4802002E0286840F4803028601B
:1023A000606888B1FFF740FB064609E0286840F402
:1023B00080202860F0E7FFF737FB801B642873D884
:1023C00028688003F7D50BE0FFF72EFB064604E0F4
:1023D000FFF72AFB801B6428F1D828688003F7D414
:1023E0002078800740D5DBF80010584611F00C0F1C
:1023F00008D00068C0F3810002280AD1D9F8000093
:10240000400206D42868800717D5E06801280BD160
:1024100013E0E0680028286817D040F00100286029
:10242000FFF702FB064605E02CE1FFF7FDFA801BF3
:102430000228C4D828688007F7D52868216920F0C9
:10244000F80040EAC10028600EE020F0010028609A
:10245000FFF7EAFA064604E0FFF7E6FA801B0228D7
:1024600022D828688007F7D42078000725D5874F21
:1024700060696C37002838680FD040F00100386080
:10248000FFF7D2FA064604E0FFF7CEFA801B0228D7
:102490000AD838688007F7D50FE020F001003860CF
:1024A000FFF7C2FA064605E082E0FFF7BDFA801B9F
:1024B00002287DD838688007F7D42078400769D58E
:1024C000DFF8C8A10AF1380ADAF80000C0000CD41D
:1024D000DAF8001041F08051CAF80010DAF8000074
:1024E0004FF0010800F080500090694F3868C00537
:1024F0000FD4386840F480703860FFF795FA0646CC
:1025000004E0FFF791FA801B642851D83868C005B1
:10251000F7D55E4FA068683701280AD008B10528B2
:1025200011D0386820F001003860386820F00400CD
:1025300002E0386840F001003860A06898B1FFF709
:1025400073FA06460BE0386840F004003860F0E7A4
:10255000FFF76AFA811B41F28830814265D83868FA
:102560008007F5D50DE0FFF75FFA064606E0FFF7B6
:102570005BFA811B41F28830814256D83868800767
:10258000F5D4B8F1000F05D0DAF8001021F0805131
:10259000CAF80010A169C9B3DBF80000C0F38100DC
:1025A000022849D02868022920F08070286000E0C5
:1025B0003BE003D0FFF738FA044639E0FFF734FA7E
:1025C000064604E0FFF730FA801B02282DD8286861
:1025D0008001F7D4D4E907012E4A0843A16A4908CB
:1025E00002EB0141626A41EA8211084394F82C101F
:1025F00040EA016040F00051C9F80010286840F03E
:1026000080702860FFF710FA044605E03CE0FFF711
:102610000BFA001B022808D828688001F7D533E0A0
:10262000FFF702FA001B022802D90320BDE8F88F49
:1026300028688001F4D427E0D9F80000012921D0CE
:10264000E26900F4800191421CD1226A00F03F014E
:10265000914217D1626A47F6C0710140B1EB821F07
:1026600010D1A26A4FF0FF3300F4403103EB520265
:10267000B1EB024F06D194F82C1000F07060B0EB73
:10268000016F01D00120D1E70020CFE708380240D8
:10269000007000400000FFFF704770477047000067
:1026A00030B590F83C20012A3AD0012280F83C2035
:1026B000CA6800248B6822F440721A4D1A434B6892
:1026C00022F480621A430B6822F400621A430B69F9
:1026D00022F480521A434B6922F400521A438B6A47
:1026E00022F480421A430B8B22F4702242EA034206
:1026F0000368AB4202D00C4DAB420CD18D8C22F45E
:10270000700242EA0552CD6922F08072096A2A43BA
:1027100022F000720A435A6480F83C40002030BD29
:10272000022030BD0000014000040140F0B590F8E7
:102730003C20012A3CD0012580F83C50022280F840
:102740003D2003685A689C681A4E1B4FB34201D063
:10275000BB4204D122F4700C4A6842EA0C0222F017
:10276000700C0A6842EA0C025A600268B24213D046
:10277000B2F1804F10D0114B9A420DD0104B9A42BB
:102780000AD0104B9A4207D0BA4205D00E4B9A425B
:1027900002D00E4B9A4204D1896824F08003194379
:1027A000916080F83D50002180F83C100846F0BD53
:1027B0000220F0BD00000140000401400004004080
:1027C00000080040000C004000400140001800409C
:1027D00010B5040003D094F83D0010B107E00120CB
:1027E00010BD002084F83C00204600F023F80220B1
:1027F00084F83D002068211D02F0FCF8012084F8D7
:10280000480084F83E0084F83F0084F8400084F8D3
:10281000410084F8420084F8430084F8440084F8BE
:10282000450084F8460084F8470084F83D00002005
:1028300010BD000008B50068334988420FD1334805
:10284000016841F00401016000680022052100F0E8
:10285000040000901E20FFF777F91E204EE02B4960
:102860002B4A091D904226D1086840F002000860FA
:1028700008680022052100F0020000902B20FFF7DD
:1028800063F92B20FFF752F9002205212C20FFF7D6
:102890005BF92C20FFF74AF900220F212D20FFF7CA
:1028A00053F92D20FFF742F9002205212E20FFF7D2
:1028B0004BF92E2022E0174A90420ED1086840F4CE
:1028C0008030086008680022052100F48030009004
:1028D0001820FFF739F9182010E00F4A904211D163
:1028E000086840F48020086008680022052100F490
:1028F000802000901A20FFF727F91A20BDE8084031
:10290000FFF714B908BD000000080040403802403D
:1029100000040140004001400048014090F83D1093
:10292000012901D001207047022180F83D10006884
:102930001249884214D0B0F1804F11D0104988421A
:102940000ED0104988420BD00F49884208D00F4959
:10295000884205D00E49884202D00E49884207D1EC
:1029600081680D4A1140062906D0B1F5803F03D099
:10297000016841F001010160002070470000014042
:102980000004004000080040000C0040000401402A
:1029900000400140001800400700010090F83D1081
:1029A000012901D001207047022180F83D10016803
:1029B000CA6842F00102CA6000681349884214D014
:1029C000B0F1804F11D0114988420ED01049884291
:1029D0000BD01049884208D00F49884205D00F49D2
:1029E000884202D00E49884207D181680D4A1140C1
:1029F000062906D0B1F5803F03D0016841F00101FE
:102A00000160002070470000000001400004004009
:102A100000080040000C004000040140004001405C
:102A2000001800400700010070B5044690F83C0013
:102A30000025012817D0012684F83C60022084F884
:102A40003D00206882682F4B1A4022F47F4282604A
:102A50000868502838D00DDC20284FD005DC90B312
:102A6000102811D14AE0022070BD302846D04028FD
:102A70000AD13BE060282FD070280DD0B0F5805FE0
:102A800003D0B0F5005F12D0012584F83D6000202E
:102A900084F83C00284670BD4A682068D1E90213DA
:102AA00002F01DF82068816841F0770109E04A686A
:102AB0002068D1E9021302F012F82068816841F41D
:102AC00080418160E1E719E0CA684968206802F046
:102AD0003DF92068502106E0CA684968206802F084
:102AE00046F92068602102F004F8CEE7CA68496818
:102AF000206802F02BF920684021F4E722680146A3
:102B00001046F0E788FFFEFF2DE9F04104000D4676
:102B100003D094F83D0018B108E00120BDE8F08131
:102B2000002084F83C00204600F046F8022084F89B
:102B30003D00206881681F4A114081602068211D86
:102B400001F058FF206881688269066A2B68AF69C6
:102B500026F0AA060B4340F203318A43A96842EAF1
:102B60000722EF6911434FF6FC429143EA6841EABC
:102B700007212F6A0A432969090141EA07311143F4
:102B80006A686D69836046EA05152A432068816199
:102B900020680262012084F8480084F83E0084F82E
:102BA0003F0084F8440084F8450084F83D0000208C
:102BB000B4E70000F8BFFEFF70B586B004461421EC
:102BC0006846FDF7D9FB6248022521680024614A66
:102BD000012681423BD15F481430016841F0010178
:102BE0000160006800F001000590106840F01000DE
:102BF00010601068694600F0100005904FF42060E6
:102C00000090CDE901545448CDE90346FEF70CFE8F
:102C1000002205211820FEF797FF1820FEF786FFF7
:102C2000002205211920FEF78FFF1920FEF77EFFF5
:102C3000002205211A20FEF787FF1A20FEF776FFF3
:102C4000002205211B20FEF77FFF1B2059E0414B8E
:102C500042481033B1F1804F22D0414EB14254D19D
:102C6000196841F002011960196801F0020105912B
:102C7000116841F001011160116801F00101059135
:102C8000C0210091CDE90154CDE903456946FEF725
:102C9000CBFD002205211D20FEF756FF1D2030E050
:102CA000196841F001011960196801F001010591ED
:102CB000116841F001011160116801F001010591F5
:102CC000116841F002011160116801F002010591E3
:102CD00020210091CDE90154CDE903466946FEF774
:102CE000A3FD08200090CDE901541E486946CDE9B6
:102CF0000346FEF799FD002205211C20FEF724FF64
:102D00001C20FEF713FF06B070BD174EB142FAD17A
:102D1000196841F008011960196801F0080105916E
:102D2000116841F001011160116801F00101059184
:102D300003210091CDE90154CDE903456946FEF731
:102D400073FD002205213220FEF7FEFE3220D8E777
:102D500000000140303802400010024000000240F4
:102D60000004004000040240000C004070B590F8E0
:102D70003E50044690F83F3090F8442090F84500CB
:102D8000022621B104290BD0012D16D10FE0012D0F
:102D900013D1012A11D184F83E6084F8446016E012
:102DA000012B0AD1012808D184F83F600DE0012BE6
:102DB00003D1012A01D1012801D0012070BD84F87E
:102DC0003E6084F83F6084F8446084F8456091B1C7
:102DD000042904D020680122002101F073FE20683C
:102DE0000122042101F06EFE2068016841F001011A
:102DF0000160002070BD012220680021F2E77047C9
:102E00002DE9F04104460068C66805694FF00007E7
:102E1000A90713D5B10711D5F91E0161012020774B
:102E2000206880698007204602D0FFF7E8FF04E0B1
:102E300000F0E6F8204600F0A8F92777680716D5D5
:102E4000700714D521686FF0040008610220207714
:102E50002068806910F4407F204602D0FFF7CFFF42
:102E600004E000F0CDF8204600F08FF9277728071E
:102E700015D5300713D521686FF0080008610420CC
:102E800020772068C0698007204602D0FFF7B7FF8F
:102E900004E000F0B5F8204600F077F92777E8065F
:102EA00016D5F00614D521686FF0100008610820CF
:102EB00020772068C06910F4407F204602D0FFF7D9
:102EC0009EFF04E000F09CF8204600F05EF92777B2
:102ED000E80708D0F00706D021686FF0010008610C
:102EE000204600F0D3F9280601D4A80408D53006FE
:102EF00006D521686FF4025008612046FFF7CDFB2C
:102F0000E80508D5300606D521686FF480700861A1
:102F10002046FFF7C1FB680608D5700606D5216874
:102F20006FF040000861204600F0BAF9A8060AD503
:102F3000B00608D521686FF0200008612046BDE882
:102F4000F041FFF7ABBBBDE8F081000030B587B0C2
:102F5000044614216846FDF70FFA20680021214C31
:102F60000223214AA04211D1106840F008001060ED
:102F7000106800F0080005904FF470400090CDE913
:102F80000131CDE903131948694613E0184D0324B4
:102F9000A84213D1106840F004001060106800F0DF
:102FA0000400059020020090CDE90131CDE9031421
:102FB00010486946FEF738FC07B030BD0E4DA842F8
:102FC000FAD1106840F010001060106800F0100096
:102FD000059060200090CDE90131CDE90314074848
:102FE0006946E7E70008004030380240000C024024
:102FF000000401400008024000400140001002406F
:10300000704770B5044690F83C0000260D46012834
:103010000BD0012084F83C000C2A4AD007DC82B196
:10302000042A20D0082A06D131E0022070BD102ADF
:1030300053D0142A63D00126002084F83C00304687
:1030400070BD206801F05EFD2068816941F00801D3
:1030500081612068816921F00401816120688169B2
:103060002A69114311E0206801F080FD2068816920
:1030700041F4006181612068816921F4806181618E
:10308000206881692A6941EA02218161D4E72068C8
:1030900001F0A6FD2068C16941F00801C161206806
:1030A000C16921F00401C1612068C1692A69114325
:1030B00011E0206801F0CCFD2068C16941F4006195
:1030C000C1612068C16921F48061C1612068C16962
:1030D0002A6941EA0221C161AEE7206801F0E4FDFE
:1030E0002068416D41F0080141652068416D21F083
:1030F000040141652068416D2A69114311E020688F
:1031000001F0FAFD2068416D41F4006141652068DD
:10311000416D21F4806141652068416D2A6941EA71
:103120000221416588E710B5040003D094F83D0002
:1031300010B107E0012010BD002084F83C002046BB
:1031400000F022F8022084F83D002068211D01F0E3
:1031500051FC012084F8480084F83E0084F83F00C8
:1031600084F8400084F8410084F8420084F8430069
:1031700084F8440084F8450084F8460084F8470049
:1031800084F83D00002010BD7047704710B504461C
:1031900069B104290ED008290FD00C2910D01029AC
:1031A00011D094F84300012810D0012010BD94F8EC
:1031B0003E00F8E794F83F00F5E794F84000F2E7A6
:1031C00094F84100EFE794F84200ECE70220E9B3FD
:1031D00004293FD0082940D00C2941D0102942D0E1
:1031E00084F843000122206801F06CFC1F4920682C
:1031F0001F4A884201D0904203D1436C43F40043FC
:1032000043642068884213D0B0F1804F10D0194930
:1032100088420DD0184988420AD01849884207D000
:10322000904205D01649884202D01649884207D1FB
:103230008168154A1140062906D0B1F5803F03D0B8
:10324000016841F001010160002010BDFFE784F832
:103250003E00C7E784F83F00C4E784F84000C1E7B8
:1032600084F84100BEE784F84200BBE7000001405B
:10327000000401400004004000080040000C004031
:1032800000400140001800400700010000680349A9
:10329000884201D1FEF7CEBB7047000000200040FD
:1032A0007047704770B50446C06FD4F880602168DD
:1032B00089684FF01005090618D5212816D1206815
:1032C000083050E8001F21F0800140E80012002A79
:1032D000F5D1206F38B1FEF7D5F820B1206FFEF799
:1032E0002CF9202821D0204601F054FF2068806866
:1032F000400618D5222E16D12068083050E8001F4D
:1033000021F0400140E80012002AF5D1606F38B189
:10331000FEF7B8F820B1606FFEF70FF9202804D04F
:10332000204601F011FF002070BDC4F88450032036
:1033300070BD70472DE9F04103680446D8691968EB
:103340009A6840F60F0528424FF000054FF002063C
:1033500005D182067ED58A067CD5A16E24E1DFF8F0
:1033600078C202F0010701EA0C0C57EA0C0C71D08C
:103370005FEAC07C0CD05FEAC15C09D54FF0010C5C
:10338000C3F820C0D4F8843043F00103C4F884307B
:10339000830709D5D30707D023681E62D4F8843089
:1033A00043F00403C4F8843043070AD5D20708D099
:1033B000236804221A62D4F8842042F00202C4F87E
:1033C000842002070CD501F020023A4308D023687C
:1033D00008221A62D4F8842042F00802C4F884203B
:1033E00002050BD54A0109D523684FF400621A6221
:1033F000D4F8842042F02002C4F88420D4F8842039
:10340000002A36D0800605D5880603D5A16E09B1FD
:1034100020468847D4F8840021688968490602D488
:1034200010F0280F27D0204601F08EFE206880681B
:1034300040061BD52068083050E8001F21F04001ED
:1034400040E80012002AF5D1606F78B16349016548
:10345000606F00E015E0FEF75EF8002809D0606FAD
:10346000016D00E02046BDE8F04108472046FFF727
:1034700060FFBDE8F0812046FFF75BFFC4F8845091
:10348000F7E7276E2022012F7ED1C7067CD5CF0615
:103490007AD51020186220688068400650D5636F86
:1034A000186840684FF480770004000C3CD0B4F8F2
:1034B0005810814238D9A4F85A00D869B8422BD0A4
:1034C000206850E8001F21F4807140E80013002BB1
:1034D000F6D12068083050E8001F21F0010140E8D3
:1034E0000013002BF5D12068083050E8001F21F0B0
:1034F000400140E80013002BF5D1C4F88020256678
:10350000206850E8001F21F0100140E80012002A56
:10351000F6D1606FFDF7B6FF6666B4F85800B4F8F0
:103520005A10401A81B207E0B4F858108142A0D175
:10353000D869B8429DD166662046FFF7B2FE98E78B
:10354000B4F85800B4F85A10401A81B2B4F85A00CE
:1035500000288ED000298CD0206850E8003F23F44A
:10356000907340E80037002FF6D12068083050E80B
:10357000003F23F0010340E80037002FF5D1C4F8E5
:1035800080202566A56600E009E0206850E8002F4D
:1035900022F0100240E80023002BF4D1CBE7030611
:1035A00006D50B0604D5E16E00297FF45BAF60E71A
:1035B0004006C4D54806C2D52046016851E8003F00
:1035C00023F0400341E80034002CF6D1C267C56601
:1035D00000F0FEF94DE70000200100041150000842
:1035E00010B5040002D0E06F10B107E0012010BD5B
:1035F000002084F87800204600F026F82420E067B8
:103600002068016821F001010160606A10B1204664
:1036100001F06CFC204601F0C9FD0128E7D02068CC
:10362000416821F4904141602068816821F02A01BD
:1036300081602068016841F0010101602046BDE819
:10364000104001F0B7BC00002DE9F04FA7B00446D0
:10365000142121A8FCF790FE84216846FCF78CFE1B
:10366000BE4D0227BC4903262068103DDFF8EC92CE
:103670004FF4806B88424FF0080A4FF000083FD1AA
:103680006846CDF800B0CDF85480FEF7C5FA08B111
:10369000FDF786FDD9F8001041F48011C9F800103B
:1036A000D9F8000000F480102690286840F004004B
:1036B0002860286800F004002690286840F0080080
:1036C0002860286821A9544600F0080026904FF48D
:1036D000805081E88101A248CDE9246AFEF7A4F870
:1036E00021A9042081E881019E48CDE92464FEF7E8
:1036F0009BF8002205213520FEF726FA352048E008
:10370000994988424AD18014CDF85C80009068467F
:10371000FEF782FA08B1FDF743FDD9F8001041F039
:103720008041C9F80010D9F8000000F080402690D0
:10373000286840F010002860286821A900F01000D7
:1037400026904FF4C070CDE92107CDF894A04746EC
:103750008648CDE92386FEF767F8864D84482860C1
:103760004FF02060C5E90107C5E9037B6F6128467A
:10377000AF61EF612F626F62FDF7B2FF08B1FDF735
:103780000FFD656700220521AC635220FEF7DCF9CE
:103790005220FEF7CBF927B0BDE8F08F764988427A
:1037A0002BD14014CDF8608000906846FEF734FAC3
:1037B00008B1FDF7F5FCD9F8001041F00041C9F857
:1037C0000010D9F8000000F000402690286840F072
:1037D00010002860286821A900F0100081E8C001CD
:1037E0002496CDE925A06148FEF71EF800220521A8
:1037F0005320FEF7A9F95320CBE760494FF0070AA1
:1038000088422CD14020CDF8448000906846FEF7D5
:1038100003FA08B1FDF7C4FC5048001D016841F0EF
:1038200010010160006800F010002690286840F048
:1038300001002860286821A900F0010026904FF4BB
:10384000C06081E881014E48CDE9246AFDF7ECFFB4
:10385000002205212520FEF777F9252099E749491F
:1038600088422CD18020CDF8488000906846FEF731
:10387000D3F908B1FDF794FCD9F8001041F40031F8
:10388000C9F80010D9F8000000F40030269028682C
:1038900040F001002860286821A900F0010026906E
:1038A0000C2081E881013648CDE9246AFDF7BCFF90
:1038B000002205212620FEF747F9262069E7324934
:1038C00088427FF468AF8015CDF84C800090684640
:1038D000FEF7A2F908B1FDF763FCD9F8001041F436
:1038E0008021C9F80010D9F8000000F4802026904B
:1038F000286840F002002860286821A900F0020032
:1039000026904FF44060CDE92107CDF894A04746BA
:103910001E48CDE92386FDF787FF164D1448603514
:10392000303828604FF00060C5E90107C5E9037B26
:103930006F612846AF61EF612F626F62FDF7D0FEC5
:1039400008B1FDF72DFC656700220521AC63272037
:10395000FEF7FAF827201CE70050004040380240EC
:1039600000080240000C02400078004000100240B5
:1039700058600240AC130020007C00400010014061
:1039800000000240004400400048004000040240A3
:1039900030B4D0F88030202B02D0022030BC7047E9
:1039A00091B18AB10023036603685B681B0208D5E6
:1039B000036853E8004F44F0806443E80045002D5D
:1039C000F6D130BC01F00CBD0120E7E7704770472D
:1039D0007047FEE7F0B52DED028B83B09FED538A63
:1039E00000254FF0010C8DED018A2C462B468DF8F9
:1039F000085012E007880CFA03FE17EA0E0F0AD0EF
:103A00000788641CE4B203F1010E0CFA0EF637428B
:103A100001D16D1CEDB25B1CDBB28B42EAD3457267
:103A20000472434B1E78434DE6B11B78012B04D042
:103A3000022B08D0032B1FD10BE002AB009301AB8C
:103A400003F012FF18E002AB009301AB03F0C2FFDA
:103A500012E002AB009301AB03F088FE0CE085EDB1
:103A6000018A1FE0344B1B6A1E05E6D4DE04EAD44B
:103A7000DE011CD58DED018A9DF908000528EEDCDC
:103A8000ECB39DF90800D0B300EE100ADDED010A99
:103A9000B8EEC00A80EE801A8DED011A9DED010A84
:103AA00085ED010A03B00020BDEC028BF0BD1B03C5
:103AB00002D503F00FFFF3E71E4ED3B2403E8F1A3C
:103AC00024E0B0F800C0CA1A521E9DF808E02CFA93
:103AD00002FC0CF0010CF4448DF808C0B0F800C0F2
:103AE0002CFA02FC0CF0010200EE102A06EB830215
:103AF000F8EE400A92ED001A9DED010A00E012E096
:103B000000EE810A5B1CDBB28DED010A9F42D8DC1E
:103B1000017A0429A3D29DF9081004299FDA407A7A
:103B200001289CD8ACE78DED018AB7E700000000C2
:103B3000580D002098EA0020A4E700200D4808B5A1
:103B4000016841F40011016000680022052100F4C1
:103B5000001000900C20FDF7F7FF0C20FDF7E6FFAA
:103B6000002205210E20FDF7EFFFBDE808400E20E2
:103B7000FDF7DCBF30380240044A0021044810B58C
:103B800002F044FE0349086010BD0000448E0008A6
:103B9000F1470008000000202DE9F04186B0142113
:103BA0006846FCF7E9FB3848016841F01001016004
:103BB000016801F010010591016841F08001016088
:103BC000016801F080010591016841F00101016087
:103BD000016801F001010591016841F004010160F3
:103BE000016801F004010591016841F002010160E2
:103BF000016801F002010591016841F008010160CE
:103C000000680022214F102100F00800059038467E
:103C1000FDF705FFDFF878804FF4C05600223146EB
:103C20004046FDF7FCFE0024694610200090012567
:103C30003846CDE901540394FDF7F6FD43F2F61042
:103C40006946CDE9000413480294FDF7EDFD40F606
:103C5000FB706946CDE900040F480294FDF7E4FDCE
:103C600028026946CDE9000440460294FDF7DCFDD8
:103C700000966946CDE9015440460394FDF7D4FD12
:103C800006B0BDE8F0810000303802400008024074
:103C90000000024000040240000C02400C4845F2C3
:103CA0005F420A4910B5016042F20F714160002184
:103CB000C0E90212016180218161FEF789FD0028BF
:103CC00003D0BDE81040FDF76BBA10BD00480140BD
:103CD0003010002010B58CB024216846FCF74CFB56
:103CE00018480024164909940A940B94C0E900145A
:103CF0004FF6FF71C0E9024180210461C0E905412E
:103D000003200494CDE9000401206946CDE90204B2
:103D1000CDE905400B4807940894FEF7F5FE08B17D
:103D2000FDF73EFA074809A909940A940B94FEF797
:103D3000FDFC002801D0FDF733FA0CB010BD0000E7
:103D4000000001401C0E002010B58CB024216846F4
:103D5000FCF712FB164800244FF0804109940A94A6
:103D60000B94C0E900144FF6FF71C0E902418021B5
:103D7000046181610320CDE9000401200494CDE9B0
:103D800002046946CDE90540094807940894FEF706
:103D9000BBFE08B1FDF704FA054809A909940B9484
:103DA000FEF7C4FC002801D0FDF7FAF90CB010BDF5
:103DB000680E002010B58CB024216846FCF7DCFAB0
:103DC00017480024154909940A940B94C0E900147B
:103DD0004FF6FF71C0E90241802104618161032037
:103DE000CDE9000401200494CDE902046946CDE93F
:103DF00005400B4807940894FEF786FE08B1FDF7CE
:103E0000CFF9074809A909940B94FEF78FFC002805
:103E100001D0FDF7C5F90CB010BD00000004004052
:103E2000B40E002010B58EB0002468461C21079403
:103E3000089409940A940B940C940D94FCF79CFA42
:103E40002A482949C0E9001442F62F21C0E902415D
:103E5000046180218161FEF7BBFC08B1FDF7A0F988
:103E60004FF480500790214807A9FEF7DDFD08B107
:103E7000FDF796F91D48FFF756F908B1FDF790F9DF
:103E80001A480BA90B940D94FEF750FC08B1FDF7EE
:103E900087F960206946CDE90004144800220294A5
:103EA0000494FFF7AEF808B1FDF77AF90F48042241
:103EB0006946FFF7A6F808B1FDF772F90B4808222A
:103EC0006946FFF79EF808B1FDF76AF907480C222A
:103ED0006946FFF796F808B1FDF762F90348FFF766
:103EE00035F80EB010BD000000080040000F0020A3
:103EF00010B58CB024216846FCF73EFA1748002420
:103F0000154909940A940B94C0E900144FF6FF7107
:103F1000C0E902418021046181610320CDE90004F0
:103F200001200494CDE902046946CDE905400B481F
:103F300007940894FEF7E8FD08B1FDF731F907484A
:103F400009A909940B94FEF7F1FB002801D0FDF7B5
:103F500027F90CB010BD0000000C00404C0F0020F1
:103F600010B59AB000241C2117940BA8189415942E
:103F70001694129413941494FCF7FEF92C216846BD
:103F8000FCF7FAF92F482E49C0E9001442F62F2118
:103F9000C0E9024180210461C0E90541FEF718FC37
:103FA00008B1FDF7FDF84FF480501590254815A98C
:103FB000FEF73AFD08B1FDF7F3F82248FFF7B3F832
:103FC00008B1FDF7EDF81F4812A912941394149448
:103FD000FEF7ACFB08B1FDF7E3F86020CDE90B0478
:103FE000184808220BA90D940E940F941094119464
:103FF000FFF707F808B1FDF7D3F812480C220BA918
:10400000FEF7FFFF08B1FDF7CBF84FF40050009426
:10401000019469460294CDE9044000030394069498
:10402000CDE90740074809940A94FEF739FB08B127
:10403000FDF7B6F80348FEF789FF1AB010BD00007F
:1040400000040140980F002010B58CB00024684691
:104050001C210794089409940A94FCF78DF91E48D2
:104060001C49C0E9001442F62F21C0E90241046155
:1040700080218161FEF7ACFB08B1FDF791F84FF4A8
:1040800080500790144807A9FEF7CEFC08B1FDF751
:1040900087F81148FFF747F808B1FDF781F860206D
:1040A0006946CDE900040C48002202940494FEF70E
:1040B000A8FF08B1FDF774F8074804226946FEF727
:1040C000A0FF08B1FDF76CF80348FEF73FFF0CB006
:1040D00010BD000000400140E40F00200D480C22FC
:1040E0000B4910B501604FF4E1314160002181605E
:1040F000C160C0E904128161C16101624162FFF7E0
:104100006FFA002803D0BDE81040FDF749B810BD94
:10411000005000407C1000200D480C220B4910B5C7
:1041200001604FF4E131416000218160C160C0E96C
:1041300004128161C16101624162FFF751FA0028F6
:1041400003D0BDE81040FDF72BB810BD007800404B
:10415000041100200D480C220B4910B501604FF4EA
:10416000E131416000218160C160C0E904128161D8
:10417000C16101624162FFF733FA002803D0BDE854
:104180001040FDF70DB810BD007C00408C110020E0
:104190000D480C220B4910B501604FF4E13141602C
:1041A00000218160C160C0E904128161C1610162C6
:1041B0004162FFF715FA002803D0BDE81040FCF774
:1041C000EFBF10BD00100140141200200D480C225A
:1041D0000B4910B501604FF4E1314160002181606D
:1041E000C160C0E904128161C16101624162FFF7EF
:1041F000F7F9002803D0BDE81040FCF7D1BF10BD8F
:10420000004400409C1200200D480C220B4910B5C0
:1042100001604FF41651416000218160C160C0E926
:1042200004128161C16101624162FFF7D9F900287E
:1042300003D0BDE81040FCF7B3BF10BD00480040FC
:1042400024130020FEE7FEE72DE9F0410024064696
:1042500004202DED088BB0EE438AF0EE628AB0EEBA
:10426000429AF0EE619AB0EE41AAF0EE60AAB0EE8A
:1042700040BAFCF77DFC254D254FDFF8988085ED91
:1042800003BAC7ED01AA98ED020AC7ED01AA2EB143
:10429000E4B1012C23D0022C2FD129E024B1012C30
:1042A00008D0022C29D10BE0B4EECA0AF1EE10FAC4
:1042B00011DA22E0B4EEC90AF1EE10FA14DA1CE0C9
:1042C000B4EEC80AF1EE10FA1BD916E0B4EECA0A31
:1042D000F1EE10FA11D80124C5ED039A0DE0B4EE09
:1042E000C90AF1EE10FA08D80224C5ED038A04E0E9
:1042F000B4EEC80AF1EE10FA03DA052003F04CFE22
:10430000C1E7BDEC088BBDE8F0810000EC0D00209A
:10431000D80D002044EA00202DE9F04300242DEDC3
:10432000048B89B09FED8C9A8C4EA0468DED009A3F
:10433000B3EE048AF3EE098A307FF0EE489A012842
:1043400019D187490320F0EE488AF2EE049A0870EA
:104350004546844880ED009A80F804801C2101A81D
:10436000FCF70AF880481C2201A9FBF7DEFF7F4812
:104370000560456085600220B0EE491AF0EE680ADB
:10438000B0EE680AFCF738FBFCF7CEFA784D4FF434
:104390008079784FF1EE048A34B1012C47D0022C99
:1043A0007DD0032C7CD19DE032206946FDF748F892
:1043B000B0EE690A00F0E4F8002823D09DED000A71
:1043C000B5EEC00AF1EE10FA03D101F017FC8DED45
:1043D000000A307F97ED000A012814D030EE281A29
:1043E00030EE082A0020F0EE493AB0EE413AF2EE03
:1043F000082AF2EE081ADDED000AB3EE090AFFF70B
:1044000023FF01248FE070EE280A70EE081A0020C6
:10441000B2EE082AF0EE602AB2EE081AB3EE090AEC
:1044200003F0C4FB01F0EAFB8DED000AE9E704208C
:104430009DED001AF2EE080AB2EE080AFCF7DCFA6B
:104440004C4602E0052003F0A7FD21462846FDF773
:10445000E1FA0028F6D002E0052003F09DFD214698
:104460002846FDF7D7FA0028F6D1FCF73FFA64207A
:1044700003F092FD4048D6ED090A90ED000A02F0E3
:104480001BF901F0BBFB8DED000AB0EE401A0420D1
:10449000F2EE080AB1EE040AFCF75EFA01E015E05C
:1044A00040E0FCF723FA642003F076FD04209DED44
:1044B000001AFAEE080AB1EE040AFCF74DFAFCF70E
:1044C00015FAC82003F068FD02242CE0FCF70EFA70
:1044D000642003F061FDFCF773FB642003F05CFDD6
:1044E000032420E001F08AFBF0EE400A97ED000A79
:1044F0000120F0EE493A30EE681A30EE482AF3EE29
:10450000092AF2EE081AB0EE413AB2EE080AFFF7B5
:104510009BFE0220B0EE491AF3EE090AB3EE090A37
:10452000FCF76AFA0424052003F036FD042C7FF41E
:1045300033AFFCF7F9F9114880ED029A01F09CFEC7
:1045400086F83080307840F00400307009B0BDEC5F
:10455000048BBDE8F083000000000000A4E7002009
:10456000580D0020600D00206CE90020E8EA0020D2
:10457000000C0240480D002044EA0020EC0D002011
:104580000948D0ED020A094890ED001A70EEC10A00
:10459000F0EEE00AF4EEC00AF1EE10FA01DD0120BF
:1045A000704700207047000044EA0020480D0020BA
:1045B00010B54D491C222DED028B8EB06846FBF7DD
:1045C000B4FE4A491C2207A8FBF7AFFE9FED480A3C
:1045D000454880ED000A9FED470A80ED010A9FEDF6
:1045E000460A80ED020ADFED458A0220F2EE080A53
:1045F000B0EE681AB2EE080AFCF7FEF9FCF794F97F
:104600003F4CBFEE008A10E001F0CAFB2088C0F3E7
:10461000C110032806D1207A052803D201F0EEFA52
:10462000B0EE408A052003F0B7FC207A0828EBD3CF
:1046300018EE100A10F1814F03D101F0DFFAB0EE4D
:10464000408A3048F1EE040AF0EE683A90ED000A34
:104650000020F2EE082A30EE201AF3EE040AF2EE01
:10466000081A30EE202AB0EE413AF0EE480AB3EED6
:10467000090AFFF7E9FD0420B0EE481AF2EE080A35
:104680009FED210AFCF768F9FCF730F9C82003F028
:1046900083FC01F0B3FAB0EE408A01F0AFFADFED2F
:1046A0001B0A30EE200AF0EE480AFCF7CFFA0E485B
:1046B0001C226946FBF739FE0C481C2207A9FBF7B0
:1046C00034FEFCF731F91248C0ED028A01F0D4FD46
:1046D0001048002180F83010017841F00401017089
:1046E0000EB0BDEC028B10BDE0E8002034E90020E4
:1046F00000000C426F12833B000096430000000054
:1047000098EA0020480D0020000096420000344343
:10471000EC0D0020A4E7002070B5B0EE401A01F0C7
:104720006DFAF0EE410A02F003F8B0EEC01A11EE95
:10473000101A2648264CDFED240AB1F1804F09DA21
:10474000C4ED010AC4ED000AC0ED040AC0ED000A80
:10475000012070BD1F4D297F01290DD111EE101AC6
:104760001D4A914208DDB5EEC00AF1EE10FA03DDF4
:104770009FED1A1A30EE410A194980ED020AC0ED88
:10478000060A124802F05EFAD4ED040A01F0E8F8D5
:10479000287F012809D01B2884ED000A0ED0B1EE35
:1047A000400A002084ED010A70BDDFED0E0A60EEC4
:1047B000200AC4ED000ADFED0C0A01E0DFED0B0A70
:1047C00020EE200AEDE700000000000088E900204C
:1047D000EC0D0020A4E70020000016430000B443C5
:1047E00018E9002014AE473F333373BFCDCC8CBFE4
:1047F000012001F0B9FFFBE710B503F0EDFA01F07D
:1048000043FC01F009FE03F00BFBBDE81040002063
:1048100003F038BC08B50448202304A10090DA0056
:10482000054801F0ACF808BDC80D00205374617252
:10483000745F7461736B0000F9470008502010B575
:1048400072B680F31188BFF34F8FBFF36F8F62B6DC
:1048500004F080F818B104494FF08050086000203F
:1048600080F3118810BD000004ED00E010B592B097
:1048700030216846FBF780FD14210CA8FBF77CFD76
:104880001F48016841F080510160006800F08050CD
:1048900011901C48016841F4404101600068022405
:1048A00000F440401190012000900004019080012C
:1048B000CDE9064004200890D820CDE909046846D7
:1048C0000B94FDF733FD08B172B6FEE7FDF76EF904
:1048D00008B172B6FEE70F20CDE90C0400200E905F
:1048E0004FF4A0500F904FF48050109007210CA867
:1048F000FDF70EFC002801D072B6FEE712B010BD25
:1049000040380240007000400248016841F47001E4
:104910000160704788ED00E0044810B5FEF770FABA
:10492000BDE810400248FEF76BBA00001C0E0020E4
:10493000E40F00200148FEF763BA00001C0E0020BF
:10494000044810B5FEF75CFABDE810400248FEF7D7
:1049500057BA00001C0E0020301000200148FEF75E
:104960004FBA00001C0E00200148FEF749BA0000B3
:10497000680E00200148FEF743BA0000B40E002084
:104980000148FEF73DBA0000000F00200148FEF785
:1049900037BA00004C0F002005480068C168C943C1
:1049A000C90701D1891E01610148FEF729BA00003B
:1049B00000EB00200148FEF723BA0000980F00200A
:1049C0000148FEF71DBA0000980F0020044810B5FA
:1049D000FEF716FABDE810400248FEF711BA0000D3
:1049E000980F00206C1400200148FEF709BA00005F
:1049F000980F0020F0B502684FF0804E264D274EEC
:104A0000274FA842DFF89CC0274B09D0704507D03C
:104A1000B04205D0B84203D0604501D0984203D1DE
:104A200022F070044A682243A8421BD0704519D076
:104A3000B04217D0B84215D0604513D0984211D07B
:104A40001A4CA0420ED01A4CA0420BD0194CA042D6
:104A500008D0194CA04205D0184CA04202D0184CE6
:104A6000A04203D122F44074CA6822434C6922F068
:104A7000800222438C68C4620C688462A84201D020
:104A8000984201D109690163016841F004010160A4
:104A9000012141610260F0BD0000014000040040BE
:104AA00000080040000C00400004014000400140AC
:104AB000004401400048014000180040001C004034
:104AC00000200040012301F01F0110B5046A8B4053
:104AD0009C430462036A8A401343036210BD10B50D
:104AE000846842EA03220A4324F47F44224382601A
:104AF00010BD826822F070020A4342F00701816013
:104B000070470000F0B5056A026A22F001020262F5
:104B10004268836925F00205114C124E23400C684F
:104B200023F00303104F1C438B682B43B04201D08A
:104B3000B84205D1CD6823F008031D4325F00403D6
:104B4000B04201D0B84205D14D6922F440721543FC
:104B50008A692A4342608461496841630362F0BD07
:104B60008FFFFEFF0000014000040140F0B5056A20
:104B7000026A22F01002026242688369154C174EE5
:104B800023400C6823F4407343EA042425F02003F7
:104B90008D6843EA0513104DA84201D0B04206D1FA
:104BA000CF6823F0800343EA071323F04003A842B1
:104BB00001D0B04207D14D6922F4406242EA850239
:104BC0008D6942EA850242608461496881630362BB
:104BD000F0BD0000FF8FFFFE000001400004014017
:104BE000F0B5056A026A22F4807202624268C36903
:104BF000144C164E23400C6823F003031C4325F489
:104C000000738D6843EA05230F4DA84201D0B042DE
:104C100006D1CF6823F4006343EA072323F48063BB
:104C2000A84201D0B04207D14D6922F4405242EA75
:104C300005128D6942EA05124260C4614968C16388
:104C40000362F0BD8FFFFEFF000001400004014041
:104C500030B5046A026A22F4805202624268C36973
:104C600024F400540D4D2B400D6823F4407343EAA7
:104C700005238D6844EA0534094DA84202D0094D48
:104C8000A84204D14D6922F4804242EA8512426072
:104C9000C36149680164046230BD0000FF8FFFFEFC
:104CA000000001400004014030B5056A026A22F4A8
:104CB000803202624268436D0C4C23400C681C43F6
:104CC00025F400330D8943EA0543094DA84202D07B
:104CD000084DA84204D14D6922F4803242EA0522EF
:104CE0004260446549688165036230BD8FFFFEFF05
:104CF000000001400004014030B5046A026A22F459
:104D0000801202624268436D24F400140C4D2B4063
:104D10000D6843EA05230D8944EA0554094DA8426C
:104D200002D0094DA84204D14D6922F4802242EA02
:104D30008522426043654968C165046230BD000058
:104D4000FF8FFFFE000001400004014010B5046A1F
:104D5000036A23F001030362836923F0F00343EA4B
:104D60000213836124F00A020A43026210BD10B5E7
:104D7000036A046A24F010040462846923F0A00327
:104D800043EA011124F4704444EA02328261016270
:104D900010BD000010B5214C2DED028B20789FED49
:104DA000208A10B1B0EE480A0AE01E4890ED000AD1
:104DB000FBF7ACFDD4ED010A30EE600AFBF7A6FD6F
:104DC000DFED190A19481A4C30EEC00AF7EE000A56
:104DD00010EE101A80ED020AC0ED060AB1F1804F04
:104DE0000DDA144984ED018A84ED008A80ED048A8D
:104DF00080ED008A00200870BDEC028B10BD0E49CA
:104E00000A4801F01FFFD4ED040A00F0A9FD84ED6B
:104E1000000AB1EE400A84ED010AEDE7E00D002042
:104E20000000000044EA00200000B44388E90020AC
:104E3000EC0D0020A80D002018E9002070B52DED24
:104E4000048BB0EE409A00F0D9FEF0EE408AF0EE0E
:104E5000490A01F06DFCB0EEC00A10EE100A174CC2
:104E6000174D9FED158AB0F1804F0BDA84ED018A62
:104E700084ED008A85ED048A012085ED008ABDEC71
:104E8000048B70BDF0EE490AB0EE680A01F050FCE8
:104E900085ED020A0B490A4885ED068A01F0D2FE2B
:104EA000D4ED040A00F05CFD84ED000AB1EE400A86
:104EB000002084ED010AE2E700000000EC0D002074
:104EC00088E9002018E900200148FEF733BA000005
:104ED0007C1000200148FEF72DBA000004110020CC
:104EE0000148FEF727BA00008C11002090F824102A
:104EF000090706D501684A68436B22F400421A4349
:104F00004A6090F82410C90706D001684A68836A8D
:104F100022F400321A434A6090F82410890706D51B
:104F200001684A68C36A22F480321A434A6090F8E2
:104F30002410490706D501684A68036B22F48022D1
:104F40001A434A6090F82410C90606D501688A6899
:104F5000836B22F480521A438A6090F824108906E9
:104F600006D501688A68C36B22F400521A438A602E
:104F700090F82410490611D501684A68036C22F4A0
:104F800080121A434A60016CB1F5801F06D1016896
:104F90004A68436C22F4C0021A434A6090F8241015
:104FA000090606D501684A68806C22F40022024393
:104FB0004A607047F8B500250446C0F88450FCF7F5
:104FC00033FD0346206800684FF02006000716D521
:104FD0006FF07E40009000222046310400F050FA2D
:104FE00068B1206850E8001F21F0800140E80012FD
:104FF000002AF6D1E667032084F87850F8BDE6670A
:10500000C4F8806025666566002084F87850F8BD95
:1050100010B5806B0021A0F85A10FEF78AF910BD78
:1050200070B5846BE06FD4F88050216889684FF0C8
:105030000006090606D5212804D1A4F852602046AE
:1050400000F0A8F820688068400606D5222D04D11B
:10505000A4F85A60204600F077F8D4F8840040F0B5
:105060001000C4F884002046FEF763F970BD0346C3
:1050700070B5D9690024806BB1F5807F2DD0A0F880
:105080005A40016851E8002F22F4807241E800255F
:10509000002DF6D10168083151E8002F22F00102FD
:1050A00041E80025002DF5D10168083151E8002FB5
:1050B00022F0400241E80025002DF5D12021C0F862
:1050C0008010016E012908D1016851E8002F22F0FB
:1050D000100241E80025002DF6D14466016E012939
:1050E00002D0FEF773FC70BDA0F85A4019684968F9
:1050F000B0F8582089B28A4201D9A0F85A10B0F805
:105100005A10511A89B2FEF7CCF870BD10B502469C
:10511000806B01214166016E012902D0FEF757FC28
:1051200010BDB0F858104B08A0F85A3012685268F9
:1051300092B2914201D3A0F85A20B0F85A20891AAD
:1051400089B2FEF7AEF810BD016851E8002F22F4D5
:10515000907241E80023002BF6D10168083151E834
:10516000002F22F0010241E80023002BF5D1016E4F
:10517000012908D1016851E8002F22F0100241E80E
:105180000023002BF6D12021C0F8801000210166F9
:1051900081667047016851E8002F22F0C00241E8A3
:1051A0000023002BF6D12021C167704770B504465B
:1051B000816800690025E269014360691043014389
:1051C000206802687B4B1A400A43026020684168ED
:1051D000E26821F4405111434160216AA069014312
:1051E0002068826822F430620A438260724B4FF476
:1051F00000422068714998420AD1086810F0030003
:1052000052D001287CD002287BD003286ED187E0C1
:105210006B4B98420AD1086810F00C007AD0042831
:105220007CD0082878D00C2860D179E0654B984272
:105230000AD1086810F030006CD010286ED02028F9
:105240006AD0302852D16BE05F4B98420AD108688F
:1052500010F0C0005ED0402860D080285CD0C0280C
:1052600044D15DE0594B98420DD1086810F440706C
:1052700050D0B0F5807F51D0B0F5007F4CD0B0F564
:10528000407F33D14CE0524B98420FD1086810F464
:10529000406009D0B0F5806F40D0B0F5006F3BD0D2
:1052A000B0F5406F22D13BE0012120E0494B98420C
:1052B0000DD1086810F440502CD0B0F5805F2DD08F
:1052C000B0F5005F28D0B0F5405F0FD128E0424B29
:1052D00098420BD1086810F440401BD0B0F5804FC5
:1052E0001CD0904218D0B0F5404F19D01021E3697E
:1052F0003A484FF6EF76934233D109294CD202E077
:105300000CE009E006E0DFE801F00D101547294741
:10531000474716000021EAE70221E8E70421E6E713
:105320000821E4E7FCF7B2FF01E0FCF7BFFF020051
:1053300001D139E002466068510001EB5001B1FB38
:10534000F0F0A0F11001B14226D84FF6F071014003
:10535000C0F3420001432068C16025E0FCF7B6FFBE
:10536000E5E7092918D2DFE801F005080D1719173C
:1053700017170E00FCF78AFF01E0FCF797FF020009
:1053800001D111E00246606802EB5001B1FBF0F080
:10539000A0F11001B14204D9012505E0FCF796FF08
:1053A000EDE7216880B2C8600020A066E06628466C
:1053B00070BD0000F369FFEF00100140903802401B
:1053C0000044004000480040004C004000500040B5
:1053D0000014014000780040007C00400024F400EC
:1053E00070B541650021A0F858200446C0F884102B
:1053F0002220C4F88000606FD8B11E4BC363636F76
:105400001D481864636F1D48D8641346606F0165BA
:10541000606D656F2168024628462431FCF7C8F9A3
:1054200038B11020C4F884002020C4F88000012086
:1054300070BD206940B1206850E8001F41F48071C0
:1054400040E80012002AF6D12068083050E8001F1A
:1054500041F0010140E80012002AF5D1206808302F
:1054600050E8001F41F0400140E80012002AF5D149
:10547000002070BD6F5000080D5100082150000839
:105480002DE9F0471F4690460D460446089E4FF012
:10549000000932E0701C30D0FCF7C6FAC01BB042E5
:1054A00018D8BEB120680168490726D5802D24D0C0
:1054B000402D22D0C169C94309070DD408250562D2
:1054C0002046FFF741FEC4F88450012084F878900C
:1054D000BDE8F0870320FBE7C069C04300050CD49A
:1054E00021684FF4006008622046FFF72DFE20205F
:1054F000C4F8840084F87890ECE72068C06935EA45
:10550000000004D000204045C4D00020E0E7012086
:10551000F9E700000148FDF70DBF0000141200205C
:105520000148FDF707BF00009C1200203E4870B5FF
:105530000068C169C1F3001100296BD0102101621C
:105540003948FDF7AFFE394800684068384CC0F173
:105550008400C0B22128207056D3364A10785528CE
:1055600052D1507851284FD1907D55284CD1D07DC3
:10557000532849D100211620135C401C20281944CF
:10558000C9B2F9DB92F8200088423DD1108BDFEDE3
:105590002A0A00B2274D404200EE100A9FED271A5A
:1055A0008435B8EEC00A20EE200A20EE010A85ED0F
:1055B000020A508B00B201EE900AF8EEE11A61EE99
:1055C000A01A61EE811AC5ED011A908B00B201EEAE
:1055D000900A1B48F8EEE11A61EEA00A60EE810A1B
:1055E000C5ED000A007878B100F094FA85ED020A62
:1055F00095ED010A00F08EFA85ED010A95ED000A9D
:1056000000F088FA85ED000A21780A48FAF7B4FE1E
:1056100000202070074984220348FEF7B9F9BDE84D
:1056200070400148FDF786BE241300200C140020B2
:10563000540D0020C0E90020000000380000344371
:10564000390D0020FEE70907090E002804DB00F1F0
:10565000E02080F80014704700F00F0000F1E02017
:1056600080F8141D704702E008C8121F08C1002A04
:10567000FAD170477047002001E001C1121F002AD3
:10568000FBD170470D48B0F90610002915DD90EDEB
:10569000020AB5EEC00AF1EE10FA06DD084981ED06
:1056A000000A90ED030A81ED020A00210171C18018
:1056B00090ED000A034880ED020A70478CE7002055
:1056C000E0E80020EC0D00202DE9F04100250F4618
:1056D000064636E006EB05141B48D4EC020A90EDB2
:1056E000040A00F02FF9B8B91848D4EC020A90ED7A
:1056F000040A00F027F978B91548D4EC020A90EDB5
:10570000040A00F01FF938B91248D4EC020A90EDEF
:10571000040A00F017F998B106EB0510104990ED56
:10572000020A0D4880ED000A9FED0C0A80ED010A87
:1057300094ED030A80ED020A00208870BDE8F08134
:105740006D1CBD42C6DBF9E710E8002028E8002008
:1057500040E8002058E80020E0E8002000000000B9
:10576000A40D00201C484078032834D11B4890F831
:10577000301002292FD1007F01282CD118499FED2C
:10578000190AD1ED000AF5EEC00AF1EE10FA06DDB5
:105790001548D0ED050A60EE800AC0ED050A1348F1
:1057A000D0ED050A60EE800AC0ED050AD1ED010AD0
:1057B000F5EEC00AF1EE10FA06DD0D48D0ED050A4F
:1057C00060EE800AC0ED050A0A48D0ED050A20EE19
:1057D000800A80ED050A7047A40D0020A4E7002090
:1057E000EC0D00209A99D93F10E8002028E800200D
:1057F00040E8002058E800200A48DFED090A01E0EF
:1058000030EE600A10EE101A8142F9DC064910EE03
:10581000100A884202D330EE200AF8E770470000F1
:105820000000B44300003443000034C32DE9F041CC
:1058300004462DED048BB0EE408A00F0B1FA1D490C
:1058400008881D4D1D4E1E4FC20AB7EE009AF3EE9A
:10585000098A4FF01E0005D0387000F0CFF930EE05
:10586000090A07E00988490609D0387000F0C6F92E
:1058700030EE490AFFF7C0FF87ED010A05E03878EE
:1058800070B1401E387097ED010A012084ED000AC6
:1058900085ED010AC6ED038ABDEC048BBDE8F081FD
:1058A00084ED008A85ED018AB3EE0E0A002086EDB4
:1058B000030AF1E798EA0020D80D0020EC0D002043
:1058C0008C00002070B503202DED048BB0EE609AA3
:1058D000F0EE408AFBF74CF91648184C184DC0ED15
:1058E000008A9FED158A02E0052002F055FB00F0CA
:1058F00085F938EEC00A01E030EE480A10EE100AD1
:10590000A042F9DC01E030EE080A10EE100AA842CD
:10591000F9D2B0EEC00AB4EEC90AF1EE10FAE3DC37
:105920000020FBF725F9BDEC048B3220BDE8704068
:1059300002F032BBD80D00200000B4430000344315
:10594000000034C3B4EEE00AF1EE10FA06DDB4EE66
:10595000C10AF1EE10FA01D2012070470020704711
:10596000B4EEE00AF1EE10FA06DCF1EE600AB4EEF5
:10597000E00AF1EE10FA01D2B0EE600A70471CB5F1
:1059800092B2049CCDE90034002302F071FF1CBDEB
:1059900070B58A074FF001040ED500230822058850
:1059A00004FA02F6354201D05B1CDBB2521CD2B2C3
:1059B000102AF4D3052B3ED24A070FD500232646E2
:1059C0001A46058806FA02F4254201D05B1CDBB2B8
:1059D000521CD2B2082AF4D3052B2CD20A0707D5C1
:1059E0000288C2F3C112032A02D1027A062A22D304
:1059F000CA0607D50288C2F3C102032A02D1027A7D
:105A0000062A18D38A0605D5427A022A02D3027AD8
:105A1000042A10D94A0602D5427A032A0BD20A0672
:105A200004D5027A3AB1027A0E2A04D2C90304D507
:105A3000007A052801D3012070BD002070BD000050
:105A400004490878401CC0B208700A2801D300201D
:105A500008707047E80D0020124808B5016841F051
:105A600020010160006840F2DB520F4900F0200085
:105A700000900E480160D72141600021C0E9021268
:105A8000016180218161FCF7A3FE002209213720FA
:105A9000FCF75AF83720FCF749F8BDE808400348FE
:105AA000FCF77CBF403802400014004000EB0020AF
:105AB00030B5002304464FF47A7504E0284600F020
:105AC00005F85B1C9BB2A342F8D330BD034900220A
:105AD0000A600A688242FCD3704700002414004028
